{
	"contracts/Auction.sol": {
		"Auction": {
			"abi": [
				{
					"inputs": [
						{
							"internalType": "string",
							"name": "_medicalEquipment",
							"type": "string"
						},
						{
							"internalType": "uint8",
							"name": "_maximumBid",
							"type": "uint8"
						},
						{
							"internalType": "uint256",
							"name": "_auctionDurationDays",
							"type": "uint256"
						}
					],
					"stateMutability": "nonpayable",
					"type": "constructor"
				},
				{
					"inputs": [],
					"name": "ReentrancyGuardReentrantCall",
					"type": "error"
				},
				{
					"inputs": [],
					"name": "auctionEndDate",
					"outputs": [
						{
							"internalType": "uint256",
							"name": "",
							"type": "uint256"
						}
					],
					"stateMutability": "view",
					"type": "function"
				},
				{
					"inputs": [],
					"name": "auctionEnded",
					"outputs": [
						{
							"internalType": "bool",
							"name": "",
							"type": "bool"
						}
					],
					"stateMutability": "view",
					"type": "function"
				},
				{
					"inputs": [],
					"name": "auctionStartDate",
					"outputs": [
						{
							"internalType": "uint256",
							"name": "",
							"type": "uint256"
						}
					],
					"stateMutability": "view",
					"type": "function"
				},
				{
					"inputs": [
						{
							"internalType": "uint8",
							"name": "_quantity",
							"type": "uint8"
						}
					],
					"name": "bid",
					"outputs": [],
					"stateMutability": "payable",
					"type": "function"
				},
				{
					"inputs": [],
					"name": "checkAuctionEndDatePassed",
					"outputs": [],
					"stateMutability": "nonpayable",
					"type": "function"
				},
				{
					"inputs": [],
					"name": "getBidPerSupplier",
					"outputs": [
						{
							"internalType": "address[]",
							"name": "",
							"type": "address[]"
						},
						{
							"internalType": "uint8[]",
							"name": "",
							"type": "uint8[]"
						}
					],
					"stateMutability": "view",
					"type": "function"
				},
				{
					"inputs": [],
					"name": "getSupplierSelected",
					"outputs": [
						{
							"internalType": "address",
							"name": "",
							"type": "address"
						}
					],
					"stateMutability": "view",
					"type": "function"
				},
				{
					"inputs": [],
					"name": "maximumBid",
					"outputs": [
						{
							"internalType": "uint8",
							"name": "",
							"type": "uint8"
						}
					],
					"stateMutability": "view",
					"type": "function"
				},
				{
					"inputs": [],
					"name": "medicalEquipment",
					"outputs": [
						{
							"internalType": "string",
							"name": "",
							"type": "string"
						}
					],
					"stateMutability": "view",
					"type": "function"
				},
				{
					"inputs": [],
					"name": "owner",
					"outputs": [
						{
							"internalType": "address",
							"name": "",
							"type": "address"
						}
					],
					"stateMutability": "view",
					"type": "function"
				},
				{
					"inputs": [],
					"name": "payDepositSupplierSelected",
					"outputs": [],
					"stateMutability": "nonpayable",
					"type": "function"
				},
				{
					"inputs": [],
					"name": "penalizeSupplier",
					"outputs": [],
					"stateMutability": "nonpayable",
					"type": "function"
				},
				{
					"inputs": [],
					"name": "quantityToPay",
					"outputs": [
						{
							"internalType": "uint8",
							"name": "",
							"type": "uint8"
						}
					],
					"stateMutability": "view",
					"type": "function"
				}
			],
			"devdoc": {
				"errors": {
					"ReentrancyGuardReentrantCall()": [
						{
							"details": "Unauthorized reentrant call."
						}
					]
				},
				"kind": "dev",
				"methods": {},
				"version": 1
			},
			"evm": {
				"assembly": "    /* \"contracts/Auction.sol\":137:5655  contract Auction is ReentrancyGuard {... */\n  mstore(0x40, 0x0100)\n    /* \"contracts/Auction.sol\":664:1232  constructor(string memory _medicalEquipment, uint8 _maximumBid, uint256 _auctionDurationDays) {... */\n  callvalue\n  dup1\n  iszero\n  tag_1\n  jumpi\n  revert(0x00, 0x00)\ntag_1:\n  pop\n  mload(0x40)\n  sub(codesize, bytecodeSize)\n  dup1\n  bytecodeSize\n  dup4\n  codecopy\n  dup2\n  dup2\n  add\n  0x40\n  mstore\n  dup2\n  add\n  swap1\n  tag_2\n  swap2\n  swap1\n  tag_3\n  jump\t// in\ntag_2:\n    /* \"@openzeppelin/contracts/utils/ReentrancyGuard.sol\":2365:2366  1 */\n  0x01\n    /* \"@openzeppelin/contracts/utils/ReentrancyGuard.sol\":2539:2585  _reentrancyGuardStorageSlot().getUint256Slot() */\n  tag_7\n    /* \"@openzeppelin/contracts/utils/ReentrancyGuard.sol\":2539:2568  _reentrancyGuardStorageSlot() */\n  tag_8\n    /* \"@openzeppelin/contracts/utils/ReentrancyGuard.sol\":2539:2566  _reentrancyGuardStorageSlot */\n  shl(0x20, tag_9)\n    /* \"@openzeppelin/contracts/utils/ReentrancyGuard.sol\":2539:2568  _reentrancyGuardStorageSlot() */\n  0x20\n  shr\n  jump\t// in\ntag_8:\n    /* \"@openzeppelin/contracts/utils/ReentrancyGuard.sol\":2539:2583  _reentrancyGuardStorageSlot().getUint256Slot */\n  shl(0x20, tag_10)\n    /* \"@openzeppelin/contracts/utils/ReentrancyGuard.sol\":2539:2585  _reentrancyGuardStorageSlot().getUint256Slot() */\n  0x20\n  shr\n  jump\t// in\ntag_7:\n    /* \"@openzeppelin/contracts/utils/ReentrancyGuard.sol\":2539:2591  _reentrancyGuardStorageSlot().getUint256Slot().value */\n  0x00\n  add\n    /* \"@openzeppelin/contracts/utils/ReentrancyGuard.sol\":2539:2605  _reentrancyGuardStorageSlot().getUint256Slot().value = NOT_ENTERED */\n  dup2\n  swap1\n  sstore\n  pop\n    /* \"contracts/Auction.sol\":791:792  0 */\n  0x00\n    /* \"contracts/Auction.sol\":777:788  _maximumBid */\n  dup3\n    /* \"contracts/Auction.sol\":777:792  _maximumBid > 0 */\n  0xff\n  and\n  gt\n    /* \"contracts/Auction.sol\":769:849  require(_maximumBid > 0, unicode\"El valor máximo de puja debe ser mayor que 0\") */\n  tag_12\n  jumpi\n  mload(0x40)\n  0x08c379a000000000000000000000000000000000000000000000000000000000\n  dup2\n  mstore\n  0x04\n  add\n  tag_13\n  swap1\n  tag_14\n  jump\t// in\ntag_13:\n  mload(0x40)\n  dup1\n  swap2\n  sub\n  swap1\n  revert\ntag_12:\n    /* \"contracts/Auction.sol\":891:892  0 */\n  0x00\n    /* \"contracts/Auction.sol\":868:888  _auctionDurationDays */\n  dup2\n    /* \"contracts/Auction.sol\":868:892  _auctionDurationDays > 0 */\n  gt\n    /* \"contracts/Auction.sol\":860:958  require(_auctionDurationDays > 0, unicode\"La duración de la subasta debe ser de al menos 1 día\") */\n  tag_15\n  jumpi\n  mload(0x40)\n  0x08c379a000000000000000000000000000000000000000000000000000000000\n  dup2\n  mstore\n  0x04\n  add\n  tag_16\n  swap1\n  tag_17\n  jump\t// in\ntag_16:\n  mload(0x40)\n  dup1\n  swap2\n  sub\n  swap1\n  revert\ntag_15:\n    /* \"contracts/Auction.sol\":990:1007  _medicalEquipment */\n  dup3\n    /* \"contracts/Auction.sol\":971:987  medicalEquipment */\n  0x00\n    /* \"contracts/Auction.sol\":971:1007  medicalEquipment = _medicalEquipment */\n  swap1\n  dup2\n  tag_18\n  swap2\n  swap1\n  tag_19\n  jump\t// in\ntag_18:\n  pop\n    /* \"contracts/Auction.sol\":1031:1042  _maximumBid */\n  dup2\n    /* \"contracts/Auction.sol\":1018:1042  maximumBid = _maximumBid */\n  0xff\n  and\n  0xc0\n  dup2\n  0xff\n  and\n  dup2\n  mstore\n  pop\n  pop\n    /* \"contracts/Auction.sol\":1072:1087  block.timestamp */\n  timestamp\n    /* \"contracts/Auction.sol\":1053:1087  auctionStartDate = block.timestamp */\n  0x80\n  dup2\n  dup2\n  mstore\n  pop\n  pop\n    /* \"contracts/Auction.sol\":1157:1163  1 days */\n  0x015180\n    /* \"contracts/Auction.sol\":1134:1154  _auctionDurationDays */\n  dup2\n    /* \"contracts/Auction.sol\":1134:1163  _auctionDurationDays * 1 days */\n  tag_20\n  swap2\n  swap1\n  tag_21\n  jump\t// in\ntag_20:\n    /* \"contracts/Auction.sol\":1115:1130  block.timestamp */\n  timestamp\n    /* \"contracts/Auction.sol\":1115:1164  block.timestamp + (_auctionDurationDays * 1 days) */\n  tag_22\n  swap2\n  swap1\n  tag_23\n  jump\t// in\ntag_22:\n    /* \"contracts/Auction.sol\":1098:1164  auctionEndDate = block.timestamp + (_auctionDurationDays * 1 days) */\n  0xa0\n  dup2\n  dup2\n  mstore\n  pop\n  pop\n    /* \"contracts/Auction.sol\":1190:1195  false */\n  0x00\n    /* \"contracts/Auction.sol\":1175:1187  auctionEnded */\n  0x05\n  0x15\n    /* \"contracts/Auction.sol\":1175:1195  auctionEnded = false */\n  0x0100\n  exp\n  dup2\n  sload\n  dup2\n  0xff\n  mul\n  not\n  and\n  swap1\n  dup4\n  iszero\n  iszero\n  mul\n  or\n  swap1\n  sstore\n  pop\n    /* \"contracts/Auction.sol\":1214:1224  msg.sender */\n  caller\n    /* \"contracts/Auction.sol\":1206:1224  owner = msg.sender */\n  0xffffffffffffffffffffffffffffffffffffffff\n  and\n  0xe0\n  dup2\n  0xffffffffffffffffffffffffffffffffffffffff\n  and\n  dup2\n  mstore\n  pop\n  pop\n    /* \"contracts/Auction.sol\":664:1232  constructor(string memory _medicalEquipment, uint8 _maximumBid, uint256 _auctionDurationDays) {... */\n  pop\n  pop\n  pop\n    /* \"contracts/Auction.sol\":137:5655  contract Auction is ReentrancyGuard {... */\n  jump(tag_24)\n    /* \"@openzeppelin/contracts/utils/ReentrancyGuard.sol\":4636:4763  function _reentrancyGuardStorageSlot() internal pure virtual returns (bytes32) {... */\ntag_9:\n    /* \"@openzeppelin/contracts/utils/ReentrancyGuard.sol\":4706:4713  bytes32 */\n  0x00\n    /* \"@openzeppelin/contracts/utils/ReentrancyGuard.sol\":1505:1571  0x9b779b17422d0df92223018b32b4d1fa46e071723d6817e2486d003becc55f00 */\n  0x9b779b17422d0df92223018b32b4d1fa46e071723d6817e2486d003becc55f00\n    /* \"@openzeppelin/contracts/utils/ReentrancyGuard.sol\":4732:4756  REENTRANCY_GUARD_STORAGE */\n  0x00\n  shl\n    /* \"@openzeppelin/contracts/utils/ReentrancyGuard.sol\":4725:4756  return REENTRANCY_GUARD_STORAGE */\n  swap1\n  pop\n    /* \"@openzeppelin/contracts/utils/ReentrancyGuard.sol\":4636:4763  function _reentrancyGuardStorageSlot() internal pure virtual returns (bytes32) {... */\n  swap1\n  jump\t// out\n    /* \"@openzeppelin/contracts/utils/StorageSlot.sol\":2679:2842  function getUint256Slot(bytes32 slot) internal pure returns (Uint256Slot storage r) {... */\ntag_10:\n    /* \"@openzeppelin/contracts/utils/StorageSlot.sol\":2740:2761  Uint256Slot storage r */\n  0x00\n    /* \"@openzeppelin/contracts/utils/StorageSlot.sol\":2822:2826  slot */\n  dup2\n    /* \"@openzeppelin/contracts/utils/StorageSlot.sol\":2812:2826  r.slot := slot */\n  swap1\n  pop\n    /* \"@openzeppelin/contracts/utils/StorageSlot.sol\":2679:2842  function getUint256Slot(bytes32 slot) internal pure returns (Uint256Slot storage r) {... */\n  swap2\n  swap1\n  pop\n  jump\t// out\n    /* \"#utility.yul\":7:82   */\ntag_27:\n    /* \"#utility.yul\":40:46   */\n  0x00\n    /* \"#utility.yul\":73:75   */\n  0x40\n    /* \"#utility.yul\":67:76   */\n  mload\n    /* \"#utility.yul\":57:76   */\n  swap1\n  pop\n    /* \"#utility.yul\":7:82   */\n  swap1\n  jump\t// out\n    /* \"#utility.yul\":88:205   */\ntag_28:\n    /* \"#utility.yul\":197:198   */\n  0x00\n    /* \"#utility.yul\":194:195   */\n  0x00\n    /* \"#utility.yul\":187:199   */\n  revert\n    /* \"#utility.yul\":211:328   */\ntag_29:\n    /* \"#utility.yul\":320:321   */\n  0x00\n    /* \"#utility.yul\":317:318   */\n  0x00\n    /* \"#utility.yul\":310:322   */\n  revert\n    /* \"#utility.yul\":334:451   */\ntag_30:\n    /* \"#utility.yul\":443:444   */\n  0x00\n    /* \"#utility.yul\":440:441   */\n  0x00\n    /* \"#utility.yul\":433:445   */\n  revert\n    /* \"#utility.yul\":457:574   */\ntag_31:\n    /* \"#utility.yul\":566:567   */\n  0x00\n    /* \"#utility.yul\":563:564   */\n  0x00\n    /* \"#utility.yul\":556:568   */\n  revert\n    /* \"#utility.yul\":580:682   */\ntag_32:\n    /* \"#utility.yul\":621:627   */\n  0x00\n    /* \"#utility.yul\":672:674   */\n  0x1f\n    /* \"#utility.yul\":668:675   */\n  not\n    /* \"#utility.yul\":663:665   */\n  0x1f\n    /* \"#utility.yul\":656:661   */\n  dup4\n    /* \"#utility.yul\":652:666   */\n  add\n    /* \"#utility.yul\":648:676   */\n  and\n    /* \"#utility.yul\":638:676   */\n  swap1\n  pop\n    /* \"#utility.yul\":580:682   */\n  swap2\n  swap1\n  pop\n  jump\t// out\n    /* \"#utility.yul\":688:868   */\ntag_33:\n    /* \"#utility.yul\":736:813   */\n  0x4e487b7100000000000000000000000000000000000000000000000000000000\n    /* \"#utility.yul\":733:734   */\n  0x00\n    /* \"#utility.yul\":726:814   */\n  mstore\n    /* \"#utility.yul\":833:837   */\n  0x41\n    /* \"#utility.yul\":830:831   */\n  0x04\n    /* \"#utility.yul\":823:838   */\n  mstore\n    /* \"#utility.yul\":857:861   */\n  0x24\n    /* \"#utility.yul\":854:855   */\n  0x00\n    /* \"#utility.yul\":847:862   */\n  revert\n    /* \"#utility.yul\":874:1155   */\ntag_34:\n    /* \"#utility.yul\":957:984   */\n  tag_79\n    /* \"#utility.yul\":979:983   */\n  dup3\n    /* \"#utility.yul\":957:984   */\n  tag_32\n  jump\t// in\ntag_79:\n    /* \"#utility.yul\":949:955   */\n  dup2\n    /* \"#utility.yul\":945:985   */\n  add\n    /* \"#utility.yul\":1087:1093   */\n  dup2\n    /* \"#utility.yul\":1075:1085   */\n  dup2\n    /* \"#utility.yul\":1072:1094   */\n  lt\n    /* \"#utility.yul\":1051:1069   */\n  0xffffffffffffffff\n    /* \"#utility.yul\":1039:1049   */\n  dup3\n    /* \"#utility.yul\":1036:1070   */\n  gt\n    /* \"#utility.yul\":1033:1095   */\n  or\n    /* \"#utility.yul\":1030:1118   */\n  iszero\n  tag_80\n  jumpi\n    /* \"#utility.yul\":1098:1116   */\n  tag_81\n  tag_33\n  jump\t// in\ntag_81:\n    /* \"#utility.yul\":1030:1118   */\ntag_80:\n    /* \"#utility.yul\":1138:1148   */\n  dup1\n    /* \"#utility.yul\":1134:1136   */\n  0x40\n    /* \"#utility.yul\":1127:1149   */\n  mstore\n    /* \"#utility.yul\":917:1155   */\n  pop\n    /* \"#utility.yul\":874:1155   */\n  pop\n  pop\n  jump\t// out\n    /* \"#utility.yul\":1161:1290   */\ntag_35:\n    /* \"#utility.yul\":1195:1201   */\n  0x00\n    /* \"#utility.yul\":1222:1242   */\n  tag_83\n  tag_27\n  jump\t// in\ntag_83:\n    /* \"#utility.yul\":1212:1242   */\n  swap1\n  pop\n    /* \"#utility.yul\":1251:1284   */\n  tag_84\n    /* \"#utility.yul\":1279:1283   */\n  dup3\n    /* \"#utility.yul\":1271:1277   */\n  dup3\n    /* \"#utility.yul\":1251:1284   */\n  tag_34\n  jump\t// in\ntag_84:\n    /* \"#utility.yul\":1161:1290   */\n  swap2\n  swap1\n  pop\n  jump\t// out\n    /* \"#utility.yul\":1296:1604   */\ntag_36:\n    /* \"#utility.yul\":1358:1362   */\n  0x00\n    /* \"#utility.yul\":1448:1466   */\n  0xffffffffffffffff\n    /* \"#utility.yul\":1440:1446   */\n  dup3\n    /* \"#utility.yul\":1437:1467   */\n  gt\n    /* \"#utility.yul\":1434:1490   */\n  iszero\n  tag_86\n  jumpi\n    /* \"#utility.yul\":1470:1488   */\n  tag_87\n  tag_33\n  jump\t// in\ntag_87:\n    /* \"#utility.yul\":1434:1490   */\ntag_86:\n    /* \"#utility.yul\":1508:1537   */\n  tag_88\n    /* \"#utility.yul\":1530:1536   */\n  dup3\n    /* \"#utility.yul\":1508:1537   */\n  tag_32\n  jump\t// in\ntag_88:\n    /* \"#utility.yul\":1500:1537   */\n  swap1\n  pop\n    /* \"#utility.yul\":1592:1596   */\n  0x20\n    /* \"#utility.yul\":1586:1590   */\n  dup2\n    /* \"#utility.yul\":1582:1597   */\n  add\n    /* \"#utility.yul\":1574:1597   */\n  swap1\n  pop\n    /* \"#utility.yul\":1296:1604   */\n  swap2\n  swap1\n  pop\n  jump\t// out\n    /* \"#utility.yul\":1610:1749   */\ntag_37:\n    /* \"#utility.yul\":1699:1705   */\n  dup3\n    /* \"#utility.yul\":1694:1697   */\n  dup2\n    /* \"#utility.yul\":1689:1692   */\n  dup4\n    /* \"#utility.yul\":1683:1706   */\n  mcopy\n    /* \"#utility.yul\":1740:1741   */\n  0x00\n    /* \"#utility.yul\":1731:1737   */\n  dup4\n    /* \"#utility.yul\":1726:1729   */\n  dup4\n    /* \"#utility.yul\":1722:1738   */\n  add\n    /* \"#utility.yul\":1715:1742   */\n  mstore\n    /* \"#utility.yul\":1610:1749   */\n  pop\n  pop\n  pop\n  jump\t// out\n    /* \"#utility.yul\":1755:2189   */\ntag_38:\n    /* \"#utility.yul\":1844:1849   */\n  0x00\n    /* \"#utility.yul\":1869:1935   */\n  tag_91\n    /* \"#utility.yul\":1885:1934   */\n  tag_92\n    /* \"#utility.yul\":1927:1933   */\n  dup5\n    /* \"#utility.yul\":1885:1934   */\n  tag_36\n  jump\t// in\ntag_92:\n    /* \"#utility.yul\":1869:1935   */\n  tag_35\n  jump\t// in\ntag_91:\n    /* \"#utility.yul\":1860:1935   */\n  swap1\n  pop\n    /* \"#utility.yul\":1958:1964   */\n  dup3\n    /* \"#utility.yul\":1951:1956   */\n  dup2\n    /* \"#utility.yul\":1944:1965   */\n  mstore\n    /* \"#utility.yul\":1996:2000   */\n  0x20\n    /* \"#utility.yul\":1989:1994   */\n  dup2\n    /* \"#utility.yul\":1985:2001   */\n  add\n    /* \"#utility.yul\":2034:2037   */\n  dup5\n    /* \"#utility.yul\":2025:2031   */\n  dup5\n    /* \"#utility.yul\":2020:2023   */\n  dup5\n    /* \"#utility.yul\":2016:2032   */\n  add\n    /* \"#utility.yul\":2013:2038   */\n  gt\n    /* \"#utility.yul\":2010:2122   */\n  iszero\n  tag_93\n  jumpi\n    /* \"#utility.yul\":2041:2120   */\n  tag_94\n  tag_31\n  jump\t// in\ntag_94:\n    /* \"#utility.yul\":2010:2122   */\ntag_93:\n    /* \"#utility.yul\":2131:2183   */\n  tag_95\n    /* \"#utility.yul\":2176:2182   */\n  dup5\n    /* \"#utility.yul\":2171:2174   */\n  dup3\n    /* \"#utility.yul\":2166:2169   */\n  dup6\n    /* \"#utility.yul\":2131:2183   */\n  tag_37\n  jump\t// in\ntag_95:\n    /* \"#utility.yul\":1850:2189   */\n  pop\n    /* \"#utility.yul\":1755:2189   */\n  swap4\n  swap3\n  pop\n  pop\n  pop\n  jump\t// out\n    /* \"#utility.yul\":2209:2564   */\ntag_39:\n    /* \"#utility.yul\":2276:2281   */\n  0x00\n    /* \"#utility.yul\":2325:2328   */\n  dup3\n    /* \"#utility.yul\":2318:2322   */\n  0x1f\n    /* \"#utility.yul\":2310:2316   */\n  dup4\n    /* \"#utility.yul\":2306:2323   */\n  add\n    /* \"#utility.yul\":2302:2329   */\n  slt\n    /* \"#utility.yul\":2292:2414   */\n  tag_97\n  jumpi\n    /* \"#utility.yul\":2333:2412   */\n  tag_98\n  tag_30\n  jump\t// in\ntag_98:\n    /* \"#utility.yul\":2292:2414   */\ntag_97:\n    /* \"#utility.yul\":2443:2449   */\n  dup2\n    /* \"#utility.yul\":2437:2450   */\n  mload\n    /* \"#utility.yul\":2468:2558   */\n  tag_99\n    /* \"#utility.yul\":2554:2557   */\n  dup5\n    /* \"#utility.yul\":2546:2552   */\n  dup3\n    /* \"#utility.yul\":2539:2543   */\n  0x20\n    /* \"#utility.yul\":2531:2537   */\n  dup7\n    /* \"#utility.yul\":2527:2544   */\n  add\n    /* \"#utility.yul\":2468:2558   */\n  tag_38\n  jump\t// in\ntag_99:\n    /* \"#utility.yul\":2459:2558   */\n  swap2\n  pop\n    /* \"#utility.yul\":2282:2564   */\n  pop\n    /* \"#utility.yul\":2209:2564   */\n  swap3\n  swap2\n  pop\n  pop\n  jump\t// out\n    /* \"#utility.yul\":2570:2656   */\ntag_40:\n    /* \"#utility.yul\":2605:2612   */\n  0x00\n    /* \"#utility.yul\":2645:2649   */\n  0xff\n    /* \"#utility.yul\":2638:2643   */\n  dup3\n    /* \"#utility.yul\":2634:2650   */\n  and\n    /* \"#utility.yul\":2623:2650   */\n  swap1\n  pop\n    /* \"#utility.yul\":2570:2656   */\n  swap2\n  swap1\n  pop\n  jump\t// out\n    /* \"#utility.yul\":2662:2780   */\ntag_41:\n    /* \"#utility.yul\":2733:2755   */\n  tag_102\n    /* \"#utility.yul\":2749:2754   */\n  dup2\n    /* \"#utility.yul\":2733:2755   */\n  tag_40\n  jump\t// in\ntag_102:\n    /* \"#utility.yul\":2726:2731   */\n  dup2\n    /* \"#utility.yul\":2723:2756   */\n  eq\n    /* \"#utility.yul\":2713:2774   */\n  tag_103\n  jumpi\n    /* \"#utility.yul\":2770:2771   */\n  0x00\n    /* \"#utility.yul\":2767:2768   */\n  0x00\n    /* \"#utility.yul\":2760:2772   */\n  revert\n    /* \"#utility.yul\":2713:2774   */\ntag_103:\n    /* \"#utility.yul\":2662:2780   */\n  pop\n  jump\t// out\n    /* \"#utility.yul\":2786:2925   */\ntag_42:\n    /* \"#utility.yul\":2841:2846   */\n  0x00\n    /* \"#utility.yul\":2872:2878   */\n  dup2\n    /* \"#utility.yul\":2866:2879   */\n  mload\n    /* \"#utility.yul\":2857:2879   */\n  swap1\n  pop\n    /* \"#utility.yul\":2888:2919   */\n  tag_105\n    /* \"#utility.yul\":2913:2918   */\n  dup2\n    /* \"#utility.yul\":2888:2919   */\n  tag_41\n  jump\t// in\ntag_105:\n    /* \"#utility.yul\":2786:2925   */\n  swap3\n  swap2\n  pop\n  pop\n  jump\t// out\n    /* \"#utility.yul\":2931:3008   */\ntag_43:\n    /* \"#utility.yul\":2968:2975   */\n  0x00\n    /* \"#utility.yul\":2997:3002   */\n  dup2\n    /* \"#utility.yul\":2986:3002   */\n  swap1\n  pop\n    /* \"#utility.yul\":2931:3008   */\n  swap2\n  swap1\n  pop\n  jump\t// out\n    /* \"#utility.yul\":3014:3136   */\ntag_44:\n    /* \"#utility.yul\":3087:3111   */\n  tag_108\n    /* \"#utility.yul\":3105:3110   */\n  dup2\n    /* \"#utility.yul\":3087:3111   */\n  tag_43\n  jump\t// in\ntag_108:\n    /* \"#utility.yul\":3080:3085   */\n  dup2\n    /* \"#utility.yul\":3077:3112   */\n  eq\n    /* \"#utility.yul\":3067:3130   */\n  tag_109\n  jumpi\n    /* \"#utility.yul\":3126:3127   */\n  0x00\n    /* \"#utility.yul\":3123:3124   */\n  0x00\n    /* \"#utility.yul\":3116:3128   */\n  revert\n    /* \"#utility.yul\":3067:3130   */\ntag_109:\n    /* \"#utility.yul\":3014:3136   */\n  pop\n  jump\t// out\n    /* \"#utility.yul\":3142:3285   */\ntag_45:\n    /* \"#utility.yul\":3199:3204   */\n  0x00\n    /* \"#utility.yul\":3230:3236   */\n  dup2\n    /* \"#utility.yul\":3224:3237   */\n  mload\n    /* \"#utility.yul\":3215:3237   */\n  swap1\n  pop\n    /* \"#utility.yul\":3246:3279   */\n  tag_111\n    /* \"#utility.yul\":3273:3278   */\n  dup2\n    /* \"#utility.yul\":3246:3279   */\n  tag_44\n  jump\t// in\ntag_111:\n    /* \"#utility.yul\":3142:3285   */\n  swap3\n  swap2\n  pop\n  pop\n  jump\t// out\n    /* \"#utility.yul\":3291:4123   */\ntag_3:\n    /* \"#utility.yul\":3387:3393   */\n  0x00\n    /* \"#utility.yul\":3395:3401   */\n  0x00\n    /* \"#utility.yul\":3403:3409   */\n  0x00\n    /* \"#utility.yul\":3452:3454   */\n  0x60\n    /* \"#utility.yul\":3440:3449   */\n  dup5\n    /* \"#utility.yul\":3431:3438   */\n  dup7\n    /* \"#utility.yul\":3427:3450   */\n  sub\n    /* \"#utility.yul\":3423:3455   */\n  slt\n    /* \"#utility.yul\":3420:3539   */\n  iszero\n  tag_113\n  jumpi\n    /* \"#utility.yul\":3458:3537   */\n  tag_114\n  tag_28\n  jump\t// in\ntag_114:\n    /* \"#utility.yul\":3420:3539   */\ntag_113:\n    /* \"#utility.yul\":3599:3600   */\n  0x00\n    /* \"#utility.yul\":3588:3597   */\n  dup5\n    /* \"#utility.yul\":3584:3601   */\n  add\n    /* \"#utility.yul\":3578:3602   */\n  mload\n    /* \"#utility.yul\":3629:3647   */\n  0xffffffffffffffff\n    /* \"#utility.yul\":3621:3627   */\n  dup2\n    /* \"#utility.yul\":3618:3648   */\n  gt\n    /* \"#utility.yul\":3615:3732   */\n  iszero\n  tag_115\n  jumpi\n    /* \"#utility.yul\":3651:3730   */\n  tag_116\n  tag_29\n  jump\t// in\ntag_116:\n    /* \"#utility.yul\":3615:3732   */\ntag_115:\n    /* \"#utility.yul\":3756:3830   */\n  tag_117\n    /* \"#utility.yul\":3822:3829   */\n  dup7\n    /* \"#utility.yul\":3813:3819   */\n  dup3\n    /* \"#utility.yul\":3802:3811   */\n  dup8\n    /* \"#utility.yul\":3798:3820   */\n  add\n    /* \"#utility.yul\":3756:3830   */\n  tag_39\n  jump\t// in\ntag_117:\n    /* \"#utility.yul\":3746:3830   */\n  swap4\n  pop\n    /* \"#utility.yul\":3549:3840   */\n  pop\n    /* \"#utility.yul\":3879:3881   */\n  0x20\n    /* \"#utility.yul\":3905:3967   */\n  tag_118\n    /* \"#utility.yul\":3959:3966   */\n  dup7\n    /* \"#utility.yul\":3950:3956   */\n  dup3\n    /* \"#utility.yul\":3939:3948   */\n  dup8\n    /* \"#utility.yul\":3935:3957   */\n  add\n    /* \"#utility.yul\":3905:3967   */\n  tag_42\n  jump\t// in\ntag_118:\n    /* \"#utility.yul\":3895:3967   */\n  swap3\n  pop\n    /* \"#utility.yul\":3850:3977   */\n  pop\n    /* \"#utility.yul\":4016:4018   */\n  0x40\n    /* \"#utility.yul\":4042:4106   */\n  tag_119\n    /* \"#utility.yul\":4098:4105   */\n  dup7\n    /* \"#utility.yul\":4089:4095   */\n  dup3\n    /* \"#utility.yul\":4078:4087   */\n  dup8\n    /* \"#utility.yul\":4074:4096   */\n  add\n    /* \"#utility.yul\":4042:4106   */\n  tag_45\n  jump\t// in\ntag_119:\n    /* \"#utility.yul\":4032:4106   */\n  swap2\n  pop\n    /* \"#utility.yul\":3987:4116   */\n  pop\n    /* \"#utility.yul\":3291:4123   */\n  swap3\n  pop\n  swap3\n  pop\n  swap3\n  jump\t// out\n    /* \"#utility.yul\":4129:4298   */\ntag_46:\n    /* \"#utility.yul\":4213:4224   */\n  0x00\n    /* \"#utility.yul\":4247:4253   */\n  dup3\n    /* \"#utility.yul\":4242:4245   */\n  dup3\n    /* \"#utility.yul\":4235:4254   */\n  mstore\n    /* \"#utility.yul\":4287:4291   */\n  0x20\n    /* \"#utility.yul\":4282:4285   */\n  dup3\n    /* \"#utility.yul\":4278:4292   */\n  add\n    /* \"#utility.yul\":4263:4292   */\n  swap1\n  pop\n    /* \"#utility.yul\":4129:4298   */\n  swap3\n  swap2\n  pop\n  pop\n  jump\t// out\n    /* \"#utility.yul\":4304:4568   */\ntag_47:\n    /* \"#utility.yul\":4444:4510   */\n  0x456c2076616c6f72206dc3a178696d6f2064652070756a612064656265207365\n    /* \"#utility.yul\":4440:4441   */\n  0x00\n    /* \"#utility.yul\":4432:4438   */\n  dup3\n    /* \"#utility.yul\":4428:4442   */\n  add\n    /* \"#utility.yul\":4421:4511   */\n  mstore\n    /* \"#utility.yul\":4545:4560   */\n  0x72206d61796f7220717565203000000000000000000000000000000000000000\n    /* \"#utility.yul\":4540:4542   */\n  0x20\n    /* \"#utility.yul\":4532:4538   */\n  dup3\n    /* \"#utility.yul\":4528:4543   */\n  add\n    /* \"#utility.yul\":4521:4561   */\n  mstore\n    /* \"#utility.yul\":4304:4568   */\n  pop\n  jump\t// out\n    /* \"#utility.yul\":4574:4940   */\ntag_48:\n    /* \"#utility.yul\":4716:4719   */\n  0x00\n    /* \"#utility.yul\":4737:4804   */\n  tag_123\n    /* \"#utility.yul\":4801:4803   */\n  0x2d\n    /* \"#utility.yul\":4796:4799   */\n  dup4\n    /* \"#utility.yul\":4737:4804   */\n  tag_46\n  jump\t// in\ntag_123:\n    /* \"#utility.yul\":4730:4804   */\n  swap2\n  pop\n    /* \"#utility.yul\":4813:4906   */\n  tag_124\n    /* \"#utility.yul\":4902:4905   */\n  dup3\n    /* \"#utility.yul\":4813:4906   */\n  tag_47\n  jump\t// in\ntag_124:\n    /* \"#utility.yul\":4931:4933   */\n  0x40\n    /* \"#utility.yul\":4926:4929   */\n  dup3\n    /* \"#utility.yul\":4922:4934   */\n  add\n    /* \"#utility.yul\":4915:4934   */\n  swap1\n  pop\n    /* \"#utility.yul\":4574:4940   */\n  swap2\n  swap1\n  pop\n  jump\t// out\n    /* \"#utility.yul\":4946:5365   */\ntag_14:\n    /* \"#utility.yul\":5112:5116   */\n  0x00\n    /* \"#utility.yul\":5150:5152   */\n  0x20\n    /* \"#utility.yul\":5139:5148   */\n  dup3\n    /* \"#utility.yul\":5135:5153   */\n  add\n    /* \"#utility.yul\":5127:5153   */\n  swap1\n  pop\n    /* \"#utility.yul\":5199:5208   */\n  dup2\n    /* \"#utility.yul\":5193:5197   */\n  dup2\n    /* \"#utility.yul\":5189:5209   */\n  sub\n    /* \"#utility.yul\":5185:5186   */\n  0x00\n    /* \"#utility.yul\":5174:5183   */\n  dup4\n    /* \"#utility.yul\":5170:5187   */\n  add\n    /* \"#utility.yul\":5163:5210   */\n  mstore\n    /* \"#utility.yul\":5227:5358   */\n  tag_126\n    /* \"#utility.yul\":5353:5357   */\n  dup2\n    /* \"#utility.yul\":5227:5358   */\n  tag_48\n  jump\t// in\ntag_126:\n    /* \"#utility.yul\":5219:5358   */\n  swap1\n  pop\n    /* \"#utility.yul\":4946:5365   */\n  swap2\n  swap1\n  pop\n  jump\t// out\n    /* \"#utility.yul\":5371:5686   */\ntag_49:\n    /* \"#utility.yul\":5511:5577   */\n  0x4c6120647572616369c3b36e206465206c612073756261737461206465626520\n    /* \"#utility.yul\":5507:5508   */\n  0x00\n    /* \"#utility.yul\":5499:5505   */\n  dup3\n    /* \"#utility.yul\":5495:5509   */\n  add\n    /* \"#utility.yul\":5488:5578   */\n  mstore\n    /* \"#utility.yul\":5612:5678   */\n  0x73657220646520616c206d656e6f7320312064c3ad6100000000000000000000\n    /* \"#utility.yul\":5607:5609   */\n  0x20\n    /* \"#utility.yul\":5599:5605   */\n  dup3\n    /* \"#utility.yul\":5595:5610   */\n  add\n    /* \"#utility.yul\":5588:5679   */\n  mstore\n    /* \"#utility.yul\":5371:5686   */\n  pop\n  jump\t// out\n    /* \"#utility.yul\":5692:6058   */\ntag_50:\n    /* \"#utility.yul\":5834:5837   */\n  0x00\n    /* \"#utility.yul\":5855:5922   */\n  tag_129\n    /* \"#utility.yul\":5919:5921   */\n  0x36\n    /* \"#utility.yul\":5914:5917   */\n  dup4\n    /* \"#utility.yul\":5855:5922   */\n  tag_46\n  jump\t// in\ntag_129:\n    /* \"#utility.yul\":5848:5922   */\n  swap2\n  pop\n    /* \"#utility.yul\":5931:6024   */\n  tag_130\n    /* \"#utility.yul\":6020:6023   */\n  dup3\n    /* \"#utility.yul\":5931:6024   */\n  tag_49\n  jump\t// in\ntag_130:\n    /* \"#utility.yul\":6049:6051   */\n  0x40\n    /* \"#utility.yul\":6044:6047   */\n  dup3\n    /* \"#utility.yul\":6040:6052   */\n  add\n    /* \"#utility.yul\":6033:6052   */\n  swap1\n  pop\n    /* \"#utility.yul\":5692:6058   */\n  swap2\n  swap1\n  pop\n  jump\t// out\n    /* \"#utility.yul\":6064:6483   */\ntag_17:\n    /* \"#utility.yul\":6230:6234   */\n  0x00\n    /* \"#utility.yul\":6268:6270   */\n  0x20\n    /* \"#utility.yul\":6257:6266   */\n  dup3\n    /* \"#utility.yul\":6253:6271   */\n  add\n    /* \"#utility.yul\":6245:6271   */\n  swap1\n  pop\n    /* \"#utility.yul\":6317:6326   */\n  dup2\n    /* \"#utility.yul\":6311:6315   */\n  dup2\n    /* \"#utility.yul\":6307:6327   */\n  sub\n    /* \"#utility.yul\":6303:6304   */\n  0x00\n    /* \"#utility.yul\":6292:6301   */\n  dup4\n    /* \"#utility.yul\":6288:6305   */\n  add\n    /* \"#utility.yul\":6281:6328   */\n  mstore\n    /* \"#utility.yul\":6345:6476   */\n  tag_132\n    /* \"#utility.yul\":6471:6475   */\n  dup2\n    /* \"#utility.yul\":6345:6476   */\n  tag_50\n  jump\t// in\ntag_132:\n    /* \"#utility.yul\":6337:6476   */\n  swap1\n  pop\n    /* \"#utility.yul\":6064:6483   */\n  swap2\n  swap1\n  pop\n  jump\t// out\n    /* \"#utility.yul\":6489:6588   */\ntag_51:\n    /* \"#utility.yul\":6541:6547   */\n  0x00\n    /* \"#utility.yul\":6575:6580   */\n  dup2\n    /* \"#utility.yul\":6569:6581   */\n  mload\n    /* \"#utility.yul\":6559:6581   */\n  swap1\n  pop\n    /* \"#utility.yul\":6489:6588   */\n  swap2\n  swap1\n  pop\n  jump\t// out\n    /* \"#utility.yul\":6594:6774   */\ntag_52:\n    /* \"#utility.yul\":6642:6719   */\n  0x4e487b7100000000000000000000000000000000000000000000000000000000\n    /* \"#utility.yul\":6639:6640   */\n  0x00\n    /* \"#utility.yul\":6632:6720   */\n  mstore\n    /* \"#utility.yul\":6739:6743   */\n  0x22\n    /* \"#utility.yul\":6736:6737   */\n  0x04\n    /* \"#utility.yul\":6729:6744   */\n  mstore\n    /* \"#utility.yul\":6763:6767   */\n  0x24\n    /* \"#utility.yul\":6760:6761   */\n  0x00\n    /* \"#utility.yul\":6753:6768   */\n  revert\n    /* \"#utility.yul\":6780:7100   */\ntag_53:\n    /* \"#utility.yul\":6824:6830   */\n  0x00\n    /* \"#utility.yul\":6861:6862   */\n  0x02\n    /* \"#utility.yul\":6855:6859   */\n  dup3\n    /* \"#utility.yul\":6851:6863   */\n  div\n    /* \"#utility.yul\":6841:6863   */\n  swap1\n  pop\n    /* \"#utility.yul\":6908:6909   */\n  0x01\n    /* \"#utility.yul\":6902:6906   */\n  dup3\n    /* \"#utility.yul\":6898:6910   */\n  and\n    /* \"#utility.yul\":6929:6947   */\n  dup1\n    /* \"#utility.yul\":6919:7000   */\n  tag_136\n  jumpi\n    /* \"#utility.yul\":6985:6989   */\n  0x7f\n    /* \"#utility.yul\":6977:6983   */\n  dup3\n    /* \"#utility.yul\":6973:6990   */\n  and\n    /* \"#utility.yul\":6963:6990   */\n  swap2\n  pop\n    /* \"#utility.yul\":6919:7000   */\ntag_136:\n    /* \"#utility.yul\":7047:7049   */\n  0x20\n    /* \"#utility.yul\":7039:7045   */\n  dup3\n    /* \"#utility.yul\":7036:7050   */\n  lt\n    /* \"#utility.yul\":7016:7034   */\n  dup2\n    /* \"#utility.yul\":7013:7051   */\n  sub\n    /* \"#utility.yul\":7010:7094   */\n  tag_137\n  jumpi\n    /* \"#utility.yul\":7066:7084   */\n  tag_138\n  tag_52\n  jump\t// in\ntag_138:\n    /* \"#utility.yul\":7010:7094   */\ntag_137:\n    /* \"#utility.yul\":6831:7100   */\n  pop\n    /* \"#utility.yul\":6780:7100   */\n  swap2\n  swap1\n  pop\n  jump\t// out\n    /* \"#utility.yul\":7106:7247   */\ntag_54:\n    /* \"#utility.yul\":7155:7159   */\n  0x00\n    /* \"#utility.yul\":7178:7181   */\n  dup2\n    /* \"#utility.yul\":7170:7181   */\n  swap1\n  pop\n    /* \"#utility.yul\":7201:7204   */\n  dup2\n    /* \"#utility.yul\":7198:7199   */\n  0x00\n    /* \"#utility.yul\":7191:7205   */\n  mstore\n    /* \"#utility.yul\":7235:7239   */\n  0x20\n    /* \"#utility.yul\":7232:7233   */\n  0x00\n    /* \"#utility.yul\":7222:7240   */\n  keccak256\n    /* \"#utility.yul\":7214:7240   */\n  swap1\n  pop\n    /* \"#utility.yul\":7106:7247   */\n  swap2\n  swap1\n  pop\n  jump\t// out\n    /* \"#utility.yul\":7253:7346   */\ntag_55:\n    /* \"#utility.yul\":7290:7296   */\n  0x00\n    /* \"#utility.yul\":7337:7339   */\n  0x20\n    /* \"#utility.yul\":7332:7334   */\n  0x1f\n    /* \"#utility.yul\":7325:7330   */\n  dup4\n    /* \"#utility.yul\":7321:7335   */\n  add\n    /* \"#utility.yul\":7317:7340   */\n  div\n    /* \"#utility.yul\":7307:7340   */\n  swap1\n  pop\n    /* \"#utility.yul\":7253:7346   */\n  swap2\n  swap1\n  pop\n  jump\t// out\n    /* \"#utility.yul\":7352:7459   */\ntag_56:\n    /* \"#utility.yul\":7396:7404   */\n  0x00\n    /* \"#utility.yul\":7446:7451   */\n  dup3\n    /* \"#utility.yul\":7440:7444   */\n  dup3\n    /* \"#utility.yul\":7436:7452   */\n  shl\n    /* \"#utility.yul\":7415:7452   */\n  swap1\n  pop\n    /* \"#utility.yul\":7352:7459   */\n  swap3\n  swap2\n  pop\n  pop\n  jump\t// out\n    /* \"#utility.yul\":7465:7858   */\ntag_57:\n    /* \"#utility.yul\":7534:7540   */\n  0x00\n    /* \"#utility.yul\":7584:7585   */\n  0x08\n    /* \"#utility.yul\":7572:7582   */\n  dup4\n    /* \"#utility.yul\":7568:7586   */\n  mul\n    /* \"#utility.yul\":7607:7704   */\n  tag_143\n    /* \"#utility.yul\":7637:7703   */\n  0xffffffffffffffffffffffffffffffffffffffffffffffffffffffffffffffff\n    /* \"#utility.yul\":7626:7635   */\n  dup3\n    /* \"#utility.yul\":7607:7704   */\n  tag_56\n  jump\t// in\ntag_143:\n    /* \"#utility.yul\":7725:7764   */\n  tag_144\n    /* \"#utility.yul\":7755:7763   */\n  dup7\n    /* \"#utility.yul\":7744:7753   */\n  dup4\n    /* \"#utility.yul\":7725:7764   */\n  tag_56\n  jump\t// in\ntag_144:\n    /* \"#utility.yul\":7713:7764   */\n  swap6\n  pop\n    /* \"#utility.yul\":7797:7801   */\n  dup1\n    /* \"#utility.yul\":7793:7802   */\n  not\n    /* \"#utility.yul\":7786:7791   */\n  dup5\n    /* \"#utility.yul\":7782:7803   */\n  and\n    /* \"#utility.yul\":7773:7803   */\n  swap4\n  pop\n    /* \"#utility.yul\":7846:7850   */\n  dup1\n    /* \"#utility.yul\":7836:7844   */\n  dup7\n    /* \"#utility.yul\":7832:7851   */\n  and\n    /* \"#utility.yul\":7825:7830   */\n  dup5\n    /* \"#utility.yul\":7822:7852   */\n  or\n    /* \"#utility.yul\":7812:7852   */\n  swap3\n  pop\n    /* \"#utility.yul\":7541:7858   */\n  pop\n  pop\n    /* \"#utility.yul\":7465:7858   */\n  swap4\n  swap3\n  pop\n  pop\n  pop\n  jump\t// out\n    /* \"#utility.yul\":7864:7924   */\ntag_58:\n    /* \"#utility.yul\":7892:7895   */\n  0x00\n    /* \"#utility.yul\":7913:7918   */\n  dup2\n    /* \"#utility.yul\":7906:7918   */\n  swap1\n  pop\n    /* \"#utility.yul\":7864:7924   */\n  swap2\n  swap1\n  pop\n  jump\t// out\n    /* \"#utility.yul\":7930:8072   */\ntag_59:\n    /* \"#utility.yul\":7980:7989   */\n  0x00\n    /* \"#utility.yul\":8013:8066   */\n  tag_147\n    /* \"#utility.yul\":8031:8065   */\n  tag_148\n    /* \"#utility.yul\":8040:8064   */\n  tag_149\n    /* \"#utility.yul\":8058:8063   */\n  dup5\n    /* \"#utility.yul\":8040:8064   */\n  tag_43\n  jump\t// in\ntag_149:\n    /* \"#utility.yul\":8031:8065   */\n  tag_58\n  jump\t// in\ntag_148:\n    /* \"#utility.yul\":8013:8066   */\n  tag_43\n  jump\t// in\ntag_147:\n    /* \"#utility.yul\":8000:8066   */\n  swap1\n  pop\n    /* \"#utility.yul\":7930:8072   */\n  swap2\n  swap1\n  pop\n  jump\t// out\n    /* \"#utility.yul\":8078:8153   */\ntag_60:\n    /* \"#utility.yul\":8121:8124   */\n  0x00\n    /* \"#utility.yul\":8142:8147   */\n  dup2\n    /* \"#utility.yul\":8135:8147   */\n  swap1\n  pop\n    /* \"#utility.yul\":8078:8153   */\n  swap2\n  swap1\n  pop\n  jump\t// out\n    /* \"#utility.yul\":8159:8428   */\ntag_61:\n    /* \"#utility.yul\":8269:8308   */\n  tag_152\n    /* \"#utility.yul\":8300:8307   */\n  dup4\n    /* \"#utility.yul\":8269:8308   */\n  tag_59\n  jump\t// in\ntag_152:\n    /* \"#utility.yul\":8330:8421   */\n  tag_153\n    /* \"#utility.yul\":8379:8420   */\n  tag_154\n    /* \"#utility.yul\":8403:8419   */\n  dup3\n    /* \"#utility.yul\":8379:8420   */\n  tag_60\n  jump\t// in\ntag_154:\n    /* \"#utility.yul\":8371:8377   */\n  dup5\n    /* \"#utility.yul\":8364:8368   */\n  dup5\n    /* \"#utility.yul\":8358:8369   */\n  sload\n    /* \"#utility.yul\":8330:8421   */\n  tag_57\n  jump\t// in\ntag_153:\n    /* \"#utility.yul\":8324:8328   */\n  dup3\n    /* \"#utility.yul\":8317:8422   */\n  sstore\n    /* \"#utility.yul\":8235:8428   */\n  pop\n    /* \"#utility.yul\":8159:8428   */\n  pop\n  pop\n  pop\n  jump\t// out\n    /* \"#utility.yul\":8434:8507   */\ntag_62:\n    /* \"#utility.yul\":8479:8482   */\n  0x00\n    /* \"#utility.yul\":8500:8501   */\n  0x00\n    /* \"#utility.yul\":8493:8501   */\n  swap1\n  pop\n    /* \"#utility.yul\":8434:8507   */\n  swap1\n  jump\t// out\n    /* \"#utility.yul\":8513:8702   */\ntag_63:\n    /* \"#utility.yul\":8590:8622   */\n  tag_157\n  tag_62\n  jump\t// in\ntag_157:\n    /* \"#utility.yul\":8631:8696   */\n  tag_158\n    /* \"#utility.yul\":8689:8695   */\n  dup2\n    /* \"#utility.yul\":8681:8687   */\n  dup5\n    /* \"#utility.yul\":8675:8679   */\n  dup5\n    /* \"#utility.yul\":8631:8696   */\n  tag_61\n  jump\t// in\ntag_158:\n    /* \"#utility.yul\":8566:8702   */\n  pop\n    /* \"#utility.yul\":8513:8702   */\n  pop\n  pop\n  jump\t// out\n    /* \"#utility.yul\":8708:8922   */\ntag_64:\n    /* \"#utility.yul\":8793:8794   */\n  0x00\n    /* \"#utility.yul\":8778:8916   */\ntag_160:\n    /* \"#utility.yul\":8803:8812   */\n  dup3\n    /* \"#utility.yul\":8800:8801   */\n  dup2\n    /* \"#utility.yul\":8797:8813   */\n  lt\n    /* \"#utility.yul\":8778:8916   */\n  iszero\n  tag_162\n  jumpi\n    /* \"#utility.yul\":8855:8906   */\n  tag_163\n    /* \"#utility.yul\":8904:8905   */\n  0x00\n    /* \"#utility.yul\":8900:8901   */\n  dup3\n    /* \"#utility.yul\":8889:8898   */\n  dup5\n    /* \"#utility.yul\":8885:8902   */\n  add\n    /* \"#utility.yul\":8855:8906   */\n  tag_63\n  jump\t// in\ntag_163:\n    /* \"#utility.yul\":8828:8829   */\n  0x01\n    /* \"#utility.yul\":8825:8826   */\n  dup2\n    /* \"#utility.yul\":8821:8830   */\n  add\n    /* \"#utility.yul\":8816:8830   */\n  swap1\n  pop\n    /* \"#utility.yul\":8778:8916   */\n  jump(tag_160)\ntag_162:\n    /* \"#utility.yul\":8782:8796   */\n  pop\n    /* \"#utility.yul\":8708:8922   */\n  pop\n  pop\n  jump\t// out\n    /* \"#utility.yul\":8928:9674   */\ntag_65:\n    /* \"#utility.yul\":9029:9031   */\n  0x1f\n    /* \"#utility.yul\":9024:9027   */\n  dup3\n    /* \"#utility.yul\":9021:9032   */\n  gt\n    /* \"#utility.yul\":9018:9667   */\n  iszero\n  tag_165\n  jumpi\n    /* \"#utility.yul\":9058:9068   */\n  dup3\n    /* \"#utility.yul\":9053:9056   */\n  dup3\n    /* \"#utility.yul\":9050:9069   */\n  gt\n    /* \"#utility.yul\":9047:9657   */\n  iszero\n  tag_166\n  jumpi\n    /* \"#utility.yul\":9104:9142   */\n  tag_167\n    /* \"#utility.yul\":9136:9141   */\n  dup2\n    /* \"#utility.yul\":9104:9142   */\n  tag_54\n  jump\t// in\ntag_167:\n    /* \"#utility.yul\":9179:9201   */\n  tag_168\n    /* \"#utility.yul\":9197:9200   */\n  dup4\n    /* \"#utility.yul\":9179:9201   */\n  tag_55\n  jump\t// in\ntag_168:\n    /* \"#utility.yul\":9238:9267   */\n  tag_169\n    /* \"#utility.yul\":9256:9266   */\n  dup6\n    /* \"#utility.yul\":9238:9267   */\n  tag_55\n  jump\t// in\ntag_169:\n    /* \"#utility.yul\":9428:9430   */\n  0x20\n    /* \"#utility.yul\":9416:9426   */\n  dup7\n    /* \"#utility.yul\":9413:9431   */\n  lt\n    /* \"#utility.yul\":9410:9489   */\n  iszero\n  tag_170\n  jumpi\n    /* \"#utility.yul\":9470:9471   */\n  0x00\n    /* \"#utility.yul\":9454:9471   */\n  swap1\n  pop\n    /* \"#utility.yul\":9410:9489   */\ntag_170:\n    /* \"#utility.yul\":9539:9551   */\n  dup1\n    /* \"#utility.yul\":9529:9537   */\n  dup4\n    /* \"#utility.yul\":9525:9552   */\n  add\n    /* \"#utility.yul\":9569:9643   */\n  tag_171\n    /* \"#utility.yul\":9629:9641   */\n  dup3\n    /* \"#utility.yul\":9615:9627   */\n  dup5\n    /* \"#utility.yul\":9611:9642   */\n  sub\n    /* \"#utility.yul\":9598:9609   */\n  dup3\n    /* \"#utility.yul\":9569:9643   */\n  tag_64\n  jump\t// in\ntag_171:\n    /* \"#utility.yul\":9070:9657   */\n  pop\n  pop\n  pop\n  pop\n    /* \"#utility.yul\":9047:9657   */\ntag_166:\n    /* \"#utility.yul\":9018:9667   */\ntag_165:\n    /* \"#utility.yul\":8928:9674   */\n  pop\n  pop\n  pop\n  jump\t// out\n    /* \"#utility.yul\":9680:9797   */\ntag_66:\n    /* \"#utility.yul\":9734:9742   */\n  0x00\n    /* \"#utility.yul\":9784:9789   */\n  dup3\n    /* \"#utility.yul\":9778:9782   */\n  dup3\n    /* \"#utility.yul\":9774:9790   */\n  shr\n    /* \"#utility.yul\":9753:9790   */\n  swap1\n  pop\n    /* \"#utility.yul\":9680:9797   */\n  swap3\n  swap2\n  pop\n  pop\n  jump\t// out\n    /* \"#utility.yul\":9803:9972   */\ntag_67:\n    /* \"#utility.yul\":9847:9853   */\n  0x00\n    /* \"#utility.yul\":9880:9931   */\n  tag_174\n    /* \"#utility.yul\":9928:9929   */\n  0x00\n    /* \"#utility.yul\":9924:9930   */\n  not\n    /* \"#utility.yul\":9916:9921   */\n  dup5\n    /* \"#utility.yul\":9913:9914   */\n  0x08\n    /* \"#utility.yul\":9909:9922   */\n  mul\n    /* \"#utility.yul\":9880:9931   */\n  tag_66\n  jump\t// in\ntag_174:\n    /* \"#utility.yul\":9876:9932   */\n  not\n    /* \"#utility.yul\":9961:9965   */\n  dup1\n    /* \"#utility.yul\":9955:9959   */\n  dup4\n    /* \"#utility.yul\":9951:9966   */\n  and\n    /* \"#utility.yul\":9941:9966   */\n  swap2\n  pop\n    /* \"#utility.yul\":9854:9972   */\n  pop\n    /* \"#utility.yul\":9803:9972   */\n  swap3\n  swap2\n  pop\n  pop\n  jump\t// out\n    /* \"#utility.yul\":9977:10272   */\ntag_68:\n    /* \"#utility.yul\":10053:10057   */\n  0x00\n    /* \"#utility.yul\":10199:10228   */\n  tag_176\n    /* \"#utility.yul\":10224:10227   */\n  dup4\n    /* \"#utility.yul\":10218:10222   */\n  dup4\n    /* \"#utility.yul\":10199:10228   */\n  tag_67\n  jump\t// in\ntag_176:\n    /* \"#utility.yul\":10191:10228   */\n  swap2\n  pop\n    /* \"#utility.yul\":10261:10264   */\n  dup3\n    /* \"#utility.yul\":10258:10259   */\n  0x02\n    /* \"#utility.yul\":10254:10265   */\n  mul\n    /* \"#utility.yul\":10248:10252   */\n  dup3\n    /* \"#utility.yul\":10245:10266   */\n  or\n    /* \"#utility.yul\":10237:10266   */\n  swap1\n  pop\n    /* \"#utility.yul\":9977:10272   */\n  swap3\n  swap2\n  pop\n  pop\n  jump\t// out\n    /* \"#utility.yul\":10277:11672   */\ntag_19:\n    /* \"#utility.yul\":10394:10431   */\n  tag_178\n    /* \"#utility.yul\":10427:10430   */\n  dup3\n    /* \"#utility.yul\":10394:10431   */\n  tag_51\n  jump\t// in\ntag_178:\n    /* \"#utility.yul\":10496:10514   */\n  0xffffffffffffffff\n    /* \"#utility.yul\":10488:10494   */\n  dup2\n    /* \"#utility.yul\":10485:10515   */\n  gt\n    /* \"#utility.yul\":10482:10538   */\n  iszero\n  tag_179\n  jumpi\n    /* \"#utility.yul\":10518:10536   */\n  tag_180\n  tag_33\n  jump\t// in\ntag_180:\n    /* \"#utility.yul\":10482:10538   */\ntag_179:\n    /* \"#utility.yul\":10562:10600   */\n  tag_181\n    /* \"#utility.yul\":10594:10598   */\n  dup3\n    /* \"#utility.yul\":10588:10599   */\n  sload\n    /* \"#utility.yul\":10562:10600   */\n  tag_53\n  jump\t// in\ntag_181:\n    /* \"#utility.yul\":10647:10714   */\n  tag_182\n    /* \"#utility.yul\":10707:10713   */\n  dup3\n    /* \"#utility.yul\":10699:10705   */\n  dup3\n    /* \"#utility.yul\":10693:10697   */\n  dup6\n    /* \"#utility.yul\":10647:10714   */\n  tag_65\n  jump\t// in\ntag_182:\n    /* \"#utility.yul\":10741:10742   */\n  0x00\n    /* \"#utility.yul\":10765:10769   */\n  0x20\n    /* \"#utility.yul\":10752:10769   */\n  swap1\n  pop\n    /* \"#utility.yul\":10797:10799   */\n  0x1f\n    /* \"#utility.yul\":10789:10795   */\n  dup4\n    /* \"#utility.yul\":10786:10800   */\n  gt\n    /* \"#utility.yul\":10814:10815   */\n  0x01\n    /* \"#utility.yul\":10809:11427   */\n  dup2\n  eq\n  tag_184\n  jumpi\n    /* \"#utility.yul\":11471:11472   */\n  0x00\n    /* \"#utility.yul\":11488:11494   */\n  dup5\n    /* \"#utility.yul\":11485:11562   */\n  iszero\n  tag_185\n  jumpi\n    /* \"#utility.yul\":11537:11546   */\n  dup3\n    /* \"#utility.yul\":11532:11535   */\n  dup8\n    /* \"#utility.yul\":11528:11547   */\n  add\n    /* \"#utility.yul\":11522:11548   */\n  mload\n    /* \"#utility.yul\":11513:11548   */\n  swap1\n  pop\n    /* \"#utility.yul\":11485:11562   */\ntag_185:\n    /* \"#utility.yul\":11588:11655   */\n  tag_186\n    /* \"#utility.yul\":11648:11654   */\n  dup6\n    /* \"#utility.yul\":11641:11646   */\n  dup3\n    /* \"#utility.yul\":11588:11655   */\n  tag_68\n  jump\t// in\ntag_186:\n    /* \"#utility.yul\":11582:11586   */\n  dup7\n    /* \"#utility.yul\":11575:11656   */\n  sstore\n    /* \"#utility.yul\":11444:11666   */\n  pop\n    /* \"#utility.yul\":10779:11666   */\n  jump(tag_183)\n    /* \"#utility.yul\":10809:11427   */\ntag_184:\n    /* \"#utility.yul\":10861:10865   */\n  0x1f\n    /* \"#utility.yul\":10857:10866   */\n  not\n    /* \"#utility.yul\":10849:10855   */\n  dup5\n    /* \"#utility.yul\":10845:10867   */\n  and\n    /* \"#utility.yul\":10895:10932   */\n  tag_187\n    /* \"#utility.yul\":10927:10931   */\n  dup7\n    /* \"#utility.yul\":10895:10932   */\n  tag_54\n  jump\t// in\ntag_187:\n    /* \"#utility.yul\":10954:10955   */\n  0x00\n    /* \"#utility.yul\":10968:11176   */\ntag_188:\n    /* \"#utility.yul\":10982:10989   */\n  dup3\n    /* \"#utility.yul\":10979:10980   */\n  dup2\n    /* \"#utility.yul\":10976:10990   */\n  lt\n    /* \"#utility.yul\":10968:11176   */\n  iszero\n  tag_190\n  jumpi\n    /* \"#utility.yul\":11061:11070   */\n  dup5\n    /* \"#utility.yul\":11056:11059   */\n  dup10\n    /* \"#utility.yul\":11052:11071   */\n  add\n    /* \"#utility.yul\":11046:11072   */\n  mload\n    /* \"#utility.yul\":11038:11044   */\n  dup3\n    /* \"#utility.yul\":11031:11073   */\n  sstore\n    /* \"#utility.yul\":11112:11113   */\n  0x01\n    /* \"#utility.yul\":11104:11110   */\n  dup3\n    /* \"#utility.yul\":11100:11114   */\n  add\n    /* \"#utility.yul\":11090:11114   */\n  swap2\n  pop\n    /* \"#utility.yul\":11159:11161   */\n  0x20\n    /* \"#utility.yul\":11148:11157   */\n  dup6\n    /* \"#utility.yul\":11144:11162   */\n  add\n    /* \"#utility.yul\":11131:11162   */\n  swap5\n  pop\n    /* \"#utility.yul\":11005:11009   */\n  0x20\n    /* \"#utility.yul\":11002:11003   */\n  dup2\n    /* \"#utility.yul\":10998:11010   */\n  add\n    /* \"#utility.yul\":10993:11010   */\n  swap1\n  pop\n    /* \"#utility.yul\":10968:11176   */\n  jump(tag_188)\ntag_190:\n    /* \"#utility.yul\":11204:11210   */\n  dup7\n    /* \"#utility.yul\":11195:11202   */\n  dup4\n    /* \"#utility.yul\":11192:11211   */\n  lt\n    /* \"#utility.yul\":11189:11368   */\n  iszero\n  tag_191\n  jumpi\n    /* \"#utility.yul\":11262:11271   */\n  dup5\n    /* \"#utility.yul\":11257:11260   */\n  dup10\n    /* \"#utility.yul\":11253:11272   */\n  add\n    /* \"#utility.yul\":11247:11273   */\n  mload\n    /* \"#utility.yul\":11305:11353   */\n  tag_192\n    /* \"#utility.yul\":11347:11351   */\n  0x1f\n    /* \"#utility.yul\":11339:11345   */\n  dup10\n    /* \"#utility.yul\":11335:11352   */\n  and\n    /* \"#utility.yul\":11324:11333   */\n  dup3\n    /* \"#utility.yul\":11305:11353   */\n  tag_67\n  jump\t// in\ntag_192:\n    /* \"#utility.yul\":11297:11303   */\n  dup4\n    /* \"#utility.yul\":11290:11354   */\n  sstore\n    /* \"#utility.yul\":11212:11368   */\n  pop\n    /* \"#utility.yul\":11189:11368   */\ntag_191:\n    /* \"#utility.yul\":11414:11415   */\n  0x01\n    /* \"#utility.yul\":11410:11411   */\n  0x02\n    /* \"#utility.yul\":11402:11408   */\n  dup9\n    /* \"#utility.yul\":11398:11412   */\n  mul\n    /* \"#utility.yul\":11394:11416   */\n  add\n    /* \"#utility.yul\":11388:11392   */\n  dup9\n    /* \"#utility.yul\":11381:11417   */\n  sstore\n    /* \"#utility.yul\":10816:11427   */\n  pop\n  pop\n  pop\n    /* \"#utility.yul\":10779:11666   */\ntag_183:\n  pop\n    /* \"#utility.yul\":10369:11672   */\n  pop\n  pop\n  pop\n    /* \"#utility.yul\":10277:11672   */\n  pop\n  pop\n  jump\t// out\n    /* \"#utility.yul\":11678:11858   */\ntag_69:\n    /* \"#utility.yul\":11726:11803   */\n  0x4e487b7100000000000000000000000000000000000000000000000000000000\n    /* \"#utility.yul\":11723:11724   */\n  0x00\n    /* \"#utility.yul\":11716:11804   */\n  mstore\n    /* \"#utility.yul\":11823:11827   */\n  0x11\n    /* \"#utility.yul\":11820:11821   */\n  0x04\n    /* \"#utility.yul\":11813:11828   */\n  mstore\n    /* \"#utility.yul\":11847:11851   */\n  0x24\n    /* \"#utility.yul\":11844:11845   */\n  0x00\n    /* \"#utility.yul\":11837:11852   */\n  revert\n    /* \"#utility.yul\":11864:12274   */\ntag_21:\n    /* \"#utility.yul\":11904:11911   */\n  0x00\n    /* \"#utility.yul\":11927:11947   */\n  tag_195\n    /* \"#utility.yul\":11945:11946   */\n  dup3\n    /* \"#utility.yul\":11927:11947   */\n  tag_43\n  jump\t// in\ntag_195:\n    /* \"#utility.yul\":11922:11947   */\n  swap2\n  pop\n    /* \"#utility.yul\":11961:11981   */\n  tag_196\n    /* \"#utility.yul\":11979:11980   */\n  dup4\n    /* \"#utility.yul\":11961:11981   */\n  tag_43\n  jump\t// in\ntag_196:\n    /* \"#utility.yul\":11956:11981   */\n  swap3\n  pop\n    /* \"#utility.yul\":12016:12017   */\n  dup3\n    /* \"#utility.yul\":12013:12014   */\n  dup3\n    /* \"#utility.yul\":12009:12018   */\n  mul\n    /* \"#utility.yul\":12038:12068   */\n  tag_197\n    /* \"#utility.yul\":12056:12067   */\n  dup2\n    /* \"#utility.yul\":12038:12068   */\n  tag_43\n  jump\t// in\ntag_197:\n    /* \"#utility.yul\":12027:12068   */\n  swap2\n  pop\n    /* \"#utility.yul\":12217:12218   */\n  dup3\n    /* \"#utility.yul\":12208:12215   */\n  dup3\n    /* \"#utility.yul\":12204:12219   */\n  div\n    /* \"#utility.yul\":12201:12202   */\n  dup5\n    /* \"#utility.yul\":12198:12220   */\n  eq\n    /* \"#utility.yul\":12178:12179   */\n  dup4\n    /* \"#utility.yul\":12171:12180   */\n  iszero\n    /* \"#utility.yul\":12151:12234   */\n  or\n    /* \"#utility.yul\":12128:12267   */\n  tag_198\n  jumpi\n    /* \"#utility.yul\":12247:12265   */\n  tag_199\n  tag_69\n  jump\t// in\ntag_199:\n    /* \"#utility.yul\":12128:12267   */\ntag_198:\n    /* \"#utility.yul\":11912:12274   */\n  pop\n    /* \"#utility.yul\":11864:12274   */\n  swap3\n  swap2\n  pop\n  pop\n  jump\t// out\n    /* \"#utility.yul\":12280:12471   */\ntag_23:\n    /* \"#utility.yul\":12320:12323   */\n  0x00\n    /* \"#utility.yul\":12339:12359   */\n  tag_201\n    /* \"#utility.yul\":12357:12358   */\n  dup3\n    /* \"#utility.yul\":12339:12359   */\n  tag_43\n  jump\t// in\ntag_201:\n    /* \"#utility.yul\":12334:12359   */\n  swap2\n  pop\n    /* \"#utility.yul\":12373:12393   */\n  tag_202\n    /* \"#utility.yul\":12391:12392   */\n  dup4\n    /* \"#utility.yul\":12373:12393   */\n  tag_43\n  jump\t// in\ntag_202:\n    /* \"#utility.yul\":12368:12393   */\n  swap3\n  pop\n    /* \"#utility.yul\":12416:12417   */\n  dup3\n    /* \"#utility.yul\":12413:12414   */\n  dup3\n    /* \"#utility.yul\":12409:12418   */\n  add\n    /* \"#utility.yul\":12402:12418   */\n  swap1\n  pop\n    /* \"#utility.yul\":12437:12440   */\n  dup1\n    /* \"#utility.yul\":12434:12435   */\n  dup3\n    /* \"#utility.yul\":12431:12441   */\n  gt\n    /* \"#utility.yul\":12428:12464   */\n  iszero\n  tag_203\n  jumpi\n    /* \"#utility.yul\":12444:12462   */\n  tag_204\n  tag_69\n  jump\t// in\ntag_204:\n    /* \"#utility.yul\":12428:12464   */\ntag_203:\n    /* \"#utility.yul\":12280:12471   */\n  swap3\n  swap2\n  pop\n  pop\n  jump\t// out\n    /* \"contracts/Auction.sol\":137:5655  contract Auction is ReentrancyGuard {... */\ntag_24:\n  mload(0x80)\n  mload(0xa0)\n  mload(0xc0)\n  mload(0xe0)\n  codecopy(0x00, dataOffset(sub_0), dataSize(sub_0))\n  0x00\n  assignImmutable(\"0x0bbef0f2e518508eaf82ee7c5d668c950fa7069d0fb71a1d5dc9a7bc212df81d\")\n  0x00\n  assignImmutable(\"0x188e5a5b71233ee092fd8df209d4e7ce875dc9914c3b80c1ca11c66b0a19f684\")\n  0x00\n  assignImmutable(\"0xce6ad7a82c579f00c8c2ec78b19ce4bf9bed540bc4f74d7d6c4bb7ad14cb5db6\")\n  0x00\n  assignImmutable(\"0x180d3770614692d3f3276c2e96dbb6adbb6697ff4747b9002c9c44f0b93e7f04\")\n  return(0x00, dataSize(sub_0))\nstop\n\nsub_0: assembly {\n        /* \"contracts/Auction.sol\":137:5655  contract Auction is ReentrancyGuard {... */\n      mstore(0x40, 0x80)\n      jumpi(tag_1, lt(calldatasize, 0x04))\n      shr(0xe0, calldataload(0x00))\n      dup1\n      0x3d827e05\n      gt\n      tag_15\n      jumpi\n      dup1\n      0x86433374\n      gt\n      tag_16\n      jumpi\n      dup1\n      0x86433374\n      eq\n      tag_11\n      jumpi\n      dup1\n      0x8da5cb5b\n      eq\n      tag_12\n      jumpi\n      dup1\n      0xe0c10485\n      eq\n      tag_13\n      jumpi\n      dup1\n      0xe8b10c56\n      eq\n      tag_14\n      jumpi\n      jump(tag_1)\n    tag_16:\n      dup1\n      0x3d827e05\n      eq\n      tag_8\n      jumpi\n      dup1\n      0x48a818ad\n      eq\n      tag_9\n      jumpi\n      dup1\n      0x5d3a5703\n      eq\n      tag_10\n      jumpi\n      jump(tag_1)\n    tag_15:\n      dup1\n      0x1946941a\n      eq\n      tag_2\n      jumpi\n      dup1\n      0x2642a3f0\n      eq\n      tag_3\n      jumpi\n      dup1\n      0x2bb17b79\n      eq\n      tag_4\n      jumpi\n      dup1\n      0x33500e26\n      eq\n      tag_5\n      jumpi\n      dup1\n      0x3551999d\n      eq\n      tag_6\n      jumpi\n      dup1\n      0x3a685f61\n      eq\n      tag_7\n      jumpi\n    tag_1:\n      revert(0x00, 0x00)\n        /* \"contracts/Auction.sol\":4823:5278  function penalizeSupplier() public {... */\n    tag_2:\n      callvalue\n      dup1\n      iszero\n      tag_17\n      jumpi\n      revert(0x00, 0x00)\n    tag_17:\n      pop\n      tag_18\n      tag_19\n      jump\t// in\n    tag_18:\n      stop\n        /* \"contracts/Auction.sol\":598:624  uint8 public quantityToPay */\n    tag_3:\n      callvalue\n      dup1\n      iszero\n      tag_20\n      jumpi\n      revert(0x00, 0x00)\n    tag_20:\n      pop\n      tag_21\n      tag_22\n      jump\t// in\n    tag_21:\n      mload(0x40)\n      tag_23\n      swap2\n      swap1\n      tag_24\n      jump\t// in\n    tag_23:\n      mload(0x40)\n      dup1\n      swap2\n      sub\n      swap1\n      return\n        /* \"contracts/Auction.sol\":5286:5453  function getSupplierSelected() external view returns (address) {... */\n    tag_4:\n      callvalue\n      dup1\n      iszero\n      tag_25\n      jumpi\n      revert(0x00, 0x00)\n    tag_25:\n      pop\n      tag_26\n      tag_27\n      jump\t// in\n    tag_26:\n      mload(0x40)\n      tag_28\n      swap2\n      swap1\n      tag_29\n      jump\t// in\n    tag_28:\n      mload(0x40)\n      dup1\n      swap2\n      sub\n      swap1\n      return\n        /* \"contracts/Auction.sol\":1240:2066  function bid(uint8 _quantity) public payable {... */\n    tag_5:\n      tag_30\n      0x04\n      dup1\n      calldatasize\n      sub\n      dup2\n      add\n      swap1\n      tag_31\n      swap2\n      swap1\n      tag_32\n      jump\t// in\n    tag_31:\n      tag_33\n      jump\t// in\n    tag_30:\n      stop\n        /* \"contracts/Auction.sol\":5461:5652  function getBidPerSupplier() external view returns (address[] memory, uint8[] memory) {... */\n    tag_6:\n      callvalue\n      dup1\n      iszero\n      tag_34\n      jumpi\n      revert(0x00, 0x00)\n    tag_34:\n      pop\n      tag_35\n      tag_36\n      jump\t// in\n    tag_35:\n      mload(0x40)\n      tag_37\n      swap3\n      swap2\n      swap1\n      tag_38\n      jump\t// in\n    tag_37:\n      mload(0x40)\n      dup1\n      swap2\n      sub\n      swap1\n      return\n        /* \"contracts/Auction.sol\":180:210  string public medicalEquipment */\n    tag_7:\n      callvalue\n      dup1\n      iszero\n      tag_39\n      jumpi\n      revert(0x00, 0x00)\n    tag_39:\n      pop\n      tag_40\n      tag_41\n      jump\t// in\n    tag_40:\n      mload(0x40)\n      tag_42\n      swap2\n      swap1\n      tag_43\n      jump\t// in\n    tag_42:\n      mload(0x40)\n      dup1\n      swap2\n      sub\n      swap1\n      return\n        /* \"contracts/Auction.sol\":265:304  uint256 public immutable auctionEndDate */\n    tag_8:\n      callvalue\n      dup1\n      iszero\n      tag_44\n      jumpi\n      revert(0x00, 0x00)\n    tag_44:\n      pop\n      tag_45\n      tag_46\n      jump\t// in\n    tag_45:\n      mload(0x40)\n      tag_47\n      swap2\n      swap1\n      tag_48\n      jump\t// in\n    tag_47:\n      mload(0x40)\n      dup1\n      swap2\n      sub\n      swap1\n      return\n        /* \"contracts/Auction.sol\":311:344  uint8 public immutable maximumBid */\n    tag_9:\n      callvalue\n      dup1\n      iszero\n      tag_49\n      jumpi\n      revert(0x00, 0x00)\n    tag_49:\n      pop\n      tag_50\n      tag_51\n      jump\t// in\n    tag_50:\n      mload(0x40)\n      tag_52\n      swap2\n      swap1\n      tag_24\n      jump\t// in\n    tag_52:\n      mload(0x40)\n      dup1\n      swap2\n      sub\n      swap1\n      return\n        /* \"contracts/Auction.sol\":2074:2258  function checkAuctionEndDatePassed() external {... */\n    tag_10:\n      callvalue\n      dup1\n      iszero\n      tag_53\n      jumpi\n      revert(0x00, 0x00)\n    tag_53:\n      pop\n      tag_54\n      tag_55\n      jump\t// in\n    tag_54:\n      stop\n        /* \"contracts/Auction.sol\":631:655  bool public auctionEnded */\n    tag_11:\n      callvalue\n      dup1\n      iszero\n      tag_56\n      jumpi\n      revert(0x00, 0x00)\n    tag_56:\n      pop\n      tag_57\n      tag_58\n      jump\t// in\n    tag_57:\n      mload(0x40)\n      tag_59\n      swap2\n      swap1\n      tag_60\n      jump\t// in\n    tag_59:\n      mload(0x40)\n      dup1\n      swap2\n      sub\n      swap1\n      return\n        /* \"contracts/Auction.sol\":351:381  address public immutable owner */\n    tag_12:\n      callvalue\n      dup1\n      iszero\n      tag_61\n      jumpi\n      revert(0x00, 0x00)\n    tag_61:\n      pop\n      tag_62\n      tag_63\n      jump\t// in\n    tag_62:\n      mload(0x40)\n      tag_64\n      swap2\n      swap1\n      tag_29\n      jump\t// in\n    tag_64:\n      mload(0x40)\n      dup1\n      swap2\n      sub\n      swap1\n      return\n        /* \"contracts/Auction.sol\":4203:4815  function payDepositSupplierSelected() public {... */\n    tag_13:\n      callvalue\n      dup1\n      iszero\n      tag_65\n      jumpi\n      revert(0x00, 0x00)\n    tag_65:\n      pop\n      tag_66\n      tag_67\n      jump\t// in\n    tag_66:\n      stop\n        /* \"contracts/Auction.sol\":217:258  uint256 public immutable auctionStartDate */\n    tag_14:\n      callvalue\n      dup1\n      iszero\n      tag_68\n      jumpi\n      revert(0x00, 0x00)\n    tag_68:\n      pop\n      tag_69\n      tag_70\n      jump\t// in\n    tag_69:\n      mload(0x40)\n      tag_71\n      swap2\n      swap1\n      tag_48\n      jump\t// in\n    tag_71:\n      mload(0x40)\n      dup1\n      swap2\n      sub\n      swap1\n      return\n        /* \"contracts/Auction.sol\":4823:5278  function penalizeSupplier() public {... */\n    tag_19:\n        /* \"contracts/Auction.sol\":4877:4889  auctionEnded */\n      0x05\n      0x15\n      swap1\n      sload\n      swap1\n      0x0100\n      exp\n      swap1\n      div\n      0xff\n      and\n        /* \"contracts/Auction.sol\":4869:4920  require(auctionEnded, \"La subasta no ha terminado\") */\n      tag_73\n      jumpi\n      mload(0x40)\n      0x08c379a000000000000000000000000000000000000000000000000000000000\n      dup2\n      mstore\n      0x04\n      add\n      tag_74\n      swap1\n      tag_75\n      jump\t// in\n    tag_74:\n      mload(0x40)\n      dup1\n      swap2\n      sub\n      swap1\n      revert\n    tag_73:\n        /* \"contracts/Auction.sol\":4953:4958  owner */\n      immutable(\"0x0bbef0f2e518508eaf82ee7c5d668c950fa7069d0fb71a1d5dc9a7bc212df81d\")\n        /* \"contracts/Auction.sol\":4939:4958  msg.sender == owner */\n      0xffffffffffffffffffffffffffffffffffffffff\n      and\n        /* \"contracts/Auction.sol\":4939:4949  msg.sender */\n      caller\n        /* \"contracts/Auction.sol\":4939:4958  msg.sender == owner */\n      0xffffffffffffffffffffffffffffffffffffffff\n      and\n      eq\n        /* \"contracts/Auction.sol\":4931:5026  require(msg.sender == owner, unicode\"Solo el dueño puede penalizar al proveedor seleccionado\") */\n      tag_76\n      jumpi\n      mload(0x40)\n      0x08c379a000000000000000000000000000000000000000000000000000000000\n      dup2\n      mstore\n      0x04\n      add\n      tag_77\n      swap1\n      tag_78\n      jump\t// in\n    tag_77:\n      mload(0x40)\n      dup1\n      swap2\n      sub\n      swap1\n      revert\n    tag_76:\n        /* \"contracts/Auction.sol\":5073:5074  0 */\n      0x00\n        /* \"contracts/Auction.sol\":5045:5075  supplierSelected != address(0) */\n      0xffffffffffffffffffffffffffffffffffffffff\n      and\n        /* \"contracts/Auction.sol\":5045:5061  supplierSelected */\n      0x05\n      0x00\n      swap1\n      sload\n      swap1\n      0x0100\n      exp\n      swap1\n      div\n      0xffffffffffffffffffffffffffffffffffffffff\n      and\n        /* \"contracts/Auction.sol\":5045:5075  supplierSelected != address(0) */\n      0xffffffffffffffffffffffffffffffffffffffff\n      and\n      sub\n        /* \"contracts/Auction.sol\":5037:5109  require(supplierSelected != address(0), \"No hay proveedor seleccionado\") */\n      tag_79\n      jumpi\n      mload(0x40)\n      0x08c379a000000000000000000000000000000000000000000000000000000000\n      dup2\n      mstore\n      0x04\n      add\n      tag_80\n      swap1\n      tag_81\n      jump\t// in\n    tag_80:\n      mload(0x40)\n      dup1\n      swap2\n      sub\n      swap1\n      revert\n    tag_79:\n        /* \"contracts/Auction.sol\":5120:5134  uint256 amount */\n      0x00\n        /* \"contracts/Auction.sol\":5137:5145  deposits */\n      0x02\n        /* \"contracts/Auction.sol\":5137:5163  deposits[supplierSelected] */\n      0x00\n        /* \"contracts/Auction.sol\":5146:5162  supplierSelected */\n      0x05\n      0x00\n      swap1\n      sload\n      swap1\n      0x0100\n      exp\n      swap1\n      div\n      0xffffffffffffffffffffffffffffffffffffffff\n      and\n        /* \"contracts/Auction.sol\":5137:5163  deposits[supplierSelected] */\n      0xffffffffffffffffffffffffffffffffffffffff\n      and\n      0xffffffffffffffffffffffffffffffffffffffff\n      and\n      dup2\n      mstore\n      0x20\n      add\n      swap1\n      dup2\n      mstore\n      0x20\n      add\n      0x00\n      keccak256\n      sload\n        /* \"contracts/Auction.sol\":5120:5163  uint256 amount = deposits[supplierSelected] */\n      swap1\n      pop\n        /* \"contracts/Auction.sol\":5191:5192  0 */\n      0x00\n        /* \"contracts/Auction.sol\":5182:5188  amount */\n      dup2\n        /* \"contracts/Auction.sol\":5182:5192  amount > 0 */\n      gt\n        /* \"contracts/Auction.sol\":5174:5227  require(amount > 0, \"No hay deposito para penalizar\") */\n      tag_82\n      jumpi\n      mload(0x40)\n      0x08c379a000000000000000000000000000000000000000000000000000000000\n      dup2\n      mstore\n      0x04\n      add\n      tag_83\n      swap1\n      tag_84\n      jump\t// in\n    tag_83:\n      mload(0x40)\n      dup1\n      swap2\n      sub\n      swap1\n      revert\n    tag_82:\n        /* \"contracts/Auction.sol\":5269:5270  0 */\n      0x00\n        /* \"contracts/Auction.sol\":5240:5248  deposits */\n      0x02\n        /* \"contracts/Auction.sol\":5240:5266  deposits[supplierSelected] */\n      0x00\n        /* \"contracts/Auction.sol\":5249:5265  supplierSelected */\n      0x05\n      0x00\n      swap1\n      sload\n      swap1\n      0x0100\n      exp\n      swap1\n      div\n      0xffffffffffffffffffffffffffffffffffffffff\n      and\n        /* \"contracts/Auction.sol\":5240:5266  deposits[supplierSelected] */\n      0xffffffffffffffffffffffffffffffffffffffff\n      and\n      0xffffffffffffffffffffffffffffffffffffffff\n      and\n      dup2\n      mstore\n      0x20\n      add\n      swap1\n      dup2\n      mstore\n      0x20\n      add\n      0x00\n      keccak256\n        /* \"contracts/Auction.sol\":5240:5270  deposits[supplierSelected] = 0 */\n      dup2\n      swap1\n      sstore\n      pop\n        /* \"contracts/Auction.sol\":4858:5278  {... */\n      pop\n        /* \"contracts/Auction.sol\":4823:5278  function penalizeSupplier() public {... */\n      jump\t// out\n        /* \"contracts/Auction.sol\":598:624  uint8 public quantityToPay */\n    tag_22:\n      0x05\n      0x14\n      swap1\n      sload\n      swap1\n      0x0100\n      exp\n      swap1\n      div\n      0xff\n      and\n      dup2\n      jump\t// out\n        /* \"contracts/Auction.sol\":5286:5453  function getSupplierSelected() external view returns (address) {... */\n    tag_27:\n        /* \"contracts/Auction.sol\":5340:5347  address */\n      0x00\n        /* \"contracts/Auction.sol\":5368:5380  auctionEnded */\n      0x05\n      0x15\n      swap1\n      sload\n      swap1\n      0x0100\n      exp\n      swap1\n      div\n      0xff\n      and\n        /* \"contracts/Auction.sol\":5360:5411  require(auctionEnded, \"La subasta no ha terminado\") */\n      tag_86\n      jumpi\n      mload(0x40)\n      0x08c379a000000000000000000000000000000000000000000000000000000000\n      dup2\n      mstore\n      0x04\n      add\n      tag_87\n      swap1\n      tag_75\n      jump\t// in\n    tag_87:\n      mload(0x40)\n      dup1\n      swap2\n      sub\n      swap1\n      revert\n    tag_86:\n        /* \"contracts/Auction.sol\":5429:5445  supplierSelected */\n      0x05\n      0x00\n      swap1\n      sload\n      swap1\n      0x0100\n      exp\n      swap1\n      div\n      0xffffffffffffffffffffffffffffffffffffffff\n      and\n        /* \"contracts/Auction.sol\":5422:5445  return supplierSelected */\n      swap1\n      pop\n        /* \"contracts/Auction.sol\":5286:5453  function getSupplierSelected() external view returns (address) {... */\n      swap1\n      jump\t// out\n        /* \"contracts/Auction.sol\":1240:2066  function bid(uint8 _quantity) public payable {... */\n    tag_33:\n        /* \"contracts/Auction.sol\":1305:1317  auctionEnded */\n      0x05\n      0x15\n      swap1\n      sload\n      swap1\n      0x0100\n      exp\n      swap1\n      div\n      0xff\n      and\n        /* \"contracts/Auction.sol\":1304:1317  !auctionEnded */\n      iszero\n        /* \"contracts/Auction.sol\":1296:1345  require(!auctionEnded, \"La subasta ha terminado\") */\n      tag_89\n      jumpi\n      mload(0x40)\n      0x08c379a000000000000000000000000000000000000000000000000000000000\n      dup2\n      mstore\n      0x04\n      add\n      tag_90\n      swap1\n      tag_91\n      jump\t// in\n    tag_90:\n      mload(0x40)\n      dup1\n      swap2\n      sub\n      swap1\n      revert\n    tag_89:\n        /* \"contracts/Auction.sol\":1376:1377  0 */\n      0x00\n        /* \"contracts/Auction.sol\":1364:1373  _quantity */\n      dup2\n        /* \"contracts/Auction.sol\":1364:1377  _quantity > 0 */\n      0xff\n      and\n      gt\n        /* \"contracts/Auction.sol\":1356:1428  require(_quantity > 0, \"La puja debe ser un valor positivo mayor que 0\") */\n      tag_92\n      jumpi\n      mload(0x40)\n      0x08c379a000000000000000000000000000000000000000000000000000000000\n      dup2\n      mstore\n      0x04\n      add\n      tag_93\n      swap1\n      tag_94\n      jump\t// in\n    tag_93:\n      mload(0x40)\n      dup1\n      swap2\n      sub\n      swap1\n      revert\n    tag_92:\n        /* \"contracts/Auction.sol\":1460:1470  maximumBid */\n      immutable(\"0x188e5a5b71233ee092fd8df209d4e7ce875dc9914c3b80c1ca11c66b0a19f684\")\n        /* \"contracts/Auction.sol\":1447:1470  _quantity <= maximumBid */\n      0xff\n      and\n        /* \"contracts/Auction.sol\":1447:1456  _quantity */\n      dup2\n        /* \"contracts/Auction.sol\":1447:1470  _quantity <= maximumBid */\n      0xff\n      and\n      gt\n      iszero\n        /* \"contracts/Auction.sol\":1439:1578  require(_quantity <= maximumBid, unicode\"La puja debe ser un valor igual o por debajo del valor máximo definido por el servicio de salud\") */\n      tag_95\n      jumpi\n      mload(0x40)\n      0x08c379a000000000000000000000000000000000000000000000000000000000\n      dup2\n      mstore\n      0x04\n      add\n      tag_96\n      swap1\n      tag_97\n      jump\t// in\n    tag_96:\n      mload(0x40)\n      dup1\n      swap2\n      sub\n      swap1\n      revert\n    tag_95:\n        /* \"contracts/Auction.sol\":1627:1628  0 */\n      0x00\n        /* \"contracts/Auction.sol\":1597:1611  bidPerSupplier */\n      0x01\n        /* \"contracts/Auction.sol\":1597:1623  bidPerSupplier[msg.sender] */\n      0x00\n        /* \"contracts/Auction.sol\":1612:1622  msg.sender */\n      caller\n        /* \"contracts/Auction.sol\":1597:1623  bidPerSupplier[msg.sender] */\n      0xffffffffffffffffffffffffffffffffffffffff\n      and\n      0xffffffffffffffffffffffffffffffffffffffff\n      and\n      dup2\n      mstore\n      0x20\n      add\n      swap1\n      dup2\n      mstore\n      0x20\n      add\n      0x00\n      keccak256\n      0x00\n      swap1\n      sload\n      swap1\n      0x0100\n      exp\n      swap1\n      div\n      0xff\n      and\n        /* \"contracts/Auction.sol\":1597:1628  bidPerSupplier[msg.sender] == 0 */\n      0xff\n      and\n      eq\n        /* \"contracts/Auction.sol\":1589:1658  require(bidPerSupplier[msg.sender] == 0, \"Ya has realizado una puja\") */\n      tag_98\n      jumpi\n      mload(0x40)\n      0x08c379a000000000000000000000000000000000000000000000000000000000\n      dup2\n      mstore\n      0x04\n      add\n      tag_99\n      swap1\n      tag_100\n      jump\t// in\n    tag_99:\n      mload(0x40)\n      dup1\n      swap2\n      sub\n      swap1\n      revert\n    tag_98:\n        /* \"contracts/Auction.sol\":1671:1686  uint256 deposit */\n      0x00\n        /* \"contracts/Auction.sol\":1717:1720  100 */\n      0x64\n        /* \"contracts/Auction.sol\":1711:1713  10 */\n      0x0a\n        /* \"contracts/Auction.sol\":1698:1707  _quantity */\n      dup4\n        /* \"contracts/Auction.sol\":1690:1708  uint256(_quantity) */\n      0xff\n      and\n        /* \"contracts/Auction.sol\":1690:1713  uint256(_quantity) * 10 */\n      tag_101\n      swap2\n      swap1\n      tag_102\n      jump\t// in\n    tag_101:\n        /* \"contracts/Auction.sol\":1689:1720  (uint256(_quantity) * 10) / 100 */\n      tag_103\n      swap2\n      swap1\n      tag_104\n      jump\t// in\n    tag_103:\n        /* \"contracts/Auction.sol\":1671:1720  uint256 deposit = (uint256(_quantity) * 10) / 100 */\n      swap1\n      pop\n        /* \"contracts/Auction.sol\":1752:1759  deposit */\n      dup1\n        /* \"contracts/Auction.sol\":1739:1748  msg.value */\n      callvalue\n        /* \"contracts/Auction.sol\":1739:1759  msg.value >= deposit */\n      lt\n      iszero\n        /* \"contracts/Auction.sol\":1731:1817  require(msg.value >= deposit, \"Debes enviar al menos el 10% de tu puja como deposito\") */\n      tag_105\n      jumpi\n      mload(0x40)\n      0x08c379a000000000000000000000000000000000000000000000000000000000\n      dup2\n      mstore\n      0x04\n      add\n      tag_106\n      swap1\n      tag_107\n      jump\t// in\n    tag_106:\n      mload(0x40)\n      dup1\n      swap2\n      sub\n      swap1\n      revert\n    tag_105:\n        /* \"contracts/Auction.sol\":1859:1868  _quantity */\n      dup2\n        /* \"contracts/Auction.sol\":1830:1844  bidPerSupplier */\n      0x01\n        /* \"contracts/Auction.sol\":1830:1856  bidPerSupplier[msg.sender] */\n      0x00\n        /* \"contracts/Auction.sol\":1845:1855  msg.sender */\n      caller\n        /* \"contracts/Auction.sol\":1830:1856  bidPerSupplier[msg.sender] */\n      0xffffffffffffffffffffffffffffffffffffffff\n      and\n      0xffffffffffffffffffffffffffffffffffffffff\n      and\n      dup2\n      mstore\n      0x20\n      add\n      swap1\n      dup2\n      mstore\n      0x20\n      add\n      0x00\n      keccak256\n      0x00\n        /* \"contracts/Auction.sol\":1830:1868  bidPerSupplier[msg.sender] = _quantity */\n      0x0100\n      exp\n      dup2\n      sload\n      dup2\n      0xff\n      mul\n      not\n      and\n      swap1\n      dup4\n      0xff\n      and\n      mul\n      or\n      swap1\n      sstore\n      pop\n        /* \"contracts/Auction.sol\":1903:1912  msg.value */\n      callvalue\n        /* \"contracts/Auction.sol\":1879:1887  deposits */\n      0x02\n        /* \"contracts/Auction.sol\":1879:1899  deposits[msg.sender] */\n      0x00\n        /* \"contracts/Auction.sol\":1888:1898  msg.sender */\n      caller\n        /* \"contracts/Auction.sol\":1879:1899  deposits[msg.sender] */\n      0xffffffffffffffffffffffffffffffffffffffff\n      and\n      0xffffffffffffffffffffffffffffffffffffffff\n      and\n      dup2\n      mstore\n      0x20\n      add\n      swap1\n      dup2\n      mstore\n      0x20\n      add\n      0x00\n      keccak256\n      0x00\n        /* \"contracts/Auction.sol\":1879:1912  deposits[msg.sender] += msg.value */\n      dup3\n      dup3\n      sload\n      tag_108\n      swap2\n      swap1\n      tag_109\n      jump\t// in\n    tag_108:\n      swap3\n      pop\n      pop\n      dup2\n      swap1\n      sstore\n      pop\n        /* \"contracts/Auction.sol\":1923:1932  suppliers */\n      0x03\n        /* \"contracts/Auction.sol\":1938:1948  msg.sender */\n      caller\n        /* \"contracts/Auction.sol\":1923:1949  suppliers.push(msg.sender) */\n      swap1\n      dup1\n      0x01\n      dup2\n      sload\n      add\n      dup1\n      dup3\n      sstore\n      dup1\n      swap2\n      pop\n      pop\n      0x01\n      swap1\n      sub\n      swap1\n      0x00\n      mstore\n      keccak256(0x00, 0x20)\n      add\n      0x00\n      swap1\n      swap2\n      swap1\n      swap2\n      swap1\n      swap2\n      0x0100\n      exp\n      dup2\n      sload\n      dup2\n      0xffffffffffffffffffffffffffffffffffffffff\n      mul\n      not\n      and\n      swap1\n      dup4\n      0xffffffffffffffffffffffffffffffffffffffff\n      and\n      mul\n      or\n      swap1\n      sstore\n      pop\n        /* \"contracts/Auction.sol\":1960:1964  bids */\n      0x04\n        /* \"contracts/Auction.sol\":1970:1979  _quantity */\n      dup3\n        /* \"contracts/Auction.sol\":1960:1980  bids.push(_quantity) */\n      swap1\n      dup1\n      0x01\n      dup2\n      sload\n      add\n      dup1\n      dup3\n      sstore\n      dup1\n      swap2\n      pop\n      pop\n      0x01\n      swap1\n      sub\n      swap1\n      0x00\n      mstore\n      keccak256(0x00, 0x20)\n      swap1\n      0x20\n      swap2\n      dup3\n      dup3\n      div\n      add\n      swap2\n      swap1\n      mod\n      swap1\n      swap2\n      swap1\n      swap2\n      swap1\n      swap2\n      0x0100\n      exp\n      dup2\n      sload\n      dup2\n      0xff\n      mul\n      not\n      and\n      swap1\n      dup4\n      0xff\n      and\n      mul\n      or\n      swap1\n      sstore\n      pop\n        /* \"contracts/Auction.sol\":2016:2018  30 */\n      0x1e\n        /* \"contracts/Auction.sol\":1996:2005  suppliers */\n      0x03\n        /* \"contracts/Auction.sol\":1996:2012  suppliers.length */\n      dup1\n      sload\n      swap1\n      pop\n        /* \"contracts/Auction.sol\":1996:2018  suppliers.length == 30 */\n      sub\n        /* \"contracts/Auction.sol\":1993:2059  if(suppliers.length == 30) {... */\n      tag_112\n      jumpi\n        /* \"contracts/Auction.sol\":2035:2047  endAuction() */\n      tag_113\n        /* \"contracts/Auction.sol\":2035:2045  endAuction */\n      tag_114\n        /* \"contracts/Auction.sol\":2035:2047  endAuction() */\n      jump\t// in\n    tag_113:\n        /* \"contracts/Auction.sol\":1993:2059  if(suppliers.length == 30) {... */\n    tag_112:\n        /* \"contracts/Auction.sol\":1285:2066  {... */\n      pop\n        /* \"contracts/Auction.sol\":1240:2066  function bid(uint8 _quantity) public payable {... */\n      pop\n      jump\t// out\n        /* \"contracts/Auction.sol\":5461:5652  function getBidPerSupplier() external view returns (address[] memory, uint8[] memory) {... */\n    tag_36:\n        /* \"contracts/Auction.sol\":5513:5529  address[] memory */\n      0x60\n        /* \"contracts/Auction.sol\":5531:5545  uint8[] memory */\n      dup1\n        /* \"contracts/Auction.sol\":5566:5578  auctionEnded */\n      0x05\n      0x15\n      swap1\n      sload\n      swap1\n      0x0100\n      exp\n      swap1\n      div\n      0xff\n      and\n        /* \"contracts/Auction.sol\":5558:5609  require(auctionEnded, \"La subasta no ha terminado\") */\n      tag_116\n      jumpi\n      mload(0x40)\n      0x08c379a000000000000000000000000000000000000000000000000000000000\n      dup2\n      mstore\n      0x04\n      add\n      tag_117\n      swap1\n      tag_75\n      jump\t// in\n    tag_117:\n      mload(0x40)\n      dup1\n      swap2\n      sub\n      swap1\n      revert\n    tag_116:\n        /* \"contracts/Auction.sol\":5628:5637  suppliers */\n      0x03\n        /* \"contracts/Auction.sol\":5639:5643  bids */\n      0x04\n        /* \"contracts/Auction.sol\":5620:5644  return (suppliers, bids) */\n      dup2\n      dup1\n      sload\n      dup1\n      0x20\n      mul\n      0x20\n      add\n      mload(0x40)\n      swap1\n      dup2\n      add\n      0x40\n      mstore\n      dup1\n      swap3\n      swap2\n      swap1\n      dup2\n      dup2\n      mstore\n      0x20\n      add\n      dup3\n      dup1\n      sload\n      dup1\n      iszero\n      tag_118\n      jumpi\n      0x20\n      mul\n      dup3\n      add\n      swap2\n      swap1\n      0x00\n      mstore\n      keccak256(0x00, 0x20)\n      swap1\n    tag_119:\n      dup2\n      0x00\n      swap1\n      sload\n      swap1\n      0x0100\n      exp\n      swap1\n      div\n      0xffffffffffffffffffffffffffffffffffffffff\n      and\n      0xffffffffffffffffffffffffffffffffffffffff\n      and\n      dup2\n      mstore\n      0x20\n      add\n      swap1\n      0x01\n      add\n      swap1\n      dup1\n      dup4\n      gt\n      tag_119\n      jumpi\n    tag_118:\n      pop\n      pop\n      pop\n      pop\n      pop\n      swap2\n      pop\n      dup1\n      dup1\n      sload\n      dup1\n      0x20\n      mul\n      0x20\n      add\n      mload(0x40)\n      swap1\n      dup2\n      add\n      0x40\n      mstore\n      dup1\n      swap3\n      swap2\n      swap1\n      dup2\n      dup2\n      mstore\n      0x20\n      add\n      dup3\n      dup1\n      sload\n      dup1\n      iszero\n      tag_120\n      jumpi\n      0x20\n      mul\n      dup3\n      add\n      swap2\n      swap1\n      0x00\n      mstore\n      keccak256(0x00, 0x20)\n      swap1\n      0x00\n      swap1\n    tag_121:\n      dup3\n      dup3\n      swap1\n      sload\n      swap1\n      0x0100\n      exp\n      swap1\n      div\n      0xff\n      and\n      0xff\n      and\n      dup2\n      mstore\n      0x20\n      add\n      swap1\n      0x01\n      add\n      swap1\n      0x20\n      dup3\n      0x00\n      add\n      div\n      swap3\n      dup4\n      add\n      swap3\n      0x01\n      sub\n      dup3\n      mul\n      swap2\n      pop\n      dup1\n      dup5\n      gt\n      tag_121\n      jumpi\n      swap1\n      pop\n    tag_120:\n      pop\n      pop\n      pop\n      pop\n      pop\n      swap1\n      pop\n      swap2\n      pop\n      swap2\n      pop\n        /* \"contracts/Auction.sol\":5461:5652  function getBidPerSupplier() external view returns (address[] memory, uint8[] memory) {... */\n      swap1\n      swap2\n      jump\t// out\n        /* \"contracts/Auction.sol\":180:210  string public medicalEquipment */\n    tag_41:\n      0x00\n      dup1\n      sload\n      tag_122\n      swap1\n      tag_123\n      jump\t// in\n    tag_122:\n      dup1\n      0x1f\n      add\n      0x20\n      dup1\n      swap2\n      div\n      mul\n      0x20\n      add\n      mload(0x40)\n      swap1\n      dup2\n      add\n      0x40\n      mstore\n      dup1\n      swap3\n      swap2\n      swap1\n      dup2\n      dup2\n      mstore\n      0x20\n      add\n      dup3\n      dup1\n      sload\n      tag_124\n      swap1\n      tag_123\n      jump\t// in\n    tag_124:\n      dup1\n      iszero\n      tag_125\n      jumpi\n      dup1\n      0x1f\n      lt\n      tag_126\n      jumpi\n      0x0100\n      dup1\n      dup4\n      sload\n      div\n      mul\n      dup4\n      mstore\n      swap2\n      0x20\n      add\n      swap2\n      jump(tag_125)\n    tag_126:\n      dup3\n      add\n      swap2\n      swap1\n      0x00\n      mstore\n      keccak256(0x00, 0x20)\n      swap1\n    tag_127:\n      dup2\n      sload\n      dup2\n      mstore\n      swap1\n      0x01\n      add\n      swap1\n      0x20\n      add\n      dup1\n      dup4\n      gt\n      tag_127\n      jumpi\n      dup3\n      swap1\n      sub\n      0x1f\n      and\n      dup3\n      add\n      swap2\n    tag_125:\n      pop\n      pop\n      pop\n      pop\n      pop\n      dup2\n      jump\t// out\n        /* \"contracts/Auction.sol\":265:304  uint256 public immutable auctionEndDate */\n    tag_46:\n      immutable(\"0xce6ad7a82c579f00c8c2ec78b19ce4bf9bed540bc4f74d7d6c4bb7ad14cb5db6\")\n      dup2\n      jump\t// out\n        /* \"contracts/Auction.sol\":311:344  uint8 public immutable maximumBid */\n    tag_51:\n      immutable(\"0x188e5a5b71233ee092fd8df209d4e7ce875dc9914c3b80c1ca11c66b0a19f684\")\n      dup2\n      jump\t// out\n        /* \"contracts/Auction.sol\":2074:2258  function checkAuctionEndDatePassed() external {... */\n    tag_55:\n        /* \"contracts/Auction.sol\":2131:2150  uint256 currentDate */\n      0x00\n        /* \"contracts/Auction.sol\":2153:2168  block.timestamp */\n      timestamp\n        /* \"contracts/Auction.sol\":2131:2168  uint256 currentDate = block.timestamp */\n      swap1\n      pop\n        /* \"contracts/Auction.sol\":2196:2210  auctionEndDate */\n      immutable(\"0xce6ad7a82c579f00c8c2ec78b19ce4bf9bed540bc4f74d7d6c4bb7ad14cb5db6\")\n        /* \"contracts/Auction.sol\":2182:2193  currentDate */\n      dup2\n        /* \"contracts/Auction.sol\":2182:2210  currentDate > auctionEndDate */\n      gt\n        /* \"contracts/Auction.sol\":2179:2251  if(currentDate > auctionEndDate) {... */\n      iszero\n      tag_129\n      jumpi\n        /* \"contracts/Auction.sol\":2227:2239  endAuction() */\n      tag_130\n        /* \"contracts/Auction.sol\":2227:2237  endAuction */\n      tag_114\n        /* \"contracts/Auction.sol\":2227:2239  endAuction() */\n      jump\t// in\n    tag_130:\n        /* \"contracts/Auction.sol\":2179:2251  if(currentDate > auctionEndDate) {... */\n    tag_129:\n        /* \"contracts/Auction.sol\":2120:2258  {... */\n      pop\n        /* \"contracts/Auction.sol\":2074:2258  function checkAuctionEndDatePassed() external {... */\n      jump\t// out\n        /* \"contracts/Auction.sol\":631:655  bool public auctionEnded */\n    tag_58:\n      0x05\n      0x15\n      swap1\n      sload\n      swap1\n      0x0100\n      exp\n      swap1\n      div\n      0xff\n      and\n      dup2\n      jump\t// out\n        /* \"contracts/Auction.sol\":351:381  address public immutable owner */\n    tag_63:\n      immutable(\"0x0bbef0f2e518508eaf82ee7c5d668c950fa7069d0fb71a1d5dc9a7bc212df81d\")\n      dup2\n      jump\t// out\n        /* \"contracts/Auction.sol\":4203:4815  function payDepositSupplierSelected() public {... */\n    tag_67:\n        /* \"contracts/Auction.sol\":4267:4279  auctionEnded */\n      0x05\n      0x15\n      swap1\n      sload\n      swap1\n      0x0100\n      exp\n      swap1\n      div\n      0xff\n      and\n        /* \"contracts/Auction.sol\":4259:4310  require(auctionEnded, \"La subasta no ha terminado\") */\n      tag_132\n      jumpi\n      mload(0x40)\n      0x08c379a000000000000000000000000000000000000000000000000000000000\n      dup2\n      mstore\n      0x04\n      add\n      tag_133\n      swap1\n      tag_75\n      jump\t// in\n    tag_133:\n      mload(0x40)\n      dup1\n      swap2\n      sub\n      swap1\n      revert\n    tag_132:\n        /* \"contracts/Auction.sol\":4343:4348  owner */\n      immutable(\"0x0bbef0f2e518508eaf82ee7c5d668c950fa7069d0fb71a1d5dc9a7bc212df81d\")\n        /* \"contracts/Auction.sol\":4329:4348  msg.sender == owner */\n      0xffffffffffffffffffffffffffffffffffffffff\n      and\n        /* \"contracts/Auction.sol\":4329:4339  msg.sender */\n      caller\n        /* \"contracts/Auction.sol\":4329:4348  msg.sender == owner */\n      0xffffffffffffffffffffffffffffffffffffffff\n      and\n      eq\n        /* \"contracts/Auction.sol\":4321:4412  require(msg.sender == owner, unicode\"Solo el dueño puede pagar al proveedor seleccionado\") */\n      tag_134\n      jumpi\n      mload(0x40)\n      0x08c379a000000000000000000000000000000000000000000000000000000000\n      dup2\n      mstore\n      0x04\n      add\n      tag_135\n      swap1\n      tag_136\n      jump\t// in\n    tag_135:\n      mload(0x40)\n      dup1\n      swap2\n      sub\n      swap1\n      revert\n    tag_134:\n        /* \"contracts/Auction.sol\":4459:4460  0 */\n      0x00\n        /* \"contracts/Auction.sol\":4431:4461  supplierSelected != address(0) */\n      0xffffffffffffffffffffffffffffffffffffffff\n      and\n        /* \"contracts/Auction.sol\":4431:4447  supplierSelected */\n      0x05\n      0x00\n      swap1\n      sload\n      swap1\n      0x0100\n      exp\n      swap1\n      div\n      0xffffffffffffffffffffffffffffffffffffffff\n      and\n        /* \"contracts/Auction.sol\":4431:4461  supplierSelected != address(0) */\n      0xffffffffffffffffffffffffffffffffffffffff\n      and\n      sub\n        /* \"contracts/Auction.sol\":4423:4495  require(supplierSelected != address(0), \"No hay proveedor seleccionado\") */\n      tag_137\n      jumpi\n      mload(0x40)\n      0x08c379a000000000000000000000000000000000000000000000000000000000\n      dup2\n      mstore\n      0x04\n      add\n      tag_138\n      swap1\n      tag_81\n      jump\t// in\n    tag_138:\n      mload(0x40)\n      dup1\n      swap2\n      sub\n      swap1\n      revert\n    tag_137:\n        /* \"contracts/Auction.sol\":4506:4520  uint256 amount */\n      0x00\n        /* \"contracts/Auction.sol\":4523:4531  deposits */\n      0x02\n        /* \"contracts/Auction.sol\":4523:4549  deposits[supplierSelected] */\n      0x00\n        /* \"contracts/Auction.sol\":4532:4548  supplierSelected */\n      0x05\n      0x00\n      swap1\n      sload\n      swap1\n      0x0100\n      exp\n      swap1\n      div\n      0xffffffffffffffffffffffffffffffffffffffff\n      and\n        /* \"contracts/Auction.sol\":4523:4549  deposits[supplierSelected] */\n      0xffffffffffffffffffffffffffffffffffffffff\n      and\n      0xffffffffffffffffffffffffffffffffffffffff\n      and\n      dup2\n      mstore\n      0x20\n      add\n      swap1\n      dup2\n      mstore\n      0x20\n      add\n      0x00\n      keccak256\n      sload\n        /* \"contracts/Auction.sol\":4506:4549  uint256 amount = deposits[supplierSelected] */\n      swap1\n      pop\n        /* \"contracts/Auction.sol\":4577:4578  0 */\n      0x00\n        /* \"contracts/Auction.sol\":4568:4574  amount */\n      dup2\n        /* \"contracts/Auction.sol\":4568:4578  amount > 0 */\n      gt\n        /* \"contracts/Auction.sol\":4560:4609  require(amount > 0, \"No hay deposito para pagar\") */\n      tag_139\n      jumpi\n      mload(0x40)\n      0x08c379a000000000000000000000000000000000000000000000000000000000\n      dup2\n      mstore\n      0x04\n      add\n      tag_140\n      swap1\n      tag_141\n      jump\t// in\n    tag_140:\n      mload(0x40)\n      dup1\n      swap2\n      sub\n      swap1\n      revert\n    tag_139:\n        /* \"contracts/Auction.sol\":4649:4650  0 */\n      0x00\n        /* \"contracts/Auction.sol\":4620:4628  deposits */\n      0x02\n        /* \"contracts/Auction.sol\":4620:4646  deposits[supplierSelected] */\n      0x00\n        /* \"contracts/Auction.sol\":4629:4645  supplierSelected */\n      0x05\n      0x00\n      swap1\n      sload\n      swap1\n      0x0100\n      exp\n      swap1\n      div\n      0xffffffffffffffffffffffffffffffffffffffff\n      and\n        /* \"contracts/Auction.sol\":4620:4646  deposits[supplierSelected] */\n      0xffffffffffffffffffffffffffffffffffffffff\n      and\n      0xffffffffffffffffffffffffffffffffffffffff\n      and\n      dup2\n      mstore\n      0x20\n      add\n      swap1\n      dup2\n      mstore\n      0x20\n      add\n      0x00\n      keccak256\n        /* \"contracts/Auction.sol\":4620:4650  deposits[supplierSelected] = 0 */\n      dup2\n      swap1\n      sstore\n      pop\n        /* \"contracts/Auction.sol\":4671:4684  quantityToPay */\n      0x05\n      0x14\n      swap1\n      sload\n      swap1\n      0x0100\n      exp\n      swap1\n      div\n      0xff\n      and\n        /* \"contracts/Auction.sol\":4661:4684  amount += quantityToPay */\n      0xff\n      and\n      dup2\n      tag_142\n      swap2\n      swap1\n      tag_109\n      jump\t// in\n    tag_142:\n      swap1\n      pop\n        /* \"contracts/Auction.sol\":4696:4705  bool sent */\n      0x00\n        /* \"contracts/Auction.sol\":4719:4735  supplierSelected */\n      0x05\n      0x00\n      swap1\n      sload\n      swap1\n      0x0100\n      exp\n      swap1\n      div\n      0xffffffffffffffffffffffffffffffffffffffff\n      and\n        /* \"contracts/Auction.sol\":4711:4741  payable(supplierSelected).call */\n      0xffffffffffffffffffffffffffffffffffffffff\n      and\n        /* \"contracts/Auction.sol\":4749:4755  amount */\n      dup3\n        /* \"contracts/Auction.sol\":4711:4760  payable(supplierSelected).call{value: amount}(\"\") */\n      mload(0x40)\n      tag_143\n      swap1\n      tag_144\n      jump\t// in\n    tag_143:\n      0x00\n      mload(0x40)\n      dup1\n      dup4\n      sub\n      dup2\n      dup6\n      dup8\n      gas\n      call\n      swap3\n      pop\n      pop\n      pop\n      returndatasize\n      dup1\n      0x00\n      dup2\n      eq\n      tag_147\n      jumpi\n      mload(0x40)\n      swap2\n      pop\n      and(add(returndatasize, 0x3f), not(0x1f))\n      dup3\n      add\n      0x40\n      mstore\n      returndatasize\n      dup3\n      mstore\n      returndatasize\n      0x00\n      0x20\n      dup5\n      add\n      returndatacopy\n      jump(tag_146)\n    tag_147:\n      0x60\n      swap2\n      pop\n    tag_146:\n      pop\n        /* \"contracts/Auction.sol\":4695:4760  (bool sent, ) = payable(supplierSelected).call{value: amount}(\"\") */\n      pop\n      swap1\n      pop\n        /* \"contracts/Auction.sol\":4779:4783  sent */\n      dup1\n        /* \"contracts/Auction.sol\":4771:4807  require(sent, \"Fallo al enviar ETH\") */\n      tag_148\n      jumpi\n      mload(0x40)\n      0x08c379a000000000000000000000000000000000000000000000000000000000\n      dup2\n      mstore\n      0x04\n      add\n      tag_149\n      swap1\n      tag_150\n      jump\t// in\n    tag_149:\n      mload(0x40)\n      dup1\n      swap2\n      sub\n      swap1\n      revert\n    tag_148:\n        /* \"contracts/Auction.sol\":4248:4815  {... */\n      pop\n      pop\n        /* \"contracts/Auction.sol\":4203:4815  function payDepositSupplierSelected() public {... */\n      jump\t// out\n        /* \"contracts/Auction.sol\":217:258  uint256 public immutable auctionStartDate */\n    tag_70:\n      immutable(\"0x180d3770614692d3f3276c2e96dbb6adbb6697ff4747b9002c9c44f0b93e7f04\")\n      dup2\n      jump\t// out\n        /* \"contracts/Auction.sol\":2266:3397  function endAuction() internal {... */\n    tag_114:\n        /* \"contracts/Auction.sol\":2317:2329  auctionEnded */\n      0x05\n      0x15\n      swap1\n      sload\n      swap1\n      0x0100\n      exp\n      swap1\n      div\n      0xff\n      and\n        /* \"contracts/Auction.sol\":2316:2329  !auctionEnded */\n      iszero\n        /* \"contracts/Auction.sol\":2308:2360  require(!auctionEnded, \"La subasta ya ha terminado\") */\n      tag_152\n      jumpi\n      mload(0x40)\n      0x08c379a000000000000000000000000000000000000000000000000000000000\n      dup2\n      mstore\n      0x04\n      add\n      tag_153\n      swap1\n      tag_154\n      jump\t// in\n    tag_153:\n      mload(0x40)\n      dup1\n      swap2\n      sub\n      swap1\n      revert\n    tag_152:\n        /* \"contracts/Auction.sol\":2386:2390  true */\n      0x01\n        /* \"contracts/Auction.sol\":2371:2383  auctionEnded */\n      0x05\n      0x15\n        /* \"contracts/Auction.sol\":2371:2390  auctionEnded = true */\n      0x0100\n      exp\n      dup2\n      sload\n      dup2\n      0xff\n      mul\n      not\n      and\n      swap1\n      dup4\n      iszero\n      iszero\n      mul\n      or\n      swap1\n      sstore\n      pop\n        /* \"contracts/Auction.sol\":2401:2415  uint8 minValue */\n      0x00\n        /* \"contracts/Auction.sol\":2418:2428  maximumBid */\n      immutable(\"0x188e5a5b71233ee092fd8df209d4e7ce875dc9914c3b80c1ca11c66b0a19f684\")\n        /* \"contracts/Auction.sol\":2401:2428  uint8 minValue = maximumBid */\n      swap1\n      pop\n        /* \"contracts/Auction.sol\":2439:2459  uint8 secondMinValue */\n      0x00\n        /* \"contracts/Auction.sol\":2462:2472  maximumBid */\n      immutable(\"0x188e5a5b71233ee092fd8df209d4e7ce875dc9914c3b80c1ca11c66b0a19f684\")\n        /* \"contracts/Auction.sol\":2439:2472  uint8 secondMinValue = maximumBid */\n      swap1\n      pop\n        /* \"contracts/Auction.sol\":2506:2507  0 */\n      0x00\n        /* \"contracts/Auction.sol\":2486:2495  suppliers */\n      0x03\n        /* \"contracts/Auction.sol\":2486:2502  suppliers.length */\n      dup1\n      sload\n      swap1\n      pop\n        /* \"contracts/Auction.sol\":2486:2507  suppliers.length == 0 */\n      sub\n        /* \"contracts/Auction.sol\":2483:3390  if(suppliers.length == 0) {... */\n      iszero\n      tag_156\n      jumpi\n        /* \"contracts/Auction.sol\":2551:2552  1 */\n      0x01\n        /* \"contracts/Auction.sol\":2531:2540  suppliers */\n      0x03\n        /* \"contracts/Auction.sol\":2531:2547  suppliers.length */\n      dup1\n      sload\n      swap1\n      pop\n        /* \"contracts/Auction.sol\":2531:2552  suppliers.length == 1 */\n      sub\n        /* \"contracts/Auction.sol\":2527:3390  if (suppliers.length == 1) {... */\n      tag_157\n      jumpi\n        /* \"contracts/Auction.sol\":2588:2597  suppliers */\n      0x03\n        /* \"contracts/Auction.sol\":2598:2599  0 */\n      0x00\n        /* \"contracts/Auction.sol\":2588:2600  suppliers[0] */\n      dup2\n      sload\n      dup2\n      lt\n      tag_158\n      jumpi\n      tag_159\n      tag_160\n      jump\t// in\n    tag_159:\n    tag_158:\n      swap1\n      0x00\n      mstore\n      keccak256(0x00, 0x20)\n      add\n      0x00\n      swap1\n      sload\n      swap1\n      0x0100\n      exp\n      swap1\n      div\n      0xffffffffffffffffffffffffffffffffffffffff\n      and\n        /* \"contracts/Auction.sol\":2569:2585  supplierSelected */\n      0x05\n      0x00\n        /* \"contracts/Auction.sol\":2569:2600  supplierSelected = suppliers[0] */\n      0x0100\n      exp\n      dup2\n      sload\n      dup2\n      0xffffffffffffffffffffffffffffffffffffffff\n      mul\n      not\n      and\n      swap1\n      dup4\n      0xffffffffffffffffffffffffffffffffffffffff\n      and\n      mul\n      or\n      swap1\n      sstore\n      pop\n        /* \"contracts/Auction.sol\":2631:2645  bidPerSupplier */\n      0x01\n        /* \"contracts/Auction.sol\":2631:2663  bidPerSupplier[supplierSelected] */\n      0x00\n        /* \"contracts/Auction.sol\":2646:2662  supplierSelected */\n      0x05\n      0x00\n      swap1\n      sload\n      swap1\n      0x0100\n      exp\n      swap1\n      div\n      0xffffffffffffffffffffffffffffffffffffffff\n      and\n        /* \"contracts/Auction.sol\":2631:2663  bidPerSupplier[supplierSelected] */\n      0xffffffffffffffffffffffffffffffffffffffff\n      and\n      0xffffffffffffffffffffffffffffffffffffffff\n      and\n      dup2\n      mstore\n      0x20\n      add\n      swap1\n      dup2\n      mstore\n      0x20\n      add\n      0x00\n      keccak256\n      0x00\n      swap1\n      sload\n      swap1\n      0x0100\n      exp\n      swap1\n      div\n      0xff\n      and\n        /* \"contracts/Auction.sol\":2615:2628  quantityToPay */\n      0x05\n      0x14\n        /* \"contracts/Auction.sol\":2615:2663  quantityToPay = bidPerSupplier[supplierSelected] */\n      0x0100\n      exp\n      dup2\n      sload\n      dup2\n      0xff\n      mul\n      not\n      and\n      swap1\n      dup4\n      0xff\n      and\n      mul\n      or\n      swap1\n      sstore\n      pop\n        /* \"contracts/Auction.sol\":2527:3390  if (suppliers.length == 1) {... */\n      jump(tag_162)\n    tag_157:\n        /* \"contracts/Auction.sol\":2696:2707  uint256 len */\n      0x00\n        /* \"contracts/Auction.sol\":2710:2719  suppliers */\n      0x03\n        /* \"contracts/Auction.sol\":2710:2726  suppliers.length */\n      dup1\n      sload\n      swap1\n      pop\n        /* \"contracts/Auction.sol\":2696:2726  uint256 len = suppliers.length */\n      swap1\n      pop\n        /* \"contracts/Auction.sol\":2786:2795  uint256 i */\n      0x00\n        /* \"contracts/Auction.sol\":2798:2799  0 */\n      0x00\n        /* \"contracts/Auction.sol\":2786:2799  uint256 i = 0 */\n      swap1\n      pop\n        /* \"contracts/Auction.sol\":2781:3337  for (uint256 i = 0; i < len; i++) {... */\n    tag_163:\n        /* \"contracts/Auction.sol\":2805:2808  len */\n      dup2\n        /* \"contracts/Auction.sol\":2801:2802  i */\n      dup2\n        /* \"contracts/Auction.sol\":2801:2808  i < len */\n      lt\n        /* \"contracts/Auction.sol\":2781:3337  for (uint256 i = 0; i < len; i++) {... */\n      iszero\n      tag_164\n      jumpi\n        /* \"contracts/Auction.sol\":2834:2848  uint8 bidPayed */\n      0x00\n        /* \"contracts/Auction.sol\":2851:2865  bidPerSupplier */\n      0x01\n        /* \"contracts/Auction.sol\":2851:2879  bidPerSupplier[suppliers[i]] */\n      0x00\n        /* \"contracts/Auction.sol\":2866:2875  suppliers */\n      0x03\n        /* \"contracts/Auction.sol\":2876:2877  i */\n      dup5\n        /* \"contracts/Auction.sol\":2866:2878  suppliers[i] */\n      dup2\n      sload\n      dup2\n      lt\n      tag_166\n      jumpi\n      tag_167\n      tag_160\n      jump\t// in\n    tag_167:\n    tag_166:\n      swap1\n      0x00\n      mstore\n      keccak256(0x00, 0x20)\n      add\n      0x00\n      swap1\n      sload\n      swap1\n      0x0100\n      exp\n      swap1\n      div\n      0xffffffffffffffffffffffffffffffffffffffff\n      and\n        /* \"contracts/Auction.sol\":2851:2879  bidPerSupplier[suppliers[i]] */\n      0xffffffffffffffffffffffffffffffffffffffff\n      and\n      0xffffffffffffffffffffffffffffffffffffffff\n      and\n      dup2\n      mstore\n      0x20\n      add\n      swap1\n      dup2\n      mstore\n      0x20\n      add\n      0x00\n      keccak256\n      0x00\n      swap1\n      sload\n      swap1\n      0x0100\n      exp\n      swap1\n      div\n      0xff\n      and\n        /* \"contracts/Auction.sol\":2834:2879  uint8 bidPayed = bidPerSupplier[suppliers[i]] */\n      swap1\n      pop\n        /* \"contracts/Auction.sol\":2913:2921  minValue */\n      dup5\n        /* \"contracts/Auction.sol\":2902:2921  bidPayed < minValue */\n      0xff\n      and\n        /* \"contracts/Auction.sol\":2902:2910  bidPayed */\n      dup2\n        /* \"contracts/Auction.sol\":2902:2921  bidPayed < minValue */\n      0xff\n      and\n      lt\n        /* \"contracts/Auction.sol\":2898:3322  if (bidPayed < minValue) {... */\n      iszero\n      tag_169\n      jumpi\n        /* \"contracts/Auction.sol\":2963:2971  minValue */\n      dup5\n        /* \"contracts/Auction.sol\":2946:2971  secondMinValue = minValue */\n      swap4\n      pop\n        /* \"contracts/Auction.sol\":3005:3013  bidPayed */\n      dup1\n        /* \"contracts/Auction.sol\":2994:3013  minValue = bidPayed */\n      swap5\n      pop\n        /* \"contracts/Auction.sol\":3055:3064  suppliers */\n      0x03\n        /* \"contracts/Auction.sol\":3065:3066  i */\n      dup3\n        /* \"contracts/Auction.sol\":3055:3067  suppliers[i] */\n      dup2\n      sload\n      dup2\n      lt\n      tag_170\n      jumpi\n      tag_171\n      tag_160\n      jump\t// in\n    tag_171:\n    tag_170:\n      swap1\n      0x00\n      mstore\n      keccak256(0x00, 0x20)\n      add\n      0x00\n      swap1\n      sload\n      swap1\n      0x0100\n      exp\n      swap1\n      div\n      0xffffffffffffffffffffffffffffffffffffffff\n      and\n        /* \"contracts/Auction.sol\":3036:3052  supplierSelected */\n      0x05\n      0x00\n        /* \"contracts/Auction.sol\":3036:3067  supplierSelected = suppliers[i] */\n      0x0100\n      exp\n      dup2\n      sload\n      dup2\n      0xffffffffffffffffffffffffffffffffffffffff\n      mul\n      not\n      and\n      swap1\n      dup4\n      0xffffffffffffffffffffffffffffffffffffffff\n      and\n      mul\n      or\n      swap1\n      sstore\n      pop\n        /* \"contracts/Auction.sol\":3106:3120  secondMinValue */\n      dup4\n        /* \"contracts/Auction.sol\":3090:3103  quantityToPay */\n      0x05\n      0x14\n        /* \"contracts/Auction.sol\":3090:3120  quantityToPay = secondMinValue */\n      0x0100\n      exp\n      dup2\n      sload\n      dup2\n      0xff\n      mul\n      not\n      and\n      swap1\n      dup4\n      0xff\n      and\n      mul\n      or\n      swap1\n      sstore\n      pop\n        /* \"contracts/Auction.sol\":2898:3322  if (bidPayed < minValue) {... */\n      jump(tag_173)\n    tag_169:\n        /* \"contracts/Auction.sol\":3161:3175  secondMinValue */\n      dup4\n        /* \"contracts/Auction.sol\":3150:3175  bidPayed < secondMinValue */\n      0xff\n      and\n        /* \"contracts/Auction.sol\":3150:3158  bidPayed */\n      dup2\n        /* \"contracts/Auction.sol\":3150:3175  bidPayed < secondMinValue */\n      0xff\n      and\n      lt\n        /* \"contracts/Auction.sol\":3150:3199  bidPayed < secondMinValue && bidPayed != minValue */\n      dup1\n      iszero\n      tag_174\n      jumpi\n      pop\n        /* \"contracts/Auction.sol\":3191:3199  minValue */\n      dup5\n        /* \"contracts/Auction.sol\":3179:3199  bidPayed != minValue */\n      0xff\n      and\n        /* \"contracts/Auction.sol\":3179:3187  bidPayed */\n      dup2\n        /* \"contracts/Auction.sol\":3179:3199  bidPayed != minValue */\n      0xff\n      and\n      eq\n      iszero\n        /* \"contracts/Auction.sol\":3150:3199  bidPayed < secondMinValue && bidPayed != minValue */\n    tag_174:\n        /* \"contracts/Auction.sol\":3146:3322  if (bidPayed < secondMinValue && bidPayed != minValue) {... */\n      iszero\n      tag_175\n      jumpi\n        /* \"contracts/Auction.sol\":3241:3249  bidPayed */\n      dup1\n        /* \"contracts/Auction.sol\":3224:3249  secondMinValue = bidPayed */\n      swap4\n      pop\n        /* \"contracts/Auction.sol\":3288:3302  secondMinValue */\n      dup4\n        /* \"contracts/Auction.sol\":3272:3285  quantityToPay */\n      0x05\n      0x14\n        /* \"contracts/Auction.sol\":3272:3302  quantityToPay = secondMinValue */\n      0x0100\n      exp\n      dup2\n      sload\n      dup2\n      0xff\n      mul\n      not\n      and\n      swap1\n      dup4\n      0xff\n      and\n      mul\n      or\n      swap1\n      sstore\n      pop\n        /* \"contracts/Auction.sol\":3146:3322  if (bidPayed < secondMinValue && bidPayed != minValue) {... */\n    tag_175:\n        /* \"contracts/Auction.sol\":2898:3322  if (bidPayed < minValue) {... */\n    tag_173:\n        /* \"contracts/Auction.sol\":2815:3337  {... */\n      pop\n        /* \"contracts/Auction.sol\":2810:2813  i++ */\n      dup1\n      dup1\n      0x01\n      add\n      swap2\n      pop\n      pop\n        /* \"contracts/Auction.sol\":2781:3337  for (uint256 i = 0; i < len; i++) {... */\n      jump(tag_163)\n    tag_164:\n      pop\n        /* \"contracts/Auction.sol\":3351:3378  refundDepositParticipants() */\n      tag_176\n        /* \"contracts/Auction.sol\":3351:3376  refundDepositParticipants */\n      tag_177\n        /* \"contracts/Auction.sol\":3351:3378  refundDepositParticipants() */\n      jump\t// in\n    tag_176:\n        /* \"contracts/Auction.sol\":2681:3390  {... */\n      pop\n        /* \"contracts/Auction.sol\":2527:3390  if (suppliers.length == 1) {... */\n    tag_162:\n        /* \"contracts/Auction.sol\":2483:3390  if(suppliers.length == 0) {... */\n    tag_156:\n        /* \"contracts/Auction.sol\":2297:3397  {... */\n      pop\n      pop\n        /* \"contracts/Auction.sol\":2266:3397  function endAuction() internal {... */\n      jump\t// out\n        /* \"contracts/Auction.sol\":3454:4195  function refundDepositParticipants() internal nonReentrant { ... */\n    tag_177:\n        /* \"@openzeppelin/contracts/utils/ReentrancyGuard.sol\":3023:3044  _nonReentrantBefore() */\n      tag_179\n        /* \"@openzeppelin/contracts/utils/ReentrancyGuard.sol\":3023:3042  _nonReentrantBefore */\n      tag_180\n        /* \"@openzeppelin/contracts/utils/ReentrancyGuard.sol\":3023:3044  _nonReentrantBefore() */\n      jump\t// in\n    tag_179:\n        /* \"contracts/Auction.sol\":3533:3545  auctionEnded */\n      0x05\n      0x15\n      swap1\n      sload\n      swap1\n      0x0100\n      exp\n      swap1\n      div\n      0xff\n      and\n        /* \"contracts/Auction.sol\":3525:3576  require(auctionEnded, \"La subasta no ha terminado\") */\n      tag_182\n      jumpi\n      mload(0x40)\n      0x08c379a000000000000000000000000000000000000000000000000000000000\n      dup2\n      mstore\n      0x04\n      add\n      tag_183\n      swap1\n      tag_75\n      jump\t// in\n    tag_183:\n      mload(0x40)\n      dup1\n      swap2\n      sub\n      swap1\n      revert\n    tag_182:\n        /* \"contracts/Auction.sol\":3597:3608  uint256 len */\n      0x00\n        /* \"contracts/Auction.sol\":3611:3620  suppliers */\n      0x03\n        /* \"contracts/Auction.sol\":3611:3627  suppliers.length */\n      dup1\n      sload\n      swap1\n      pop\n        /* \"contracts/Auction.sol\":3597:3627  uint256 len = suppliers.length */\n      swap1\n      pop\n        /* \"contracts/Auction.sol\":3683:3692  uint256 i */\n      0x00\n        /* \"contracts/Auction.sol\":3695:3696  0 */\n      0x00\n        /* \"contracts/Auction.sol\":3683:3696  uint256 i = 0 */\n      swap1\n      pop\n        /* \"contracts/Auction.sol\":3678:4188  for (uint256 i = 0; i < len; i++) {... */\n    tag_184:\n        /* \"contracts/Auction.sol\":3702:3705  len */\n      dup2\n        /* \"contracts/Auction.sol\":3698:3699  i */\n      dup2\n        /* \"contracts/Auction.sol\":3698:3705  i < len */\n      lt\n        /* \"contracts/Auction.sol\":3678:4188  for (uint256 i = 0; i < len; i++) {... */\n      iszero\n      tag_185\n      jumpi\n        /* \"contracts/Auction.sol\":3727:3751  address payable supplier */\n      0x00\n        /* \"contracts/Auction.sol\":3762:3771  suppliers */\n      0x03\n        /* \"contracts/Auction.sol\":3772:3773  i */\n      dup3\n        /* \"contracts/Auction.sol\":3762:3774  suppliers[i] */\n      dup2\n      sload\n      dup2\n      lt\n      tag_187\n      jumpi\n      tag_188\n      tag_160\n      jump\t// in\n    tag_188:\n    tag_187:\n      swap1\n      0x00\n      mstore\n      keccak256(0x00, 0x20)\n      add\n      0x00\n      swap1\n      sload\n      swap1\n      0x0100\n      exp\n      swap1\n      div\n      0xffffffffffffffffffffffffffffffffffffffff\n      and\n        /* \"contracts/Auction.sol\":3727:3775  address payable supplier = payable(suppliers[i]) */\n      swap1\n      pop\n        /* \"contracts/Auction.sol\":3820:3836  supplierSelected */\n      0x05\n      0x00\n      swap1\n      sload\n      swap1\n      0x0100\n      exp\n      swap1\n      div\n      0xffffffffffffffffffffffffffffffffffffffff\n      and\n        /* \"contracts/Auction.sol\":3808:3836  supplier != supplierSelected */\n      0xffffffffffffffffffffffffffffffffffffffff\n      and\n        /* \"contracts/Auction.sol\":3808:3816  supplier */\n      dup2\n        /* \"contracts/Auction.sol\":3808:3836  supplier != supplierSelected */\n      0xffffffffffffffffffffffffffffffffffffffff\n      and\n      eq\n        /* \"contracts/Auction.sol\":3804:4177  if (supplier != supplierSelected) {... */\n      tag_190\n      jumpi\n        /* \"contracts/Auction.sol\":3857:3871  uint256 amount */\n      0x00\n        /* \"contracts/Auction.sol\":3874:3882  deposits */\n      0x02\n        /* \"contracts/Auction.sol\":3874:3892  deposits[supplier] */\n      0x00\n        /* \"contracts/Auction.sol\":3883:3891  supplier */\n      dup4\n        /* \"contracts/Auction.sol\":3874:3892  deposits[supplier] */\n      0xffffffffffffffffffffffffffffffffffffffff\n      and\n      0xffffffffffffffffffffffffffffffffffffffff\n      and\n      dup2\n      mstore\n      0x20\n      add\n      swap1\n      dup2\n      mstore\n      0x20\n      add\n      0x00\n      keccak256\n      sload\n        /* \"contracts/Auction.sol\":3857:3892  uint256 amount = deposits[supplier] */\n      swap1\n      pop\n        /* \"contracts/Auction.sol\":3942:3943  0 */\n      0x00\n        /* \"contracts/Auction.sol\":3933:3939  amount */\n      dup2\n        /* \"contracts/Auction.sol\":3933:3943  amount > 0 */\n      gt\n        /* \"contracts/Auction.sol\":3929:4162  if (amount > 0) {... */\n      iszero\n      tag_191\n      jumpi\n        /* \"contracts/Auction.sol\":3989:3990  0 */\n      0x00\n        /* \"contracts/Auction.sol\":3968:3976  deposits */\n      0x02\n        /* \"contracts/Auction.sol\":3968:3986  deposits[supplier] */\n      0x00\n        /* \"contracts/Auction.sol\":3977:3985  supplier */\n      dup5\n        /* \"contracts/Auction.sol\":3968:3986  deposits[supplier] */\n      0xffffffffffffffffffffffffffffffffffffffff\n      and\n      0xffffffffffffffffffffffffffffffffffffffff\n      and\n      dup2\n      mstore\n      0x20\n      add\n      swap1\n      dup2\n      mstore\n      0x20\n      add\n      0x00\n      keccak256\n        /* \"contracts/Auction.sol\":3968:3990  deposits[supplier] = 0 */\n      dup2\n      swap1\n      sstore\n      pop\n        /* \"contracts/Auction.sol\":4036:4045  bool sent */\n      0x00\n        /* \"contracts/Auction.sol\":4051:4059  supplier */\n      dup3\n        /* \"contracts/Auction.sol\":4051:4064  supplier.call */\n      0xffffffffffffffffffffffffffffffffffffffff\n      and\n        /* \"contracts/Auction.sol\":4072:4078  amount */\n      dup3\n        /* \"contracts/Auction.sol\":4051:4083  supplier.call{value: amount}(\"\") */\n      mload(0x40)\n      tag_192\n      swap1\n      tag_144\n      jump\t// in\n    tag_192:\n      0x00\n      mload(0x40)\n      dup1\n      dup4\n      sub\n      dup2\n      dup6\n      dup8\n      gas\n      call\n      swap3\n      pop\n      pop\n      pop\n      returndatasize\n      dup1\n      0x00\n      dup2\n      eq\n      tag_195\n      jumpi\n      mload(0x40)\n      swap2\n      pop\n      and(add(returndatasize, 0x3f), not(0x1f))\n      dup3\n      add\n      0x40\n      mstore\n      returndatasize\n      dup3\n      mstore\n      returndatasize\n      0x00\n      0x20\n      dup5\n      add\n      returndatacopy\n      jump(tag_194)\n    tag_195:\n      0x60\n      swap2\n      pop\n    tag_194:\n      pop\n        /* \"contracts/Auction.sol\":4035:4083  (bool sent, ) = supplier.call{value: amount}(\"\") */\n      pop\n      swap1\n      pop\n        /* \"contracts/Auction.sol\":4114:4118  sent */\n      dup1\n        /* \"contracts/Auction.sol\":4106:4142  require(sent, \"Fallo al enviar ETH\") */\n      tag_196\n      jumpi\n      mload(0x40)\n      0x08c379a000000000000000000000000000000000000000000000000000000000\n      dup2\n      mstore\n      0x04\n      add\n      tag_197\n      swap1\n      tag_150\n      jump\t// in\n    tag_197:\n      mload(0x40)\n      dup1\n      swap2\n      sub\n      swap1\n      revert\n    tag_196:\n        /* \"contracts/Auction.sol\":3945:4162  {... */\n      pop\n        /* \"contracts/Auction.sol\":3929:4162  if (amount > 0) {... */\n    tag_191:\n        /* \"contracts/Auction.sol\":3838:4177  {... */\n      pop\n        /* \"contracts/Auction.sol\":3804:4177  if (supplier != supplierSelected) {... */\n    tag_190:\n        /* \"contracts/Auction.sol\":3712:4188  {... */\n      pop\n        /* \"contracts/Auction.sol\":3707:3710  i++ */\n      dup1\n      dup1\n      0x01\n      add\n      swap2\n      pop\n      pop\n        /* \"contracts/Auction.sol\":3678:4188  for (uint256 i = 0; i < len; i++) {... */\n      jump(tag_184)\n    tag_185:\n      pop\n        /* \"contracts/Auction.sol\":3513:4195  { ... */\n      pop\n        /* \"@openzeppelin/contracts/utils/ReentrancyGuard.sol\":3065:3085  _nonReentrantAfter() */\n      tag_198\n        /* \"@openzeppelin/contracts/utils/ReentrancyGuard.sol\":3065:3083  _nonReentrantAfter */\n      tag_199\n        /* \"@openzeppelin/contracts/utils/ReentrancyGuard.sol\":3065:3085  _nonReentrantAfter() */\n      jump\t// in\n    tag_198:\n        /* \"contracts/Auction.sol\":3454:4195  function refundDepositParticipants() internal nonReentrant { ... */\n      jump\t// out\n        /* \"@openzeppelin/contracts/utils/ReentrancyGuard.sol\":3749:4041  function _nonReentrantBefore() private {... */\n    tag_180:\n        /* \"@openzeppelin/contracts/utils/ReentrancyGuard.sol\":3872:3897  _nonReentrantBeforeView() */\n      tag_201\n        /* \"@openzeppelin/contracts/utils/ReentrancyGuard.sol\":3872:3895  _nonReentrantBeforeView */\n      tag_202\n        /* \"@openzeppelin/contracts/utils/ReentrancyGuard.sol\":3872:3897  _nonReentrantBeforeView() */\n      jump\t// in\n    tag_201:\n        /* \"@openzeppelin/contracts/utils/ReentrancyGuard.sol\":2407:2408  2 */\n      0x02\n        /* \"@openzeppelin/contracts/utils/ReentrancyGuard.sol\":3972:4018  _reentrancyGuardStorageSlot().getUint256Slot() */\n      tag_203\n        /* \"@openzeppelin/contracts/utils/ReentrancyGuard.sol\":3972:4001  _reentrancyGuardStorageSlot() */\n      tag_204\n        /* \"@openzeppelin/contracts/utils/ReentrancyGuard.sol\":3972:3999  _reentrancyGuardStorageSlot */\n      tag_205\n        /* \"@openzeppelin/contracts/utils/ReentrancyGuard.sol\":3972:4001  _reentrancyGuardStorageSlot() */\n      jump\t// in\n    tag_204:\n        /* \"@openzeppelin/contracts/utils/ReentrancyGuard.sol\":3972:4016  _reentrancyGuardStorageSlot().getUint256Slot */\n      tag_206\n        /* \"@openzeppelin/contracts/utils/ReentrancyGuard.sol\":3972:4018  _reentrancyGuardStorageSlot().getUint256Slot() */\n      jump\t// in\n    tag_203:\n        /* \"@openzeppelin/contracts/utils/ReentrancyGuard.sol\":3972:4024  _reentrancyGuardStorageSlot().getUint256Slot().value */\n      0x00\n      add\n        /* \"@openzeppelin/contracts/utils/ReentrancyGuard.sol\":3972:4034  _reentrancyGuardStorageSlot().getUint256Slot().value = ENTERED */\n      dup2\n      swap1\n      sstore\n      pop\n        /* \"@openzeppelin/contracts/utils/ReentrancyGuard.sol\":3749:4041  function _nonReentrantBefore() private {... */\n      jump\t// out\n        /* \"@openzeppelin/contracts/utils/ReentrancyGuard.sol\":4047:4300  function _nonReentrantAfter() private {... */\n    tag_199:\n        /* \"@openzeppelin/contracts/utils/ReentrancyGuard.sol\":2365:2366  1 */\n      0x01\n        /* \"@openzeppelin/contracts/utils/ReentrancyGuard.sol\":4227:4273  _reentrancyGuardStorageSlot().getUint256Slot() */\n      tag_208\n        /* \"@openzeppelin/contracts/utils/ReentrancyGuard.sol\":4227:4256  _reentrancyGuardStorageSlot() */\n      tag_209\n        /* \"@openzeppelin/contracts/utils/ReentrancyGuard.sol\":4227:4254  _reentrancyGuardStorageSlot */\n      tag_205\n        /* \"@openzeppelin/contracts/utils/ReentrancyGuard.sol\":4227:4256  _reentrancyGuardStorageSlot() */\n      jump\t// in\n    tag_209:\n        /* \"@openzeppelin/contracts/utils/ReentrancyGuard.sol\":4227:4271  _reentrancyGuardStorageSlot().getUint256Slot */\n      tag_206\n        /* \"@openzeppelin/contracts/utils/ReentrancyGuard.sol\":4227:4273  _reentrancyGuardStorageSlot().getUint256Slot() */\n      jump\t// in\n    tag_208:\n        /* \"@openzeppelin/contracts/utils/ReentrancyGuard.sol\":4227:4279  _reentrancyGuardStorageSlot().getUint256Slot().value */\n      0x00\n      add\n        /* \"@openzeppelin/contracts/utils/ReentrancyGuard.sol\":4227:4293  _reentrancyGuardStorageSlot().getUint256Slot().value = NOT_ENTERED */\n      dup2\n      swap1\n      sstore\n      pop\n        /* \"@openzeppelin/contracts/utils/ReentrancyGuard.sol\":4047:4300  function _nonReentrantAfter() private {... */\n      jump\t// out\n        /* \"@openzeppelin/contracts/utils/ReentrancyGuard.sol\":3586:3743  function _nonReentrantBeforeView() private view {... */\n    tag_202:\n        /* \"@openzeppelin/contracts/utils/ReentrancyGuard.sol\":3648:3673  _reentrancyGuardEntered() */\n      tag_211\n        /* \"@openzeppelin/contracts/utils/ReentrancyGuard.sol\":3648:3671  _reentrancyGuardEntered */\n      tag_212\n        /* \"@openzeppelin/contracts/utils/ReentrancyGuard.sol\":3648:3673  _reentrancyGuardEntered() */\n      jump\t// in\n    tag_211:\n        /* \"@openzeppelin/contracts/utils/ReentrancyGuard.sol\":3644:3737  if (_reentrancyGuardEntered()) {... */\n      iszero\n      tag_213\n      jumpi\n        /* \"@openzeppelin/contracts/utils/ReentrancyGuard.sol\":3696:3726  ReentrancyGuardReentrantCall() */\n      mload(0x40)\n      0x3ee5aeb500000000000000000000000000000000000000000000000000000000\n      dup2\n      mstore\n      0x04\n      add\n      mload(0x40)\n      dup1\n      swap2\n      sub\n      swap1\n      revert\n        /* \"@openzeppelin/contracts/utils/ReentrancyGuard.sol\":3644:3737  if (_reentrancyGuardEntered()) {... */\n    tag_213:\n        /* \"@openzeppelin/contracts/utils/ReentrancyGuard.sol\":3586:3743  function _nonReentrantBeforeView() private view {... */\n      jump\t// out\n        /* \"@openzeppelin/contracts/utils/ReentrancyGuard.sol\":4636:4763  function _reentrancyGuardStorageSlot() internal pure virtual returns (bytes32) {... */\n    tag_205:\n        /* \"@openzeppelin/contracts/utils/ReentrancyGuard.sol\":4706:4713  bytes32 */\n      0x00\n        /* \"@openzeppelin/contracts/utils/ReentrancyGuard.sol\":1505:1571  0x9b779b17422d0df92223018b32b4d1fa46e071723d6817e2486d003becc55f00 */\n      0x9b779b17422d0df92223018b32b4d1fa46e071723d6817e2486d003becc55f00\n        /* \"@openzeppelin/contracts/utils/ReentrancyGuard.sol\":4732:4756  REENTRANCY_GUARD_STORAGE */\n      0x00\n      shl\n        /* \"@openzeppelin/contracts/utils/ReentrancyGuard.sol\":4725:4756  return REENTRANCY_GUARD_STORAGE */\n      swap1\n      pop\n        /* \"@openzeppelin/contracts/utils/ReentrancyGuard.sol\":4636:4763  function _reentrancyGuardStorageSlot() internal pure virtual returns (bytes32) {... */\n      swap1\n      jump\t// out\n        /* \"@openzeppelin/contracts/utils/StorageSlot.sol\":2679:2842  function getUint256Slot(bytes32 slot) internal pure returns (Uint256Slot storage r) {... */\n    tag_206:\n        /* \"@openzeppelin/contracts/utils/StorageSlot.sol\":2740:2761  Uint256Slot storage r */\n      0x00\n        /* \"@openzeppelin/contracts/utils/StorageSlot.sol\":2822:2826  slot */\n      dup2\n        /* \"@openzeppelin/contracts/utils/StorageSlot.sol\":2812:2826  r.slot := slot */\n      swap1\n      pop\n        /* \"@openzeppelin/contracts/utils/StorageSlot.sol\":2679:2842  function getUint256Slot(bytes32 slot) internal pure returns (Uint256Slot storage r) {... */\n      swap2\n      swap1\n      pop\n      jump\t// out\n        /* \"@openzeppelin/contracts/utils/ReentrancyGuard.sol\":4479:4630  function _reentrancyGuardEntered() internal view returns (bool) {... */\n    tag_212:\n        /* \"@openzeppelin/contracts/utils/ReentrancyGuard.sol\":4537:4541  bool */\n      0x00\n        /* \"@openzeppelin/contracts/utils/ReentrancyGuard.sol\":2407:2408  2 */\n      0x02\n        /* \"@openzeppelin/contracts/utils/ReentrancyGuard.sol\":4560:4606  _reentrancyGuardStorageSlot().getUint256Slot() */\n      tag_217\n        /* \"@openzeppelin/contracts/utils/ReentrancyGuard.sol\":4560:4589  _reentrancyGuardStorageSlot() */\n      tag_218\n        /* \"@openzeppelin/contracts/utils/ReentrancyGuard.sol\":4560:4587  _reentrancyGuardStorageSlot */\n      tag_205\n        /* \"@openzeppelin/contracts/utils/ReentrancyGuard.sol\":4560:4589  _reentrancyGuardStorageSlot() */\n      jump\t// in\n    tag_218:\n        /* \"@openzeppelin/contracts/utils/ReentrancyGuard.sol\":4560:4604  _reentrancyGuardStorageSlot().getUint256Slot */\n      tag_206\n        /* \"@openzeppelin/contracts/utils/ReentrancyGuard.sol\":4560:4606  _reentrancyGuardStorageSlot().getUint256Slot() */\n      jump\t// in\n    tag_217:\n        /* \"@openzeppelin/contracts/utils/ReentrancyGuard.sol\":4560:4612  _reentrancyGuardStorageSlot().getUint256Slot().value */\n      0x00\n      add\n      sload\n        /* \"@openzeppelin/contracts/utils/ReentrancyGuard.sol\":4560:4623  _reentrancyGuardStorageSlot().getUint256Slot().value == ENTERED */\n      eq\n        /* \"@openzeppelin/contracts/utils/ReentrancyGuard.sol\":4553:4623  return _reentrancyGuardStorageSlot().getUint256Slot().value == ENTERED */\n      swap1\n      pop\n        /* \"@openzeppelin/contracts/utils/ReentrancyGuard.sol\":4479:4630  function _reentrancyGuardEntered() internal view returns (bool) {... */\n      swap1\n      jump\t// out\n        /* \"#utility.yul\":7:93   */\n    tag_219:\n        /* \"#utility.yul\":42:49   */\n      0x00\n        /* \"#utility.yul\":82:86   */\n      0xff\n        /* \"#utility.yul\":75:80   */\n      dup3\n        /* \"#utility.yul\":71:87   */\n      and\n        /* \"#utility.yul\":60:87   */\n      swap1\n      pop\n        /* \"#utility.yul\":7:93   */\n      swap2\n      swap1\n      pop\n      jump\t// out\n        /* \"#utility.yul\":99:211   */\n    tag_220:\n        /* \"#utility.yul\":182:204   */\n      tag_287\n        /* \"#utility.yul\":198:203   */\n      dup2\n        /* \"#utility.yul\":182:204   */\n      tag_219\n      jump\t// in\n    tag_287:\n        /* \"#utility.yul\":177:180   */\n      dup3\n        /* \"#utility.yul\":170:205   */\n      mstore\n        /* \"#utility.yul\":99:211   */\n      pop\n      pop\n      jump\t// out\n        /* \"#utility.yul\":217:431   */\n    tag_24:\n        /* \"#utility.yul\":306:310   */\n      0x00\n        /* \"#utility.yul\":344:346   */\n      0x20\n        /* \"#utility.yul\":333:342   */\n      dup3\n        /* \"#utility.yul\":329:347   */\n      add\n        /* \"#utility.yul\":321:347   */\n      swap1\n      pop\n        /* \"#utility.yul\":357:424   */\n      tag_289\n        /* \"#utility.yul\":421:422   */\n      0x00\n        /* \"#utility.yul\":410:419   */\n      dup4\n        /* \"#utility.yul\":406:423   */\n      add\n        /* \"#utility.yul\":397:403   */\n      dup5\n        /* \"#utility.yul\":357:424   */\n      tag_220\n      jump\t// in\n    tag_289:\n        /* \"#utility.yul\":217:431   */\n      swap3\n      swap2\n      pop\n      pop\n      jump\t// out\n        /* \"#utility.yul\":437:563   */\n    tag_221:\n        /* \"#utility.yul\":474:481   */\n      0x00\n        /* \"#utility.yul\":514:556   */\n      0xffffffffffffffffffffffffffffffffffffffff\n        /* \"#utility.yul\":507:512   */\n      dup3\n        /* \"#utility.yul\":503:557   */\n      and\n        /* \"#utility.yul\":492:557   */\n      swap1\n      pop\n        /* \"#utility.yul\":437:563   */\n      swap2\n      swap1\n      pop\n      jump\t// out\n        /* \"#utility.yul\":569:665   */\n    tag_222:\n        /* \"#utility.yul\":606:613   */\n      0x00\n        /* \"#utility.yul\":635:659   */\n      tag_292\n        /* \"#utility.yul\":653:658   */\n      dup3\n        /* \"#utility.yul\":635:659   */\n      tag_221\n      jump\t// in\n    tag_292:\n        /* \"#utility.yul\":624:659   */\n      swap1\n      pop\n        /* \"#utility.yul\":569:665   */\n      swap2\n      swap1\n      pop\n      jump\t// out\n        /* \"#utility.yul\":671:789   */\n    tag_223:\n        /* \"#utility.yul\":758:782   */\n      tag_294\n        /* \"#utility.yul\":776:781   */\n      dup2\n        /* \"#utility.yul\":758:782   */\n      tag_222\n      jump\t// in\n    tag_294:\n        /* \"#utility.yul\":753:756   */\n      dup3\n        /* \"#utility.yul\":746:783   */\n      mstore\n        /* \"#utility.yul\":671:789   */\n      pop\n      pop\n      jump\t// out\n        /* \"#utility.yul\":795:1017   */\n    tag_29:\n        /* \"#utility.yul\":888:892   */\n      0x00\n        /* \"#utility.yul\":926:928   */\n      0x20\n        /* \"#utility.yul\":915:924   */\n      dup3\n        /* \"#utility.yul\":911:929   */\n      add\n        /* \"#utility.yul\":903:929   */\n      swap1\n      pop\n        /* \"#utility.yul\":939:1010   */\n      tag_296\n        /* \"#utility.yul\":1007:1008   */\n      0x00\n        /* \"#utility.yul\":996:1005   */\n      dup4\n        /* \"#utility.yul\":992:1009   */\n      add\n        /* \"#utility.yul\":983:989   */\n      dup5\n        /* \"#utility.yul\":939:1010   */\n      tag_223\n      jump\t// in\n    tag_296:\n        /* \"#utility.yul\":795:1017   */\n      swap3\n      swap2\n      pop\n      pop\n      jump\t// out\n        /* \"#utility.yul\":1104:1221   */\n    tag_225:\n        /* \"#utility.yul\":1213:1214   */\n      0x00\n        /* \"#utility.yul\":1210:1211   */\n      0x00\n        /* \"#utility.yul\":1203:1215   */\n      revert\n        /* \"#utility.yul\":1350:1468   */\n    tag_227:\n        /* \"#utility.yul\":1421:1443   */\n      tag_301\n        /* \"#utility.yul\":1437:1442   */\n      dup2\n        /* \"#utility.yul\":1421:1443   */\n      tag_219\n      jump\t// in\n    tag_301:\n        /* \"#utility.yul\":1414:1419   */\n      dup2\n        /* \"#utility.yul\":1411:1444   */\n      eq\n        /* \"#utility.yul\":1401:1462   */\n      tag_302\n      jumpi\n        /* \"#utility.yul\":1458:1459   */\n      0x00\n        /* \"#utility.yul\":1455:1456   */\n      0x00\n        /* \"#utility.yul\":1448:1460   */\n      revert\n        /* \"#utility.yul\":1401:1462   */\n    tag_302:\n        /* \"#utility.yul\":1350:1468   */\n      pop\n      jump\t// out\n        /* \"#utility.yul\":1474:1609   */\n    tag_228:\n        /* \"#utility.yul\":1518:1523   */\n      0x00\n        /* \"#utility.yul\":1556:1562   */\n      dup2\n        /* \"#utility.yul\":1543:1563   */\n      calldataload\n        /* \"#utility.yul\":1534:1563   */\n      swap1\n      pop\n        /* \"#utility.yul\":1572:1603   */\n      tag_304\n        /* \"#utility.yul\":1597:1602   */\n      dup2\n        /* \"#utility.yul\":1572:1603   */\n      tag_227\n      jump\t// in\n    tag_304:\n        /* \"#utility.yul\":1474:1609   */\n      swap3\n      swap2\n      pop\n      pop\n      jump\t// out\n        /* \"#utility.yul\":1615:1940   */\n    tag_32:\n        /* \"#utility.yul\":1672:1678   */\n      0x00\n        /* \"#utility.yul\":1721:1723   */\n      0x20\n        /* \"#utility.yul\":1709:1718   */\n      dup3\n        /* \"#utility.yul\":1700:1707   */\n      dup5\n        /* \"#utility.yul\":1696:1719   */\n      sub\n        /* \"#utility.yul\":1692:1724   */\n      slt\n        /* \"#utility.yul\":1689:1808   */\n      iszero\n      tag_306\n      jumpi\n        /* \"#utility.yul\":1727:1806   */\n      tag_307\n      tag_225\n      jump\t// in\n    tag_307:\n        /* \"#utility.yul\":1689:1808   */\n    tag_306:\n        /* \"#utility.yul\":1847:1848   */\n      0x00\n        /* \"#utility.yul\":1872:1923   */\n      tag_308\n        /* \"#utility.yul\":1915:1922   */\n      dup5\n        /* \"#utility.yul\":1906:1912   */\n      dup3\n        /* \"#utility.yul\":1895:1904   */\n      dup6\n        /* \"#utility.yul\":1891:1913   */\n      add\n        /* \"#utility.yul\":1872:1923   */\n      tag_228\n      jump\t// in\n    tag_308:\n        /* \"#utility.yul\":1862:1923   */\n      swap2\n      pop\n        /* \"#utility.yul\":1818:1933   */\n      pop\n        /* \"#utility.yul\":1615:1940   */\n      swap3\n      swap2\n      pop\n      pop\n      jump\t// out\n        /* \"#utility.yul\":1946:2060   */\n    tag_229:\n        /* \"#utility.yul\":2013:2019   */\n      0x00\n        /* \"#utility.yul\":2047:2052   */\n      dup2\n        /* \"#utility.yul\":2041:2053   */\n      mload\n        /* \"#utility.yul\":2031:2053   */\n      swap1\n      pop\n        /* \"#utility.yul\":1946:2060   */\n      swap2\n      swap1\n      pop\n      jump\t// out\n        /* \"#utility.yul\":2066:2250   */\n    tag_230:\n        /* \"#utility.yul\":2165:2176   */\n      0x00\n        /* \"#utility.yul\":2199:2205   */\n      dup3\n        /* \"#utility.yul\":2194:2197   */\n      dup3\n        /* \"#utility.yul\":2187:2206   */\n      mstore\n        /* \"#utility.yul\":2239:2243   */\n      0x20\n        /* \"#utility.yul\":2234:2237   */\n      dup3\n        /* \"#utility.yul\":2230:2244   */\n      add\n        /* \"#utility.yul\":2215:2244   */\n      swap1\n      pop\n        /* \"#utility.yul\":2066:2250   */\n      swap3\n      swap2\n      pop\n      pop\n      jump\t// out\n        /* \"#utility.yul\":2256:2388   */\n    tag_231:\n        /* \"#utility.yul\":2323:2327   */\n      0x00\n        /* \"#utility.yul\":2346:2349   */\n      dup2\n        /* \"#utility.yul\":2338:2349   */\n      swap1\n      pop\n        /* \"#utility.yul\":2376:2380   */\n      0x20\n        /* \"#utility.yul\":2371:2374   */\n      dup3\n        /* \"#utility.yul\":2367:2381   */\n      add\n        /* \"#utility.yul\":2359:2381   */\n      swap1\n      pop\n        /* \"#utility.yul\":2256:2388   */\n      swap2\n      swap1\n      pop\n      jump\t// out\n        /* \"#utility.yul\":2394:2502   */\n    tag_232:\n        /* \"#utility.yul\":2471:2495   */\n      tag_313\n        /* \"#utility.yul\":2489:2494   */\n      dup2\n        /* \"#utility.yul\":2471:2495   */\n      tag_222\n      jump\t// in\n    tag_313:\n        /* \"#utility.yul\":2466:2469   */\n      dup3\n        /* \"#utility.yul\":2459:2496   */\n      mstore\n        /* \"#utility.yul\":2394:2502   */\n      pop\n      pop\n      jump\t// out\n        /* \"#utility.yul\":2508:2687   */\n    tag_233:\n        /* \"#utility.yul\":2577:2587   */\n      0x00\n        /* \"#utility.yul\":2598:2644   */\n      tag_315\n        /* \"#utility.yul\":2640:2643   */\n      dup4\n        /* \"#utility.yul\":2632:2638   */\n      dup4\n        /* \"#utility.yul\":2598:2644   */\n      tag_232\n      jump\t// in\n    tag_315:\n        /* \"#utility.yul\":2676:2680   */\n      0x20\n        /* \"#utility.yul\":2671:2674   */\n      dup4\n        /* \"#utility.yul\":2667:2681   */\n      add\n        /* \"#utility.yul\":2653:2681   */\n      swap1\n      pop\n        /* \"#utility.yul\":2508:2687   */\n      swap3\n      swap2\n      pop\n      pop\n      jump\t// out\n        /* \"#utility.yul\":2693:2806   */\n    tag_234:\n        /* \"#utility.yul\":2763:2767   */\n      0x00\n        /* \"#utility.yul\":2795:2799   */\n      0x20\n        /* \"#utility.yul\":2790:2793   */\n      dup3\n        /* \"#utility.yul\":2786:2800   */\n      add\n        /* \"#utility.yul\":2778:2800   */\n      swap1\n      pop\n        /* \"#utility.yul\":2693:2806   */\n      swap2\n      swap1\n      pop\n      jump\t// out\n        /* \"#utility.yul\":2842:3574   */\n    tag_235:\n        /* \"#utility.yul\":2961:2964   */\n      0x00\n        /* \"#utility.yul\":2990:3044   */\n      tag_318\n        /* \"#utility.yul\":3038:3043   */\n      dup3\n        /* \"#utility.yul\":2990:3044   */\n      tag_229\n      jump\t// in\n    tag_318:\n        /* \"#utility.yul\":3060:3146   */\n      tag_319\n        /* \"#utility.yul\":3139:3145   */\n      dup2\n        /* \"#utility.yul\":3134:3137   */\n      dup6\n        /* \"#utility.yul\":3060:3146   */\n      tag_230\n      jump\t// in\n    tag_319:\n        /* \"#utility.yul\":3053:3146   */\n      swap4\n      pop\n        /* \"#utility.yul\":3170:3226   */\n      tag_320\n        /* \"#utility.yul\":3220:3225   */\n      dup4\n        /* \"#utility.yul\":3170:3226   */\n      tag_231\n      jump\t// in\n    tag_320:\n        /* \"#utility.yul\":3249:3256   */\n      dup1\n        /* \"#utility.yul\":3280:3281   */\n      0x00\n        /* \"#utility.yul\":3265:3549   */\n    tag_321:\n        /* \"#utility.yul\":3290:3296   */\n      dup4\n        /* \"#utility.yul\":3287:3288   */\n      dup2\n        /* \"#utility.yul\":3284:3297   */\n      lt\n        /* \"#utility.yul\":3265:3549   */\n      iszero\n      tag_323\n      jumpi\n        /* \"#utility.yul\":3366:3372   */\n      dup2\n        /* \"#utility.yul\":3360:3373   */\n      mload\n        /* \"#utility.yul\":3393:3456   */\n      tag_324\n        /* \"#utility.yul\":3452:3455   */\n      dup9\n        /* \"#utility.yul\":3437:3450   */\n      dup3\n        /* \"#utility.yul\":3393:3456   */\n      tag_233\n      jump\t// in\n    tag_324:\n        /* \"#utility.yul\":3386:3456   */\n      swap8\n      pop\n        /* \"#utility.yul\":3479:3539   */\n      tag_325\n        /* \"#utility.yul\":3532:3538   */\n      dup4\n        /* \"#utility.yul\":3479:3539   */\n      tag_234\n      jump\t// in\n    tag_325:\n        /* \"#utility.yul\":3469:3539   */\n      swap3\n      pop\n        /* \"#utility.yul\":3325:3549   */\n      pop\n        /* \"#utility.yul\":3312:3313   */\n      0x01\n        /* \"#utility.yul\":3309:3310   */\n      dup2\n        /* \"#utility.yul\":3305:3314   */\n      add\n        /* \"#utility.yul\":3300:3314   */\n      swap1\n      pop\n        /* \"#utility.yul\":3265:3549   */\n      jump(tag_321)\n    tag_323:\n        /* \"#utility.yul\":3269:3283   */\n      pop\n        /* \"#utility.yul\":3565:3568   */\n      dup6\n        /* \"#utility.yul\":3558:3568   */\n      swap4\n      pop\n        /* \"#utility.yul\":2966:3574   */\n      pop\n      pop\n      pop\n        /* \"#utility.yul\":2842:3574   */\n      swap3\n      swap2\n      pop\n      pop\n      jump\t// out\n        /* \"#utility.yul\":3580:3692   */\n    tag_236:\n        /* \"#utility.yul\":3645:3651   */\n      0x00\n        /* \"#utility.yul\":3679:3684   */\n      dup2\n        /* \"#utility.yul\":3673:3685   */\n      mload\n        /* \"#utility.yul\":3663:3685   */\n      swap1\n      pop\n        /* \"#utility.yul\":3580:3692   */\n      swap2\n      swap1\n      pop\n      jump\t// out\n        /* \"#utility.yul\":3698:3880   */\n    tag_237:\n        /* \"#utility.yul\":3795:3806   */\n      0x00\n        /* \"#utility.yul\":3829:3835   */\n      dup3\n        /* \"#utility.yul\":3824:3827   */\n      dup3\n        /* \"#utility.yul\":3817:3836   */\n      mstore\n        /* \"#utility.yul\":3869:3873   */\n      0x20\n        /* \"#utility.yul\":3864:3867   */\n      dup3\n        /* \"#utility.yul\":3860:3874   */\n      add\n        /* \"#utility.yul\":3845:3874   */\n      swap1\n      pop\n        /* \"#utility.yul\":3698:3880   */\n      swap3\n      swap2\n      pop\n      pop\n      jump\t// out\n        /* \"#utility.yul\":3886:4016   */\n    tag_238:\n        /* \"#utility.yul\":3951:3955   */\n      0x00\n        /* \"#utility.yul\":3974:3977   */\n      dup2\n        /* \"#utility.yul\":3966:3977   */\n      swap1\n      pop\n        /* \"#utility.yul\":4004:4008   */\n      0x20\n        /* \"#utility.yul\":3999:4002   */\n      dup3\n        /* \"#utility.yul\":3995:4009   */\n      add\n        /* \"#utility.yul\":3987:4009   */\n      swap1\n      pop\n        /* \"#utility.yul\":3886:4016   */\n      swap2\n      swap1\n      pop\n      jump\t// out\n        /* \"#utility.yul\":4022:4124   */\n    tag_239:\n        /* \"#utility.yul\":4095:4117   */\n      tag_330\n        /* \"#utility.yul\":4111:4116   */\n      dup2\n        /* \"#utility.yul\":4095:4117   */\n      tag_219\n      jump\t// in\n    tag_330:\n        /* \"#utility.yul\":4090:4093   */\n      dup3\n        /* \"#utility.yul\":4083:4118   */\n      mstore\n        /* \"#utility.yul\":4022:4124   */\n      pop\n      pop\n      jump\t// out\n        /* \"#utility.yul\":4130:4301   */\n    tag_240:\n        /* \"#utility.yul\":4195:4205   */\n      0x00\n        /* \"#utility.yul\":4216:4258   */\n      tag_332\n        /* \"#utility.yul\":4254:4257   */\n      dup4\n        /* \"#utility.yul\":4246:4252   */\n      dup4\n        /* \"#utility.yul\":4216:4258   */\n      tag_239\n      jump\t// in\n    tag_332:\n        /* \"#utility.yul\":4290:4294   */\n      0x20\n        /* \"#utility.yul\":4285:4288   */\n      dup4\n        /* \"#utility.yul\":4281:4295   */\n      add\n        /* \"#utility.yul\":4267:4295   */\n      swap1\n      pop\n        /* \"#utility.yul\":4130:4301   */\n      swap3\n      swap2\n      pop\n      pop\n      jump\t// out\n        /* \"#utility.yul\":4307:4418   */\n    tag_241:\n        /* \"#utility.yul\":4375:4379   */\n      0x00\n        /* \"#utility.yul\":4407:4411   */\n      0x20\n        /* \"#utility.yul\":4402:4405   */\n      dup3\n        /* \"#utility.yul\":4398:4412   */\n      add\n        /* \"#utility.yul\":4390:4412   */\n      swap1\n      pop\n        /* \"#utility.yul\":4307:4418   */\n      swap2\n      swap1\n      pop\n      jump\t// out\n        /* \"#utility.yul\":4450:5166   */\n    tag_242:\n        /* \"#utility.yul\":4565:4568   */\n      0x00\n        /* \"#utility.yul\":4594:4646   */\n      tag_335\n        /* \"#utility.yul\":4640:4645   */\n      dup3\n        /* \"#utility.yul\":4594:4646   */\n      tag_236\n      jump\t// in\n    tag_335:\n        /* \"#utility.yul\":4662:4746   */\n      tag_336\n        /* \"#utility.yul\":4739:4745   */\n      dup2\n        /* \"#utility.yul\":4734:4737   */\n      dup6\n        /* \"#utility.yul\":4662:4746   */\n      tag_237\n      jump\t// in\n    tag_336:\n        /* \"#utility.yul\":4655:4746   */\n      swap4\n      pop\n        /* \"#utility.yul\":4770:4824   */\n      tag_337\n        /* \"#utility.yul\":4818:4823   */\n      dup4\n        /* \"#utility.yul\":4770:4824   */\n      tag_238\n      jump\t// in\n    tag_337:\n        /* \"#utility.yul\":4847:4854   */\n      dup1\n        /* \"#utility.yul\":4878:4879   */\n      0x00\n        /* \"#utility.yul\":4863:5141   */\n    tag_338:\n        /* \"#utility.yul\":4888:4894   */\n      dup4\n        /* \"#utility.yul\":4885:4886   */\n      dup2\n        /* \"#utility.yul\":4882:4895   */\n      lt\n        /* \"#utility.yul\":4863:5141   */\n      iszero\n      tag_340\n      jumpi\n        /* \"#utility.yul\":4964:4970   */\n      dup2\n        /* \"#utility.yul\":4958:4971   */\n      mload\n        /* \"#utility.yul\":4991:5050   */\n      tag_341\n        /* \"#utility.yul\":5046:5049   */\n      dup9\n        /* \"#utility.yul\":5031:5044   */\n      dup3\n        /* \"#utility.yul\":4991:5050   */\n      tag_240\n      jump\t// in\n    tag_341:\n        /* \"#utility.yul\":4984:5050   */\n      swap8\n      pop\n        /* \"#utility.yul\":5073:5131   */\n      tag_342\n        /* \"#utility.yul\":5124:5130   */\n      dup4\n        /* \"#utility.yul\":5073:5131   */\n      tag_241\n      jump\t// in\n    tag_342:\n        /* \"#utility.yul\":5063:5131   */\n      swap3\n      pop\n        /* \"#utility.yul\":4923:5141   */\n      pop\n        /* \"#utility.yul\":4910:4911   */\n      0x01\n        /* \"#utility.yul\":4907:4908   */\n      dup2\n        /* \"#utility.yul\":4903:4912   */\n      add\n        /* \"#utility.yul\":4898:4912   */\n      swap1\n      pop\n        /* \"#utility.yul\":4863:5141   */\n      jump(tag_338)\n    tag_340:\n        /* \"#utility.yul\":4867:4881   */\n      pop\n        /* \"#utility.yul\":5157:5160   */\n      dup6\n        /* \"#utility.yul\":5150:5160   */\n      swap4\n      pop\n        /* \"#utility.yul\":4570:5166   */\n      pop\n      pop\n      pop\n        /* \"#utility.yul\":4450:5166   */\n      swap3\n      swap2\n      pop\n      pop\n      jump\t// out\n        /* \"#utility.yul\":5172:5798   */\n    tag_38:\n        /* \"#utility.yul\":5389:5393   */\n      0x00\n        /* \"#utility.yul\":5427:5429   */\n      0x40\n        /* \"#utility.yul\":5416:5425   */\n      dup3\n        /* \"#utility.yul\":5412:5430   */\n      add\n        /* \"#utility.yul\":5404:5430   */\n      swap1\n      pop\n        /* \"#utility.yul\":5476:5485   */\n      dup2\n        /* \"#utility.yul\":5470:5474   */\n      dup2\n        /* \"#utility.yul\":5466:5486   */\n      sub\n        /* \"#utility.yul\":5462:5463   */\n      0x00\n        /* \"#utility.yul\":5451:5460   */\n      dup4\n        /* \"#utility.yul\":5447:5464   */\n      add\n        /* \"#utility.yul\":5440:5487   */\n      mstore\n        /* \"#utility.yul\":5504:5612   */\n      tag_344\n        /* \"#utility.yul\":5607:5611   */\n      dup2\n        /* \"#utility.yul\":5598:5604   */\n      dup6\n        /* \"#utility.yul\":5504:5612   */\n      tag_235\n      jump\t// in\n    tag_344:\n        /* \"#utility.yul\":5496:5612   */\n      swap1\n      pop\n        /* \"#utility.yul\":5659:5668   */\n      dup2\n        /* \"#utility.yul\":5653:5657   */\n      dup2\n        /* \"#utility.yul\":5649:5669   */\n      sub\n        /* \"#utility.yul\":5644:5646   */\n      0x20\n        /* \"#utility.yul\":5633:5642   */\n      dup4\n        /* \"#utility.yul\":5629:5647   */\n      add\n        /* \"#utility.yul\":5622:5670   */\n      mstore\n        /* \"#utility.yul\":5687:5791   */\n      tag_345\n        /* \"#utility.yul\":5786:5790   */\n      dup2\n        /* \"#utility.yul\":5777:5783   */\n      dup5\n        /* \"#utility.yul\":5687:5791   */\n      tag_242\n      jump\t// in\n    tag_345:\n        /* \"#utility.yul\":5679:5791   */\n      swap1\n      pop\n        /* \"#utility.yul\":5172:5798   */\n      swap4\n      swap3\n      pop\n      pop\n      pop\n      jump\t// out\n        /* \"#utility.yul\":5804:5903   */\n    tag_243:\n        /* \"#utility.yul\":5856:5862   */\n      0x00\n        /* \"#utility.yul\":5890:5895   */\n      dup2\n        /* \"#utility.yul\":5884:5896   */\n      mload\n        /* \"#utility.yul\":5874:5896   */\n      swap1\n      pop\n        /* \"#utility.yul\":5804:5903   */\n      swap2\n      swap1\n      pop\n      jump\t// out\n        /* \"#utility.yul\":5909:6078   */\n    tag_244:\n        /* \"#utility.yul\":5993:6004   */\n      0x00\n        /* \"#utility.yul\":6027:6033   */\n      dup3\n        /* \"#utility.yul\":6022:6025   */\n      dup3\n        /* \"#utility.yul\":6015:6034   */\n      mstore\n        /* \"#utility.yul\":6067:6071   */\n      0x20\n        /* \"#utility.yul\":6062:6065   */\n      dup3\n        /* \"#utility.yul\":6058:6072   */\n      add\n        /* \"#utility.yul\":6043:6072   */\n      swap1\n      pop\n        /* \"#utility.yul\":5909:6078   */\n      swap3\n      swap2\n      pop\n      pop\n      jump\t// out\n        /* \"#utility.yul\":6084:6223   */\n    tag_245:\n        /* \"#utility.yul\":6173:6179   */\n      dup3\n        /* \"#utility.yul\":6168:6171   */\n      dup2\n        /* \"#utility.yul\":6163:6166   */\n      dup4\n        /* \"#utility.yul\":6157:6180   */\n      mcopy\n        /* \"#utility.yul\":6214:6215   */\n      0x00\n        /* \"#utility.yul\":6205:6211   */\n      dup4\n        /* \"#utility.yul\":6200:6203   */\n      dup4\n        /* \"#utility.yul\":6196:6212   */\n      add\n        /* \"#utility.yul\":6189:6216   */\n      mstore\n        /* \"#utility.yul\":6084:6223   */\n      pop\n      pop\n      pop\n      jump\t// out\n        /* \"#utility.yul\":6229:6331   */\n    tag_246:\n        /* \"#utility.yul\":6270:6276   */\n      0x00\n        /* \"#utility.yul\":6321:6323   */\n      0x1f\n        /* \"#utility.yul\":6317:6324   */\n      not\n        /* \"#utility.yul\":6312:6314   */\n      0x1f\n        /* \"#utility.yul\":6305:6310   */\n      dup4\n        /* \"#utility.yul\":6301:6315   */\n      add\n        /* \"#utility.yul\":6297:6325   */\n      and\n        /* \"#utility.yul\":6287:6325   */\n      swap1\n      pop\n        /* \"#utility.yul\":6229:6331   */\n      swap2\n      swap1\n      pop\n      jump\t// out\n        /* \"#utility.yul\":6337:6714   */\n    tag_247:\n        /* \"#utility.yul\":6425:6428   */\n      0x00\n        /* \"#utility.yul\":6453:6492   */\n      tag_351\n        /* \"#utility.yul\":6486:6491   */\n      dup3\n        /* \"#utility.yul\":6453:6492   */\n      tag_243\n      jump\t// in\n    tag_351:\n        /* \"#utility.yul\":6508:6579   */\n      tag_352\n        /* \"#utility.yul\":6572:6578   */\n      dup2\n        /* \"#utility.yul\":6567:6570   */\n      dup6\n        /* \"#utility.yul\":6508:6579   */\n      tag_244\n      jump\t// in\n    tag_352:\n        /* \"#utility.yul\":6501:6579   */\n      swap4\n      pop\n        /* \"#utility.yul\":6588:6653   */\n      tag_353\n        /* \"#utility.yul\":6646:6652   */\n      dup2\n        /* \"#utility.yul\":6641:6644   */\n      dup6\n        /* \"#utility.yul\":6634:6638   */\n      0x20\n        /* \"#utility.yul\":6627:6632   */\n      dup7\n        /* \"#utility.yul\":6623:6639   */\n      add\n        /* \"#utility.yul\":6588:6653   */\n      tag_245\n      jump\t// in\n    tag_353:\n        /* \"#utility.yul\":6678:6707   */\n      tag_354\n        /* \"#utility.yul\":6700:6706   */\n      dup2\n        /* \"#utility.yul\":6678:6707   */\n      tag_246\n      jump\t// in\n    tag_354:\n        /* \"#utility.yul\":6673:6676   */\n      dup5\n        /* \"#utility.yul\":6669:6708   */\n      add\n        /* \"#utility.yul\":6662:6708   */\n      swap2\n      pop\n        /* \"#utility.yul\":6429:6714   */\n      pop\n        /* \"#utility.yul\":6337:6714   */\n      swap3\n      swap2\n      pop\n      pop\n      jump\t// out\n        /* \"#utility.yul\":6720:7033   */\n    tag_43:\n        /* \"#utility.yul\":6833:6837   */\n      0x00\n        /* \"#utility.yul\":6871:6873   */\n      0x20\n        /* \"#utility.yul\":6860:6869   */\n      dup3\n        /* \"#utility.yul\":6856:6874   */\n      add\n        /* \"#utility.yul\":6848:6874   */\n      swap1\n      pop\n        /* \"#utility.yul\":6920:6929   */\n      dup2\n        /* \"#utility.yul\":6914:6918   */\n      dup2\n        /* \"#utility.yul\":6910:6930   */\n      sub\n        /* \"#utility.yul\":6906:6907   */\n      0x00\n        /* \"#utility.yul\":6895:6904   */\n      dup4\n        /* \"#utility.yul\":6891:6908   */\n      add\n        /* \"#utility.yul\":6884:6931   */\n      mstore\n        /* \"#utility.yul\":6948:7026   */\n      tag_356\n        /* \"#utility.yul\":7021:7025   */\n      dup2\n        /* \"#utility.yul\":7012:7018   */\n      dup5\n        /* \"#utility.yul\":6948:7026   */\n      tag_247\n      jump\t// in\n    tag_356:\n        /* \"#utility.yul\":6940:7026   */\n      swap1\n      pop\n        /* \"#utility.yul\":6720:7033   */\n      swap3\n      swap2\n      pop\n      pop\n      jump\t// out\n        /* \"#utility.yul\":7039:7116   */\n    tag_248:\n        /* \"#utility.yul\":7076:7083   */\n      0x00\n        /* \"#utility.yul\":7105:7110   */\n      dup2\n        /* \"#utility.yul\":7094:7110   */\n      swap1\n      pop\n        /* \"#utility.yul\":7039:7116   */\n      swap2\n      swap1\n      pop\n      jump\t// out\n        /* \"#utility.yul\":7122:7240   */\n    tag_249:\n        /* \"#utility.yul\":7209:7233   */\n      tag_359\n        /* \"#utility.yul\":7227:7232   */\n      dup2\n        /* \"#utility.yul\":7209:7233   */\n      tag_248\n      jump\t// in\n    tag_359:\n        /* \"#utility.yul\":7204:7207   */\n      dup3\n        /* \"#utility.yul\":7197:7234   */\n      mstore\n        /* \"#utility.yul\":7122:7240   */\n      pop\n      pop\n      jump\t// out\n        /* \"#utility.yul\":7246:7468   */\n    tag_48:\n        /* \"#utility.yul\":7339:7343   */\n      0x00\n        /* \"#utility.yul\":7377:7379   */\n      0x20\n        /* \"#utility.yul\":7366:7375   */\n      dup3\n        /* \"#utility.yul\":7362:7380   */\n      add\n        /* \"#utility.yul\":7354:7380   */\n      swap1\n      pop\n        /* \"#utility.yul\":7390:7461   */\n      tag_361\n        /* \"#utility.yul\":7458:7459   */\n      0x00\n        /* \"#utility.yul\":7447:7456   */\n      dup4\n        /* \"#utility.yul\":7443:7460   */\n      add\n        /* \"#utility.yul\":7434:7440   */\n      dup5\n        /* \"#utility.yul\":7390:7461   */\n      tag_249\n      jump\t// in\n    tag_361:\n        /* \"#utility.yul\":7246:7468   */\n      swap3\n      swap2\n      pop\n      pop\n      jump\t// out\n        /* \"#utility.yul\":7474:7564   */\n    tag_250:\n        /* \"#utility.yul\":7508:7515   */\n      0x00\n        /* \"#utility.yul\":7551:7556   */\n      dup2\n        /* \"#utility.yul\":7544:7557   */\n      iszero\n        /* \"#utility.yul\":7537:7558   */\n      iszero\n        /* \"#utility.yul\":7526:7558   */\n      swap1\n      pop\n        /* \"#utility.yul\":7474:7564   */\n      swap2\n      swap1\n      pop\n      jump\t// out\n        /* \"#utility.yul\":7570:7679   */\n    tag_251:\n        /* \"#utility.yul\":7651:7672   */\n      tag_364\n        /* \"#utility.yul\":7666:7671   */\n      dup2\n        /* \"#utility.yul\":7651:7672   */\n      tag_250\n      jump\t// in\n    tag_364:\n        /* \"#utility.yul\":7646:7649   */\n      dup3\n        /* \"#utility.yul\":7639:7673   */\n      mstore\n        /* \"#utility.yul\":7570:7679   */\n      pop\n      pop\n      jump\t// out\n        /* \"#utility.yul\":7685:7895   */\n    tag_60:\n        /* \"#utility.yul\":7772:7776   */\n      0x00\n        /* \"#utility.yul\":7810:7812   */\n      0x20\n        /* \"#utility.yul\":7799:7808   */\n      dup3\n        /* \"#utility.yul\":7795:7813   */\n      add\n        /* \"#utility.yul\":7787:7813   */\n      swap1\n      pop\n        /* \"#utility.yul\":7823:7888   */\n      tag_366\n        /* \"#utility.yul\":7885:7886   */\n      0x00\n        /* \"#utility.yul\":7874:7883   */\n      dup4\n        /* \"#utility.yul\":7870:7887   */\n      add\n        /* \"#utility.yul\":7861:7867   */\n      dup5\n        /* \"#utility.yul\":7823:7888   */\n      tag_251\n      jump\t// in\n    tag_366:\n        /* \"#utility.yul\":7685:7895   */\n      swap3\n      swap2\n      pop\n      pop\n      jump\t// out\n        /* \"#utility.yul\":7901:8077   */\n    tag_252:\n        /* \"#utility.yul\":8041:8069   */\n      0x4c612073756261737461206e6f206861207465726d696e61646f000000000000\n        /* \"#utility.yul\":8037:8038   */\n      0x00\n        /* \"#utility.yul\":8029:8035   */\n      dup3\n        /* \"#utility.yul\":8025:8039   */\n      add\n        /* \"#utility.yul\":8018:8070   */\n      mstore\n        /* \"#utility.yul\":7901:8077   */\n      pop\n      jump\t// out\n        /* \"#utility.yul\":8083:8449   */\n    tag_253:\n        /* \"#utility.yul\":8225:8228   */\n      0x00\n        /* \"#utility.yul\":8246:8313   */\n      tag_369\n        /* \"#utility.yul\":8310:8312   */\n      0x1a\n        /* \"#utility.yul\":8305:8308   */\n      dup4\n        /* \"#utility.yul\":8246:8313   */\n      tag_244\n      jump\t// in\n    tag_369:\n        /* \"#utility.yul\":8239:8313   */\n      swap2\n      pop\n        /* \"#utility.yul\":8322:8415   */\n      tag_370\n        /* \"#utility.yul\":8411:8414   */\n      dup3\n        /* \"#utility.yul\":8322:8415   */\n      tag_252\n      jump\t// in\n    tag_370:\n        /* \"#utility.yul\":8440:8442   */\n      0x20\n        /* \"#utility.yul\":8435:8438   */\n      dup3\n        /* \"#utility.yul\":8431:8443   */\n      add\n        /* \"#utility.yul\":8424:8443   */\n      swap1\n      pop\n        /* \"#utility.yul\":8083:8449   */\n      swap2\n      swap1\n      pop\n      jump\t// out\n        /* \"#utility.yul\":8455:8874   */\n    tag_75:\n        /* \"#utility.yul\":8621:8625   */\n      0x00\n        /* \"#utility.yul\":8659:8661   */\n      0x20\n        /* \"#utility.yul\":8648:8657   */\n      dup3\n        /* \"#utility.yul\":8644:8662   */\n      add\n        /* \"#utility.yul\":8636:8662   */\n      swap1\n      pop\n        /* \"#utility.yul\":8708:8717   */\n      dup2\n        /* \"#utility.yul\":8702:8706   */\n      dup2\n        /* \"#utility.yul\":8698:8718   */\n      sub\n        /* \"#utility.yul\":8694:8695   */\n      0x00\n        /* \"#utility.yul\":8683:8692   */\n      dup4\n        /* \"#utility.yul\":8679:8696   */\n      add\n        /* \"#utility.yul\":8672:8719   */\n      mstore\n        /* \"#utility.yul\":8736:8867   */\n      tag_372\n        /* \"#utility.yul\":8862:8866   */\n      dup2\n        /* \"#utility.yul\":8736:8867   */\n      tag_253\n      jump\t// in\n    tag_372:\n        /* \"#utility.yul\":8728:8867   */\n      swap1\n      pop\n        /* \"#utility.yul\":8455:8874   */\n      swap2\n      swap1\n      pop\n      jump\t// out\n        /* \"#utility.yul\":8880:9155   */\n    tag_254:\n        /* \"#utility.yul\":9020:9086   */\n      0x536f6c6f20656c20647565c3b16f2070756564652070656e616c697a61722061\n        /* \"#utility.yul\":9016:9017   */\n      0x00\n        /* \"#utility.yul\":9008:9014   */\n      dup3\n        /* \"#utility.yul\":9004:9018   */\n      add\n        /* \"#utility.yul\":8997:9087   */\n      mstore\n        /* \"#utility.yul\":9121:9147   */\n      0x6c2070726f766565646f722073656c656363696f6e61646f0000000000000000\n        /* \"#utility.yul\":9116:9118   */\n      0x20\n        /* \"#utility.yul\":9108:9114   */\n      dup3\n        /* \"#utility.yul\":9104:9119   */\n      add\n        /* \"#utility.yul\":9097:9148   */\n      mstore\n        /* \"#utility.yul\":8880:9155   */\n      pop\n      jump\t// out\n        /* \"#utility.yul\":9161:9527   */\n    tag_255:\n        /* \"#utility.yul\":9303:9306   */\n      0x00\n        /* \"#utility.yul\":9324:9391   */\n      tag_375\n        /* \"#utility.yul\":9388:9390   */\n      0x38\n        /* \"#utility.yul\":9383:9386   */\n      dup4\n        /* \"#utility.yul\":9324:9391   */\n      tag_244\n      jump\t// in\n    tag_375:\n        /* \"#utility.yul\":9317:9391   */\n      swap2\n      pop\n        /* \"#utility.yul\":9400:9493   */\n      tag_376\n        /* \"#utility.yul\":9489:9492   */\n      dup3\n        /* \"#utility.yul\":9400:9493   */\n      tag_254\n      jump\t// in\n    tag_376:\n        /* \"#utility.yul\":9518:9520   */\n      0x40\n        /* \"#utility.yul\":9513:9516   */\n      dup3\n        /* \"#utility.yul\":9509:9521   */\n      add\n        /* \"#utility.yul\":9502:9521   */\n      swap1\n      pop\n        /* \"#utility.yul\":9161:9527   */\n      swap2\n      swap1\n      pop\n      jump\t// out\n        /* \"#utility.yul\":9533:9952   */\n    tag_78:\n        /* \"#utility.yul\":9699:9703   */\n      0x00\n        /* \"#utility.yul\":9737:9739   */\n      0x20\n        /* \"#utility.yul\":9726:9735   */\n      dup3\n        /* \"#utility.yul\":9722:9740   */\n      add\n        /* \"#utility.yul\":9714:9740   */\n      swap1\n      pop\n        /* \"#utility.yul\":9786:9795   */\n      dup2\n        /* \"#utility.yul\":9780:9784   */\n      dup2\n        /* \"#utility.yul\":9776:9796   */\n      sub\n        /* \"#utility.yul\":9772:9773   */\n      0x00\n        /* \"#utility.yul\":9761:9770   */\n      dup4\n        /* \"#utility.yul\":9757:9774   */\n      add\n        /* \"#utility.yul\":9750:9797   */\n      mstore\n        /* \"#utility.yul\":9814:9945   */\n      tag_378\n        /* \"#utility.yul\":9940:9944   */\n      dup2\n        /* \"#utility.yul\":9814:9945   */\n      tag_255\n      jump\t// in\n    tag_378:\n        /* \"#utility.yul\":9806:9945   */\n      swap1\n      pop\n        /* \"#utility.yul\":9533:9952   */\n      swap2\n      swap1\n      pop\n      jump\t// out\n        /* \"#utility.yul\":9958:10137   */\n    tag_256:\n        /* \"#utility.yul\":10098:10129   */\n      0x4e6f206861792070726f766565646f722073656c656363696f6e61646f000000\n        /* \"#utility.yul\":10094:10095   */\n      0x00\n        /* \"#utility.yul\":10086:10092   */\n      dup3\n        /* \"#utility.yul\":10082:10096   */\n      add\n        /* \"#utility.yul\":10075:10130   */\n      mstore\n        /* \"#utility.yul\":9958:10137   */\n      pop\n      jump\t// out\n        /* \"#utility.yul\":10143:10509   */\n    tag_257:\n        /* \"#utility.yul\":10285:10288   */\n      0x00\n        /* \"#utility.yul\":10306:10373   */\n      tag_381\n        /* \"#utility.yul\":10370:10372   */\n      0x1d\n        /* \"#utility.yul\":10365:10368   */\n      dup4\n        /* \"#utility.yul\":10306:10373   */\n      tag_244\n      jump\t// in\n    tag_381:\n        /* \"#utility.yul\":10299:10373   */\n      swap2\n      pop\n        /* \"#utility.yul\":10382:10475   */\n      tag_382\n        /* \"#utility.yul\":10471:10474   */\n      dup3\n        /* \"#utility.yul\":10382:10475   */\n      tag_256\n      jump\t// in\n    tag_382:\n        /* \"#utility.yul\":10500:10502   */\n      0x20\n        /* \"#utility.yul\":10495:10498   */\n      dup3\n        /* \"#utility.yul\":10491:10503   */\n      add\n        /* \"#utility.yul\":10484:10503   */\n      swap1\n      pop\n        /* \"#utility.yul\":10143:10509   */\n      swap2\n      swap1\n      pop\n      jump\t// out\n        /* \"#utility.yul\":10515:10934   */\n    tag_81:\n        /* \"#utility.yul\":10681:10685   */\n      0x00\n        /* \"#utility.yul\":10719:10721   */\n      0x20\n        /* \"#utility.yul\":10708:10717   */\n      dup3\n        /* \"#utility.yul\":10704:10722   */\n      add\n        /* \"#utility.yul\":10696:10722   */\n      swap1\n      pop\n        /* \"#utility.yul\":10768:10777   */\n      dup2\n        /* \"#utility.yul\":10762:10766   */\n      dup2\n        /* \"#utility.yul\":10758:10778   */\n      sub\n        /* \"#utility.yul\":10754:10755   */\n      0x00\n        /* \"#utility.yul\":10743:10752   */\n      dup4\n        /* \"#utility.yul\":10739:10756   */\n      add\n        /* \"#utility.yul\":10732:10779   */\n      mstore\n        /* \"#utility.yul\":10796:10927   */\n      tag_384\n        /* \"#utility.yul\":10922:10926   */\n      dup2\n        /* \"#utility.yul\":10796:10927   */\n      tag_257\n      jump\t// in\n    tag_384:\n        /* \"#utility.yul\":10788:10927   */\n      swap1\n      pop\n        /* \"#utility.yul\":10515:10934   */\n      swap2\n      swap1\n      pop\n      jump\t// out\n        /* \"#utility.yul\":10940:11120   */\n    tag_258:\n        /* \"#utility.yul\":11080:11112   */\n      0x4e6f20686179206465706f7369746f20706172612070656e616c697a61720000\n        /* \"#utility.yul\":11076:11077   */\n      0x00\n        /* \"#utility.yul\":11068:11074   */\n      dup3\n        /* \"#utility.yul\":11064:11078   */\n      add\n        /* \"#utility.yul\":11057:11113   */\n      mstore\n        /* \"#utility.yul\":10940:11120   */\n      pop\n      jump\t// out\n        /* \"#utility.yul\":11126:11492   */\n    tag_259:\n        /* \"#utility.yul\":11268:11271   */\n      0x00\n        /* \"#utility.yul\":11289:11356   */\n      tag_387\n        /* \"#utility.yul\":11353:11355   */\n      0x1e\n        /* \"#utility.yul\":11348:11351   */\n      dup4\n        /* \"#utility.yul\":11289:11356   */\n      tag_244\n      jump\t// in\n    tag_387:\n        /* \"#utility.yul\":11282:11356   */\n      swap2\n      pop\n        /* \"#utility.yul\":11365:11458   */\n      tag_388\n        /* \"#utility.yul\":11454:11457   */\n      dup3\n        /* \"#utility.yul\":11365:11458   */\n      tag_258\n      jump\t// in\n    tag_388:\n        /* \"#utility.yul\":11483:11485   */\n      0x20\n        /* \"#utility.yul\":11478:11481   */\n      dup3\n        /* \"#utility.yul\":11474:11486   */\n      add\n        /* \"#utility.yul\":11467:11486   */\n      swap1\n      pop\n        /* \"#utility.yul\":11126:11492   */\n      swap2\n      swap1\n      pop\n      jump\t// out\n        /* \"#utility.yul\":11498:11917   */\n    tag_84:\n        /* \"#utility.yul\":11664:11668   */\n      0x00\n        /* \"#utility.yul\":11702:11704   */\n      0x20\n        /* \"#utility.yul\":11691:11700   */\n      dup3\n        /* \"#utility.yul\":11687:11705   */\n      add\n        /* \"#utility.yul\":11679:11705   */\n      swap1\n      pop\n        /* \"#utility.yul\":11751:11760   */\n      dup2\n        /* \"#utility.yul\":11745:11749   */\n      dup2\n        /* \"#utility.yul\":11741:11761   */\n      sub\n        /* \"#utility.yul\":11737:11738   */\n      0x00\n        /* \"#utility.yul\":11726:11735   */\n      dup4\n        /* \"#utility.yul\":11722:11739   */\n      add\n        /* \"#utility.yul\":11715:11762   */\n      mstore\n        /* \"#utility.yul\":11779:11910   */\n      tag_390\n        /* \"#utility.yul\":11905:11909   */\n      dup2\n        /* \"#utility.yul\":11779:11910   */\n      tag_259\n      jump\t// in\n    tag_390:\n        /* \"#utility.yul\":11771:11910   */\n      swap1\n      pop\n        /* \"#utility.yul\":11498:11917   */\n      swap2\n      swap1\n      pop\n      jump\t// out\n        /* \"#utility.yul\":11923:12096   */\n    tag_260:\n        /* \"#utility.yul\":12063:12088   */\n      0x4c612073756261737461206861207465726d696e61646f000000000000000000\n        /* \"#utility.yul\":12059:12060   */\n      0x00\n        /* \"#utility.yul\":12051:12057   */\n      dup3\n        /* \"#utility.yul\":12047:12061   */\n      add\n        /* \"#utility.yul\":12040:12089   */\n      mstore\n        /* \"#utility.yul\":11923:12096   */\n      pop\n      jump\t// out\n        /* \"#utility.yul\":12102:12468   */\n    tag_261:\n        /* \"#utility.yul\":12244:12247   */\n      0x00\n        /* \"#utility.yul\":12265:12332   */\n      tag_393\n        /* \"#utility.yul\":12329:12331   */\n      0x17\n        /* \"#utility.yul\":12324:12327   */\n      dup4\n        /* \"#utility.yul\":12265:12332   */\n      tag_244\n      jump\t// in\n    tag_393:\n        /* \"#utility.yul\":12258:12332   */\n      swap2\n      pop\n        /* \"#utility.yul\":12341:12434   */\n      tag_394\n        /* \"#utility.yul\":12430:12433   */\n      dup3\n        /* \"#utility.yul\":12341:12434   */\n      tag_260\n      jump\t// in\n    tag_394:\n        /* \"#utility.yul\":12459:12461   */\n      0x20\n        /* \"#utility.yul\":12454:12457   */\n      dup3\n        /* \"#utility.yul\":12450:12462   */\n      add\n        /* \"#utility.yul\":12443:12462   */\n      swap1\n      pop\n        /* \"#utility.yul\":12102:12468   */\n      swap2\n      swap1\n      pop\n      jump\t// out\n        /* \"#utility.yul\":12474:12893   */\n    tag_91:\n        /* \"#utility.yul\":12640:12644   */\n      0x00\n        /* \"#utility.yul\":12678:12680   */\n      0x20\n        /* \"#utility.yul\":12667:12676   */\n      dup3\n        /* \"#utility.yul\":12663:12681   */\n      add\n        /* \"#utility.yul\":12655:12681   */\n      swap1\n      pop\n        /* \"#utility.yul\":12727:12736   */\n      dup2\n        /* \"#utility.yul\":12721:12725   */\n      dup2\n        /* \"#utility.yul\":12717:12737   */\n      sub\n        /* \"#utility.yul\":12713:12714   */\n      0x00\n        /* \"#utility.yul\":12702:12711   */\n      dup4\n        /* \"#utility.yul\":12698:12715   */\n      add\n        /* \"#utility.yul\":12691:12738   */\n      mstore\n        /* \"#utility.yul\":12755:12886   */\n      tag_396\n        /* \"#utility.yul\":12881:12885   */\n      dup2\n        /* \"#utility.yul\":12755:12886   */\n      tag_261\n      jump\t// in\n    tag_396:\n        /* \"#utility.yul\":12747:12886   */\n      swap1\n      pop\n        /* \"#utility.yul\":12474:12893   */\n      swap2\n      swap1\n      pop\n      jump\t// out\n        /* \"#utility.yul\":12899:13132   */\n    tag_262:\n        /* \"#utility.yul\":13039:13073   */\n      0x4c612070756a6120646562652073657220756e2076616c6f7220706f73697469\n        /* \"#utility.yul\":13035:13036   */\n      0x00\n        /* \"#utility.yul\":13027:13033   */\n      dup3\n        /* \"#utility.yul\":13023:13037   */\n      add\n        /* \"#utility.yul\":13016:13074   */\n      mstore\n        /* \"#utility.yul\":13108:13124   */\n      0x766f206d61796f72207175652030000000000000000000000000000000000000\n        /* \"#utility.yul\":13103:13105   */\n      0x20\n        /* \"#utility.yul\":13095:13101   */\n      dup3\n        /* \"#utility.yul\":13091:13106   */\n      add\n        /* \"#utility.yul\":13084:13125   */\n      mstore\n        /* \"#utility.yul\":12899:13132   */\n      pop\n      jump\t// out\n        /* \"#utility.yul\":13138:13504   */\n    tag_263:\n        /* \"#utility.yul\":13280:13283   */\n      0x00\n        /* \"#utility.yul\":13301:13368   */\n      tag_399\n        /* \"#utility.yul\":13365:13367   */\n      0x2e\n        /* \"#utility.yul\":13360:13363   */\n      dup4\n        /* \"#utility.yul\":13301:13368   */\n      tag_244\n      jump\t// in\n    tag_399:\n        /* \"#utility.yul\":13294:13368   */\n      swap2\n      pop\n        /* \"#utility.yul\":13377:13470   */\n      tag_400\n        /* \"#utility.yul\":13466:13469   */\n      dup3\n        /* \"#utility.yul\":13377:13470   */\n      tag_262\n      jump\t// in\n    tag_400:\n        /* \"#utility.yul\":13495:13497   */\n      0x40\n        /* \"#utility.yul\":13490:13493   */\n      dup3\n        /* \"#utility.yul\":13486:13498   */\n      add\n        /* \"#utility.yul\":13479:13498   */\n      swap1\n      pop\n        /* \"#utility.yul\":13138:13504   */\n      swap2\n      swap1\n      pop\n      jump\t// out\n        /* \"#utility.yul\":13510:13929   */\n    tag_94:\n        /* \"#utility.yul\":13676:13680   */\n      0x00\n        /* \"#utility.yul\":13714:13716   */\n      0x20\n        /* \"#utility.yul\":13703:13712   */\n      dup3\n        /* \"#utility.yul\":13699:13717   */\n      add\n        /* \"#utility.yul\":13691:13717   */\n      swap1\n      pop\n        /* \"#utility.yul\":13763:13772   */\n      dup2\n        /* \"#utility.yul\":13757:13761   */\n      dup2\n        /* \"#utility.yul\":13753:13773   */\n      sub\n        /* \"#utility.yul\":13749:13750   */\n      0x00\n        /* \"#utility.yul\":13738:13747   */\n      dup4\n        /* \"#utility.yul\":13734:13751   */\n      add\n        /* \"#utility.yul\":13727:13774   */\n      mstore\n        /* \"#utility.yul\":13791:13922   */\n      tag_402\n        /* \"#utility.yul\":13917:13921   */\n      dup2\n        /* \"#utility.yul\":13791:13922   */\n      tag_263\n      jump\t// in\n    tag_402:\n        /* \"#utility.yul\":13783:13922   */\n      swap1\n      pop\n        /* \"#utility.yul\":13510:13929   */\n      swap2\n      swap1\n      pop\n      jump\t// out\n        /* \"#utility.yul\":13935:14287   */\n    tag_264:\n        /* \"#utility.yul\":14075:14109   */\n      0x4c612070756a6120646562652073657220756e2076616c6f7220696775616c20\n        /* \"#utility.yul\":14071:14072   */\n      0x00\n        /* \"#utility.yul\":14063:14069   */\n      dup3\n        /* \"#utility.yul\":14059:14073   */\n      add\n        /* \"#utility.yul\":14052:14110   */\n      mstore\n        /* \"#utility.yul\":14144:14210   */\n      0x6f20706f7220646562616a6f2064656c2076616c6f72206dc3a178696d6f2064\n        /* \"#utility.yul\":14139:14141   */\n      0x20\n        /* \"#utility.yul\":14131:14137   */\n      dup3\n        /* \"#utility.yul\":14127:14142   */\n      add\n        /* \"#utility.yul\":14120:14211   */\n      mstore\n        /* \"#utility.yul\":14245:14279   */\n      0x6566696e69646f20706f7220656c20736572766963696f2064652073616c7564\n        /* \"#utility.yul\":14240:14242   */\n      0x40\n        /* \"#utility.yul\":14232:14238   */\n      dup3\n        /* \"#utility.yul\":14228:14243   */\n      add\n        /* \"#utility.yul\":14221:14280   */\n      mstore\n        /* \"#utility.yul\":13935:14287   */\n      pop\n      jump\t// out\n        /* \"#utility.yul\":14293:14659   */\n    tag_265:\n        /* \"#utility.yul\":14435:14438   */\n      0x00\n        /* \"#utility.yul\":14456:14523   */\n      tag_405\n        /* \"#utility.yul\":14520:14522   */\n      0x60\n        /* \"#utility.yul\":14515:14518   */\n      dup4\n        /* \"#utility.yul\":14456:14523   */\n      tag_244\n      jump\t// in\n    tag_405:\n        /* \"#utility.yul\":14449:14523   */\n      swap2\n      pop\n        /* \"#utility.yul\":14532:14625   */\n      tag_406\n        /* \"#utility.yul\":14621:14624   */\n      dup3\n        /* \"#utility.yul\":14532:14625   */\n      tag_264\n      jump\t// in\n    tag_406:\n        /* \"#utility.yul\":14650:14652   */\n      0x60\n        /* \"#utility.yul\":14645:14648   */\n      dup3\n        /* \"#utility.yul\":14641:14653   */\n      add\n        /* \"#utility.yul\":14634:14653   */\n      swap1\n      pop\n        /* \"#utility.yul\":14293:14659   */\n      swap2\n      swap1\n      pop\n      jump\t// out\n        /* \"#utility.yul\":14665:15084   */\n    tag_97:\n        /* \"#utility.yul\":14831:14835   */\n      0x00\n        /* \"#utility.yul\":14869:14871   */\n      0x20\n        /* \"#utility.yul\":14858:14867   */\n      dup3\n        /* \"#utility.yul\":14854:14872   */\n      add\n        /* \"#utility.yul\":14846:14872   */\n      swap1\n      pop\n        /* \"#utility.yul\":14918:14927   */\n      dup2\n        /* \"#utility.yul\":14912:14916   */\n      dup2\n        /* \"#utility.yul\":14908:14928   */\n      sub\n        /* \"#utility.yul\":14904:14905   */\n      0x00\n        /* \"#utility.yul\":14893:14902   */\n      dup4\n        /* \"#utility.yul\":14889:14906   */\n      add\n        /* \"#utility.yul\":14882:14929   */\n      mstore\n        /* \"#utility.yul\":14946:15077   */\n      tag_408\n        /* \"#utility.yul\":15072:15076   */\n      dup2\n        /* \"#utility.yul\":14946:15077   */\n      tag_265\n      jump\t// in\n    tag_408:\n        /* \"#utility.yul\":14938:15077   */\n      swap1\n      pop\n        /* \"#utility.yul\":14665:15084   */\n      swap2\n      swap1\n      pop\n      jump\t// out\n        /* \"#utility.yul\":15090:15265   */\n    tag_266:\n        /* \"#utility.yul\":15230:15257   */\n      0x596120686173207265616c697a61646f20756e612070756a6100000000000000\n        /* \"#utility.yul\":15226:15227   */\n      0x00\n        /* \"#utility.yul\":15218:15224   */\n      dup3\n        /* \"#utility.yul\":15214:15228   */\n      add\n        /* \"#utility.yul\":15207:15258   */\n      mstore\n        /* \"#utility.yul\":15090:15265   */\n      pop\n      jump\t// out\n        /* \"#utility.yul\":15271:15637   */\n    tag_267:\n        /* \"#utility.yul\":15413:15416   */\n      0x00\n        /* \"#utility.yul\":15434:15501   */\n      tag_411\n        /* \"#utility.yul\":15498:15500   */\n      0x19\n        /* \"#utility.yul\":15493:15496   */\n      dup4\n        /* \"#utility.yul\":15434:15501   */\n      tag_244\n      jump\t// in\n    tag_411:\n        /* \"#utility.yul\":15427:15501   */\n      swap2\n      pop\n        /* \"#utility.yul\":15510:15603   */\n      tag_412\n        /* \"#utility.yul\":15599:15602   */\n      dup3\n        /* \"#utility.yul\":15510:15603   */\n      tag_266\n      jump\t// in\n    tag_412:\n        /* \"#utility.yul\":15628:15630   */\n      0x20\n        /* \"#utility.yul\":15623:15626   */\n      dup3\n        /* \"#utility.yul\":15619:15631   */\n      add\n        /* \"#utility.yul\":15612:15631   */\n      swap1\n      pop\n        /* \"#utility.yul\":15271:15637   */\n      swap2\n      swap1\n      pop\n      jump\t// out\n        /* \"#utility.yul\":15643:16062   */\n    tag_100:\n        /* \"#utility.yul\":15809:15813   */\n      0x00\n        /* \"#utility.yul\":15847:15849   */\n      0x20\n        /* \"#utility.yul\":15836:15845   */\n      dup3\n        /* \"#utility.yul\":15832:15850   */\n      add\n        /* \"#utility.yul\":15824:15850   */\n      swap1\n      pop\n        /* \"#utility.yul\":15896:15905   */\n      dup2\n        /* \"#utility.yul\":15890:15894   */\n      dup2\n        /* \"#utility.yul\":15886:15906   */\n      sub\n        /* \"#utility.yul\":15882:15883   */\n      0x00\n        /* \"#utility.yul\":15871:15880   */\n      dup4\n        /* \"#utility.yul\":15867:15884   */\n      add\n        /* \"#utility.yul\":15860:15907   */\n      mstore\n        /* \"#utility.yul\":15924:16055   */\n      tag_414\n        /* \"#utility.yul\":16050:16054   */\n      dup2\n        /* \"#utility.yul\":15924:16055   */\n      tag_267\n      jump\t// in\n    tag_414:\n        /* \"#utility.yul\":15916:16055   */\n      swap1\n      pop\n        /* \"#utility.yul\":15643:16062   */\n      swap2\n      swap1\n      pop\n      jump\t// out\n        /* \"#utility.yul\":16068:16248   */\n    tag_268:\n        /* \"#utility.yul\":16116:16193   */\n      0x4e487b7100000000000000000000000000000000000000000000000000000000\n        /* \"#utility.yul\":16113:16114   */\n      0x00\n        /* \"#utility.yul\":16106:16194   */\n      mstore\n        /* \"#utility.yul\":16213:16217   */\n      0x11\n        /* \"#utility.yul\":16210:16211   */\n      0x04\n        /* \"#utility.yul\":16203:16218   */\n      mstore\n        /* \"#utility.yul\":16237:16241   */\n      0x24\n        /* \"#utility.yul\":16234:16235   */\n      0x00\n        /* \"#utility.yul\":16227:16242   */\n      revert\n        /* \"#utility.yul\":16254:16664   */\n    tag_102:\n        /* \"#utility.yul\":16294:16301   */\n      0x00\n        /* \"#utility.yul\":16317:16337   */\n      tag_417\n        /* \"#utility.yul\":16335:16336   */\n      dup3\n        /* \"#utility.yul\":16317:16337   */\n      tag_248\n      jump\t// in\n    tag_417:\n        /* \"#utility.yul\":16312:16337   */\n      swap2\n      pop\n        /* \"#utility.yul\":16351:16371   */\n      tag_418\n        /* \"#utility.yul\":16369:16370   */\n      dup4\n        /* \"#utility.yul\":16351:16371   */\n      tag_248\n      jump\t// in\n    tag_418:\n        /* \"#utility.yul\":16346:16371   */\n      swap3\n      pop\n        /* \"#utility.yul\":16406:16407   */\n      dup3\n        /* \"#utility.yul\":16403:16404   */\n      dup3\n        /* \"#utility.yul\":16399:16408   */\n      mul\n        /* \"#utility.yul\":16428:16458   */\n      tag_419\n        /* \"#utility.yul\":16446:16457   */\n      dup2\n        /* \"#utility.yul\":16428:16458   */\n      tag_248\n      jump\t// in\n    tag_419:\n        /* \"#utility.yul\":16417:16458   */\n      swap2\n      pop\n        /* \"#utility.yul\":16607:16608   */\n      dup3\n        /* \"#utility.yul\":16598:16605   */\n      dup3\n        /* \"#utility.yul\":16594:16609   */\n      div\n        /* \"#utility.yul\":16591:16592   */\n      dup5\n        /* \"#utility.yul\":16588:16610   */\n      eq\n        /* \"#utility.yul\":16568:16569   */\n      dup4\n        /* \"#utility.yul\":16561:16570   */\n      iszero\n        /* \"#utility.yul\":16541:16624   */\n      or\n        /* \"#utility.yul\":16518:16657   */\n      tag_420\n      jumpi\n        /* \"#utility.yul\":16637:16655   */\n      tag_421\n      tag_268\n      jump\t// in\n    tag_421:\n        /* \"#utility.yul\":16518:16657   */\n    tag_420:\n        /* \"#utility.yul\":16302:16664   */\n      pop\n        /* \"#utility.yul\":16254:16664   */\n      swap3\n      swap2\n      pop\n      pop\n      jump\t// out\n        /* \"#utility.yul\":16670:16850   */\n    tag_269:\n        /* \"#utility.yul\":16718:16795   */\n      0x4e487b7100000000000000000000000000000000000000000000000000000000\n        /* \"#utility.yul\":16715:16716   */\n      0x00\n        /* \"#utility.yul\":16708:16796   */\n      mstore\n        /* \"#utility.yul\":16815:16819   */\n      0x12\n        /* \"#utility.yul\":16812:16813   */\n      0x04\n        /* \"#utility.yul\":16805:16820   */\n      mstore\n        /* \"#utility.yul\":16839:16843   */\n      0x24\n        /* \"#utility.yul\":16836:16837   */\n      0x00\n        /* \"#utility.yul\":16829:16844   */\n      revert\n        /* \"#utility.yul\":16856:17041   */\n    tag_104:\n        /* \"#utility.yul\":16896:16897   */\n      0x00\n        /* \"#utility.yul\":16913:16933   */\n      tag_424\n        /* \"#utility.yul\":16931:16932   */\n      dup3\n        /* \"#utility.yul\":16913:16933   */\n      tag_248\n      jump\t// in\n    tag_424:\n        /* \"#utility.yul\":16908:16933   */\n      swap2\n      pop\n        /* \"#utility.yul\":16947:16967   */\n      tag_425\n        /* \"#utility.yul\":16965:16966   */\n      dup4\n        /* \"#utility.yul\":16947:16967   */\n      tag_248\n      jump\t// in\n    tag_425:\n        /* \"#utility.yul\":16942:16967   */\n      swap3\n      pop\n        /* \"#utility.yul\":16986:16987   */\n      dup3\n        /* \"#utility.yul\":16976:17011   */\n      tag_426\n      jumpi\n        /* \"#utility.yul\":16991:17009   */\n      tag_427\n      tag_269\n      jump\t// in\n    tag_427:\n        /* \"#utility.yul\":16976:17011   */\n    tag_426:\n        /* \"#utility.yul\":17033:17034   */\n      dup3\n        /* \"#utility.yul\":17030:17031   */\n      dup3\n        /* \"#utility.yul\":17026:17035   */\n      div\n        /* \"#utility.yul\":17021:17035   */\n      swap1\n      pop\n        /* \"#utility.yul\":16856:17041   */\n      swap3\n      swap2\n      pop\n      pop\n      jump\t// out\n        /* \"#utility.yul\":17047:17287   */\n    tag_270:\n        /* \"#utility.yul\":17187:17221   */\n      0x446562657320656e7669617220616c206d656e6f7320656c2031302520646520\n        /* \"#utility.yul\":17183:17184   */\n      0x00\n        /* \"#utility.yul\":17175:17181   */\n      dup3\n        /* \"#utility.yul\":17171:17185   */\n      add\n        /* \"#utility.yul\":17164:17222   */\n      mstore\n        /* \"#utility.yul\":17256:17279   */\n      0x74752070756a6120636f6d6f206465706f7369746f0000000000000000000000\n        /* \"#utility.yul\":17251:17253   */\n      0x20\n        /* \"#utility.yul\":17243:17249   */\n      dup3\n        /* \"#utility.yul\":17239:17254   */\n      add\n        /* \"#utility.yul\":17232:17280   */\n      mstore\n        /* \"#utility.yul\":17047:17287   */\n      pop\n      jump\t// out\n        /* \"#utility.yul\":17293:17659   */\n    tag_271:\n        /* \"#utility.yul\":17435:17438   */\n      0x00\n        /* \"#utility.yul\":17456:17523   */\n      tag_430\n        /* \"#utility.yul\":17520:17522   */\n      0x35\n        /* \"#utility.yul\":17515:17518   */\n      dup4\n        /* \"#utility.yul\":17456:17523   */\n      tag_244\n      jump\t// in\n    tag_430:\n        /* \"#utility.yul\":17449:17523   */\n      swap2\n      pop\n        /* \"#utility.yul\":17532:17625   */\n      tag_431\n        /* \"#utility.yul\":17621:17624   */\n      dup3\n        /* \"#utility.yul\":17532:17625   */\n      tag_270\n      jump\t// in\n    tag_431:\n        /* \"#utility.yul\":17650:17652   */\n      0x40\n        /* \"#utility.yul\":17645:17648   */\n      dup3\n        /* \"#utility.yul\":17641:17653   */\n      add\n        /* \"#utility.yul\":17634:17653   */\n      swap1\n      pop\n        /* \"#utility.yul\":17293:17659   */\n      swap2\n      swap1\n      pop\n      jump\t// out\n        /* \"#utility.yul\":17665:18084   */\n    tag_107:\n        /* \"#utility.yul\":17831:17835   */\n      0x00\n        /* \"#utility.yul\":17869:17871   */\n      0x20\n        /* \"#utility.yul\":17858:17867   */\n      dup3\n        /* \"#utility.yul\":17854:17872   */\n      add\n        /* \"#utility.yul\":17846:17872   */\n      swap1\n      pop\n        /* \"#utility.yul\":17918:17927   */\n      dup2\n        /* \"#utility.yul\":17912:17916   */\n      dup2\n        /* \"#utility.yul\":17908:17928   */\n      sub\n        /* \"#utility.yul\":17904:17905   */\n      0x00\n        /* \"#utility.yul\":17893:17902   */\n      dup4\n        /* \"#utility.yul\":17889:17906   */\n      add\n        /* \"#utility.yul\":17882:17929   */\n      mstore\n        /* \"#utility.yul\":17946:18077   */\n      tag_433\n        /* \"#utility.yul\":18072:18076   */\n      dup2\n        /* \"#utility.yul\":17946:18077   */\n      tag_271\n      jump\t// in\n    tag_433:\n        /* \"#utility.yul\":17938:18077   */\n      swap1\n      pop\n        /* \"#utility.yul\":17665:18084   */\n      swap2\n      swap1\n      pop\n      jump\t// out\n        /* \"#utility.yul\":18090:18281   */\n    tag_109:\n        /* \"#utility.yul\":18130:18133   */\n      0x00\n        /* \"#utility.yul\":18149:18169   */\n      tag_435\n        /* \"#utility.yul\":18167:18168   */\n      dup3\n        /* \"#utility.yul\":18149:18169   */\n      tag_248\n      jump\t// in\n    tag_435:\n        /* \"#utility.yul\":18144:18169   */\n      swap2\n      pop\n        /* \"#utility.yul\":18183:18203   */\n      tag_436\n        /* \"#utility.yul\":18201:18202   */\n      dup4\n        /* \"#utility.yul\":18183:18203   */\n      tag_248\n      jump\t// in\n    tag_436:\n        /* \"#utility.yul\":18178:18203   */\n      swap3\n      pop\n        /* \"#utility.yul\":18226:18227   */\n      dup3\n        /* \"#utility.yul\":18223:18224   */\n      dup3\n        /* \"#utility.yul\":18219:18228   */\n      add\n        /* \"#utility.yul\":18212:18228   */\n      swap1\n      pop\n        /* \"#utility.yul\":18247:18250   */\n      dup1\n        /* \"#utility.yul\":18244:18245   */\n      dup3\n        /* \"#utility.yul\":18241:18251   */\n      gt\n        /* \"#utility.yul\":18238:18274   */\n      iszero\n      tag_437\n      jumpi\n        /* \"#utility.yul\":18254:18272   */\n      tag_438\n      tag_268\n      jump\t// in\n    tag_438:\n        /* \"#utility.yul\":18238:18274   */\n    tag_437:\n        /* \"#utility.yul\":18090:18281   */\n      swap3\n      swap2\n      pop\n      pop\n      jump\t// out\n        /* \"#utility.yul\":18287:18467   */\n    tag_272:\n        /* \"#utility.yul\":18335:18412   */\n      0x4e487b7100000000000000000000000000000000000000000000000000000000\n        /* \"#utility.yul\":18332:18333   */\n      0x00\n        /* \"#utility.yul\":18325:18413   */\n      mstore\n        /* \"#utility.yul\":18432:18436   */\n      0x22\n        /* \"#utility.yul\":18429:18430   */\n      0x04\n        /* \"#utility.yul\":18422:18437   */\n      mstore\n        /* \"#utility.yul\":18456:18460   */\n      0x24\n        /* \"#utility.yul\":18453:18454   */\n      0x00\n        /* \"#utility.yul\":18446:18461   */\n      revert\n        /* \"#utility.yul\":18473:18793   */\n    tag_123:\n        /* \"#utility.yul\":18517:18523   */\n      0x00\n        /* \"#utility.yul\":18554:18555   */\n      0x02\n        /* \"#utility.yul\":18548:18552   */\n      dup3\n        /* \"#utility.yul\":18544:18556   */\n      div\n        /* \"#utility.yul\":18534:18556   */\n      swap1\n      pop\n        /* \"#utility.yul\":18601:18602   */\n      0x01\n        /* \"#utility.yul\":18595:18599   */\n      dup3\n        /* \"#utility.yul\":18591:18603   */\n      and\n        /* \"#utility.yul\":18622:18640   */\n      dup1\n        /* \"#utility.yul\":18612:18693   */\n      tag_441\n      jumpi\n        /* \"#utility.yul\":18678:18682   */\n      0x7f\n        /* \"#utility.yul\":18670:18676   */\n      dup3\n        /* \"#utility.yul\":18666:18683   */\n      and\n        /* \"#utility.yul\":18656:18683   */\n      swap2\n      pop\n        /* \"#utility.yul\":18612:18693   */\n    tag_441:\n        /* \"#utility.yul\":18740:18742   */\n      0x20\n        /* \"#utility.yul\":18732:18738   */\n      dup3\n        /* \"#utility.yul\":18729:18743   */\n      lt\n        /* \"#utility.yul\":18709:18727   */\n      dup2\n        /* \"#utility.yul\":18706:18744   */\n      sub\n        /* \"#utility.yul\":18703:18787   */\n      tag_442\n      jumpi\n        /* \"#utility.yul\":18759:18777   */\n      tag_443\n      tag_272\n      jump\t// in\n    tag_443:\n        /* \"#utility.yul\":18703:18787   */\n    tag_442:\n        /* \"#utility.yul\":18524:18793   */\n      pop\n        /* \"#utility.yul\":18473:18793   */\n      swap2\n      swap1\n      pop\n      jump\t// out\n        /* \"#utility.yul\":18799:19070   */\n    tag_273:\n        /* \"#utility.yul\":18939:19005   */\n      0x536f6c6f20656c20647565c3b16f20707565646520706167617220616c207072\n        /* \"#utility.yul\":18935:18936   */\n      0x00\n        /* \"#utility.yul\":18927:18933   */\n      dup3\n        /* \"#utility.yul\":18923:18937   */\n      add\n        /* \"#utility.yul\":18916:19006   */\n      mstore\n        /* \"#utility.yul\":19040:19062   */\n      0x6f766565646f722073656c656363696f6e61646f000000000000000000000000\n        /* \"#utility.yul\":19035:19037   */\n      0x20\n        /* \"#utility.yul\":19027:19033   */\n      dup3\n        /* \"#utility.yul\":19023:19038   */\n      add\n        /* \"#utility.yul\":19016:19063   */\n      mstore\n        /* \"#utility.yul\":18799:19070   */\n      pop\n      jump\t// out\n        /* \"#utility.yul\":19076:19442   */\n    tag_274:\n        /* \"#utility.yul\":19218:19221   */\n      0x00\n        /* \"#utility.yul\":19239:19306   */\n      tag_446\n        /* \"#utility.yul\":19303:19305   */\n      0x34\n        /* \"#utility.yul\":19298:19301   */\n      dup4\n        /* \"#utility.yul\":19239:19306   */\n      tag_244\n      jump\t// in\n    tag_446:\n        /* \"#utility.yul\":19232:19306   */\n      swap2\n      pop\n        /* \"#utility.yul\":19315:19408   */\n      tag_447\n        /* \"#utility.yul\":19404:19407   */\n      dup3\n        /* \"#utility.yul\":19315:19408   */\n      tag_273\n      jump\t// in\n    tag_447:\n        /* \"#utility.yul\":19433:19435   */\n      0x40\n        /* \"#utility.yul\":19428:19431   */\n      dup3\n        /* \"#utility.yul\":19424:19436   */\n      add\n        /* \"#utility.yul\":19417:19436   */\n      swap1\n      pop\n        /* \"#utility.yul\":19076:19442   */\n      swap2\n      swap1\n      pop\n      jump\t// out\n        /* \"#utility.yul\":19448:19867   */\n    tag_136:\n        /* \"#utility.yul\":19614:19618   */\n      0x00\n        /* \"#utility.yul\":19652:19654   */\n      0x20\n        /* \"#utility.yul\":19641:19650   */\n      dup3\n        /* \"#utility.yul\":19637:19655   */\n      add\n        /* \"#utility.yul\":19629:19655   */\n      swap1\n      pop\n        /* \"#utility.yul\":19701:19710   */\n      dup2\n        /* \"#utility.yul\":19695:19699   */\n      dup2\n        /* \"#utility.yul\":19691:19711   */\n      sub\n        /* \"#utility.yul\":19687:19688   */\n      0x00\n        /* \"#utility.yul\":19676:19685   */\n      dup4\n        /* \"#utility.yul\":19672:19689   */\n      add\n        /* \"#utility.yul\":19665:19712   */\n      mstore\n        /* \"#utility.yul\":19729:19860   */\n      tag_449\n        /* \"#utility.yul\":19855:19859   */\n      dup2\n        /* \"#utility.yul\":19729:19860   */\n      tag_274\n      jump\t// in\n    tag_449:\n        /* \"#utility.yul\":19721:19860   */\n      swap1\n      pop\n        /* \"#utility.yul\":19448:19867   */\n      swap2\n      swap1\n      pop\n      jump\t// out\n        /* \"#utility.yul\":19873:20049   */\n    tag_275:\n        /* \"#utility.yul\":20013:20041   */\n      0x4e6f20686179206465706f7369746f2070617261207061676172000000000000\n        /* \"#utility.yul\":20009:20010   */\n      0x00\n        /* \"#utility.yul\":20001:20007   */\n      dup3\n        /* \"#utility.yul\":19997:20011   */\n      add\n        /* \"#utility.yul\":19990:20042   */\n      mstore\n        /* \"#utility.yul\":19873:20049   */\n      pop\n      jump\t// out\n        /* \"#utility.yul\":20055:20421   */\n    tag_276:\n        /* \"#utility.yul\":20197:20200   */\n      0x00\n        /* \"#utility.yul\":20218:20285   */\n      tag_452\n        /* \"#utility.yul\":20282:20284   */\n      0x1a\n        /* \"#utility.yul\":20277:20280   */\n      dup4\n        /* \"#utility.yul\":20218:20285   */\n      tag_244\n      jump\t// in\n    tag_452:\n        /* \"#utility.yul\":20211:20285   */\n      swap2\n      pop\n        /* \"#utility.yul\":20294:20387   */\n      tag_453\n        /* \"#utility.yul\":20383:20386   */\n      dup3\n        /* \"#utility.yul\":20294:20387   */\n      tag_275\n      jump\t// in\n    tag_453:\n        /* \"#utility.yul\":20412:20414   */\n      0x20\n        /* \"#utility.yul\":20407:20410   */\n      dup3\n        /* \"#utility.yul\":20403:20415   */\n      add\n        /* \"#utility.yul\":20396:20415   */\n      swap1\n      pop\n        /* \"#utility.yul\":20055:20421   */\n      swap2\n      swap1\n      pop\n      jump\t// out\n        /* \"#utility.yul\":20427:20846   */\n    tag_141:\n        /* \"#utility.yul\":20593:20597   */\n      0x00\n        /* \"#utility.yul\":20631:20633   */\n      0x20\n        /* \"#utility.yul\":20620:20629   */\n      dup3\n        /* \"#utility.yul\":20616:20634   */\n      add\n        /* \"#utility.yul\":20608:20634   */\n      swap1\n      pop\n        /* \"#utility.yul\":20680:20689   */\n      dup2\n        /* \"#utility.yul\":20674:20678   */\n      dup2\n        /* \"#utility.yul\":20670:20690   */\n      sub\n        /* \"#utility.yul\":20666:20667   */\n      0x00\n        /* \"#utility.yul\":20655:20664   */\n      dup4\n        /* \"#utility.yul\":20651:20668   */\n      add\n        /* \"#utility.yul\":20644:20691   */\n      mstore\n        /* \"#utility.yul\":20708:20839   */\n      tag_455\n        /* \"#utility.yul\":20834:20838   */\n      dup2\n        /* \"#utility.yul\":20708:20839   */\n      tag_276\n      jump\t// in\n    tag_455:\n        /* \"#utility.yul\":20700:20839   */\n      swap1\n      pop\n        /* \"#utility.yul\":20427:20846   */\n      swap2\n      swap1\n      pop\n      jump\t// out\n        /* \"#utility.yul\":20852:20999   */\n    tag_277:\n        /* \"#utility.yul\":20953:20964   */\n      0x00\n        /* \"#utility.yul\":20990:20993   */\n      dup2\n        /* \"#utility.yul\":20975:20993   */\n      swap1\n      pop\n        /* \"#utility.yul\":20852:20999   */\n      swap3\n      swap2\n      pop\n      pop\n      jump\t// out\n        /* \"#utility.yul\":21005:21119   */\n    tag_278:\n      pop\n      jump\t// out\n        /* \"#utility.yul\":21125:21523   */\n    tag_279:\n        /* \"#utility.yul\":21284:21287   */\n      0x00\n        /* \"#utility.yul\":21305:21388   */\n      tag_459\n        /* \"#utility.yul\":21386:21387   */\n      0x00\n        /* \"#utility.yul\":21381:21384   */\n      dup4\n        /* \"#utility.yul\":21305:21388   */\n      tag_277\n      jump\t// in\n    tag_459:\n        /* \"#utility.yul\":21298:21388   */\n      swap2\n      pop\n        /* \"#utility.yul\":21397:21490   */\n      tag_460\n        /* \"#utility.yul\":21486:21489   */\n      dup3\n        /* \"#utility.yul\":21397:21490   */\n      tag_278\n      jump\t// in\n    tag_460:\n        /* \"#utility.yul\":21515:21516   */\n      0x00\n        /* \"#utility.yul\":21510:21513   */\n      dup3\n        /* \"#utility.yul\":21506:21517   */\n      add\n        /* \"#utility.yul\":21499:21517   */\n      swap1\n      pop\n        /* \"#utility.yul\":21125:21523   */\n      swap2\n      swap1\n      pop\n      jump\t// out\n        /* \"#utility.yul\":21529:21908   */\n    tag_144:\n        /* \"#utility.yul\":21713:21716   */\n      0x00\n        /* \"#utility.yul\":21735:21882   */\n      tag_462\n        /* \"#utility.yul\":21878:21881   */\n      dup3\n        /* \"#utility.yul\":21735:21882   */\n      tag_279\n      jump\t// in\n    tag_462:\n        /* \"#utility.yul\":21728:21882   */\n      swap2\n      pop\n        /* \"#utility.yul\":21899:21902   */\n      dup2\n        /* \"#utility.yul\":21892:21902   */\n      swap1\n      pop\n        /* \"#utility.yul\":21529:21908   */\n      swap2\n      swap1\n      pop\n      jump\t// out\n        /* \"#utility.yul\":21914:22083   */\n    tag_280:\n        /* \"#utility.yul\":22054:22075   */\n      0x46616c6c6f20616c20656e766961722045544800000000000000000000000000\n        /* \"#utility.yul\":22050:22051   */\n      0x00\n        /* \"#utility.yul\":22042:22048   */\n      dup3\n        /* \"#utility.yul\":22038:22052   */\n      add\n        /* \"#utility.yul\":22031:22076   */\n      mstore\n        /* \"#utility.yul\":21914:22083   */\n      pop\n      jump\t// out\n        /* \"#utility.yul\":22089:22455   */\n    tag_281:\n        /* \"#utility.yul\":22231:22234   */\n      0x00\n        /* \"#utility.yul\":22252:22319   */\n      tag_465\n        /* \"#utility.yul\":22316:22318   */\n      0x13\n        /* \"#utility.yul\":22311:22314   */\n      dup4\n        /* \"#utility.yul\":22252:22319   */\n      tag_244\n      jump\t// in\n    tag_465:\n        /* \"#utility.yul\":22245:22319   */\n      swap2\n      pop\n        /* \"#utility.yul\":22328:22421   */\n      tag_466\n        /* \"#utility.yul\":22417:22420   */\n      dup3\n        /* \"#utility.yul\":22328:22421   */\n      tag_280\n      jump\t// in\n    tag_466:\n        /* \"#utility.yul\":22446:22448   */\n      0x20\n        /* \"#utility.yul\":22441:22444   */\n      dup3\n        /* \"#utility.yul\":22437:22449   */\n      add\n        /* \"#utility.yul\":22430:22449   */\n      swap1\n      pop\n        /* \"#utility.yul\":22089:22455   */\n      swap2\n      swap1\n      pop\n      jump\t// out\n        /* \"#utility.yul\":22461:22880   */\n    tag_150:\n        /* \"#utility.yul\":22627:22631   */\n      0x00\n        /* \"#utility.yul\":22665:22667   */\n      0x20\n        /* \"#utility.yul\":22654:22663   */\n      dup3\n        /* \"#utility.yul\":22650:22668   */\n      add\n        /* \"#utility.yul\":22642:22668   */\n      swap1\n      pop\n        /* \"#utility.yul\":22714:22723   */\n      dup2\n        /* \"#utility.yul\":22708:22712   */\n      dup2\n        /* \"#utility.yul\":22704:22724   */\n      sub\n        /* \"#utility.yul\":22700:22701   */\n      0x00\n        /* \"#utility.yul\":22689:22698   */\n      dup4\n        /* \"#utility.yul\":22685:22702   */\n      add\n        /* \"#utility.yul\":22678:22725   */\n      mstore\n        /* \"#utility.yul\":22742:22873   */\n      tag_468\n        /* \"#utility.yul\":22868:22872   */\n      dup2\n        /* \"#utility.yul\":22742:22873   */\n      tag_281\n      jump\t// in\n    tag_468:\n        /* \"#utility.yul\":22734:22873   */\n      swap1\n      pop\n        /* \"#utility.yul\":22461:22880   */\n      swap2\n      swap1\n      pop\n      jump\t// out\n        /* \"#utility.yul\":22886:23062   */\n    tag_282:\n        /* \"#utility.yul\":23026:23054   */\n      0x4c612073756261737461207961206861207465726d696e61646f000000000000\n        /* \"#utility.yul\":23022:23023   */\n      0x00\n        /* \"#utility.yul\":23014:23020   */\n      dup3\n        /* \"#utility.yul\":23010:23024   */\n      add\n        /* \"#utility.yul\":23003:23055   */\n      mstore\n        /* \"#utility.yul\":22886:23062   */\n      pop\n      jump\t// out\n        /* \"#utility.yul\":23068:23434   */\n    tag_283:\n        /* \"#utility.yul\":23210:23213   */\n      0x00\n        /* \"#utility.yul\":23231:23298   */\n      tag_471\n        /* \"#utility.yul\":23295:23297   */\n      0x1a\n        /* \"#utility.yul\":23290:23293   */\n      dup4\n        /* \"#utility.yul\":23231:23298   */\n      tag_244\n      jump\t// in\n    tag_471:\n        /* \"#utility.yul\":23224:23298   */\n      swap2\n      pop\n        /* \"#utility.yul\":23307:23400   */\n      tag_472\n        /* \"#utility.yul\":23396:23399   */\n      dup3\n        /* \"#utility.yul\":23307:23400   */\n      tag_282\n      jump\t// in\n    tag_472:\n        /* \"#utility.yul\":23425:23427   */\n      0x20\n        /* \"#utility.yul\":23420:23423   */\n      dup3\n        /* \"#utility.yul\":23416:23428   */\n      add\n        /* \"#utility.yul\":23409:23428   */\n      swap1\n      pop\n        /* \"#utility.yul\":23068:23434   */\n      swap2\n      swap1\n      pop\n      jump\t// out\n        /* \"#utility.yul\":23440:23859   */\n    tag_154:\n        /* \"#utility.yul\":23606:23610   */\n      0x00\n        /* \"#utility.yul\":23644:23646   */\n      0x20\n        /* \"#utility.yul\":23633:23642   */\n      dup3\n        /* \"#utility.yul\":23629:23647   */\n      add\n        /* \"#utility.yul\":23621:23647   */\n      swap1\n      pop\n        /* \"#utility.yul\":23693:23702   */\n      dup2\n        /* \"#utility.yul\":23687:23691   */\n      dup2\n        /* \"#utility.yul\":23683:23703   */\n      sub\n        /* \"#utility.yul\":23679:23680   */\n      0x00\n        /* \"#utility.yul\":23668:23677   */\n      dup4\n        /* \"#utility.yul\":23664:23681   */\n      add\n        /* \"#utility.yul\":23657:23704   */\n      mstore\n        /* \"#utility.yul\":23721:23852   */\n      tag_474\n        /* \"#utility.yul\":23847:23851   */\n      dup2\n        /* \"#utility.yul\":23721:23852   */\n      tag_283\n      jump\t// in\n    tag_474:\n        /* \"#utility.yul\":23713:23852   */\n      swap1\n      pop\n        /* \"#utility.yul\":23440:23859   */\n      swap2\n      swap1\n      pop\n      jump\t// out\n        /* \"#utility.yul\":23865:24045   */\n    tag_160:\n        /* \"#utility.yul\":23913:23990   */\n      0x4e487b7100000000000000000000000000000000000000000000000000000000\n        /* \"#utility.yul\":23910:23911   */\n      0x00\n        /* \"#utility.yul\":23903:23991   */\n      mstore\n        /* \"#utility.yul\":24010:24014   */\n      0x32\n        /* \"#utility.yul\":24007:24008   */\n      0x04\n        /* \"#utility.yul\":24000:24015   */\n      mstore\n        /* \"#utility.yul\":24034:24038   */\n      0x24\n        /* \"#utility.yul\":24031:24032   */\n      0x00\n        /* \"#utility.yul\":24024:24039   */\n      revert\n\n    auxdata: 0xa2646970667358221220ca2daaab70012a074470806817df8375afe4b084e20d630e473a425dd6debf8f64736f6c63430008220033\n}\n",
				"bytecode": {
					"linkReferences": {},
					"object": "610100604052348015610010575f5ffd5b50604051612a2c380380612a2c83398181016040528101906100329190610361565b600161005061004561017960201b60201c565b6101a260201b60201c565b5f01819055505f8260ff161161009b576040517f08c379a00000000000000000000000000000000000000000000000000000000081526004016100929061044d565b60405180910390fd5b5f81116100dd576040517f08c379a00000000000000000000000000000000000000000000000000000000081526004016100d4906104db565b60405180910390fd5b825f90816100eb9190610711565b508160ff1660c08160ff168152505042608081815250506201518081610111919061080d565b4261011c919061084e565b60a081815250505f600560156101000a81548160ff0219169083151502179055503373ffffffffffffffffffffffffffffffffffffffff1660e08173ffffffffffffffffffffffffffffffffffffffff1681525050505050610881565b5f7f9b779b17422d0df92223018b32b4d1fa46e071723d6817e2486d003becc55f005f1b905090565b5f819050919050565b5f604051905090565b5f5ffd5b5f5ffd5b5f5ffd5b5f5ffd5b5f601f19601f8301169050919050565b7f4e487b71000000000000000000000000000000000000000000000000000000005f52604160045260245ffd5b61020a826101c4565b810181811067ffffffffffffffff82111715610229576102286101d4565b5b80604052505050565b5f61023b6101ab565b90506102478282610201565b919050565b5f67ffffffffffffffff821115610266576102656101d4565b5b61026f826101c4565b9050602081019050919050565b8281835e5f83830152505050565b5f61029c6102978461024c565b610232565b9050828152602081018484840111156102b8576102b76101c0565b5b6102c384828561027c565b509392505050565b5f82601f8301126102df576102de6101bc565b5b81516102ef84826020860161028a565b91505092915050565b5f60ff82169050919050565b61030d816102f8565b8114610317575f5ffd5b50565b5f8151905061032881610304565b92915050565b5f819050919050565b6103408161032e565b811461034a575f5ffd5b50565b5f8151905061035b81610337565b92915050565b5f5f5f60608486031215610378576103776101b4565b5b5f84015167ffffffffffffffff811115610395576103946101b8565b5b6103a1868287016102cb565b93505060206103b28682870161031a565b92505060406103c38682870161034d565b9150509250925092565b5f82825260208201905092915050565b7f456c2076616c6f72206dc3a178696d6f2064652070756a6120646562652073655f8201527f72206d61796f7220717565203000000000000000000000000000000000000000602082015250565b5f610437602d836103cd565b9150610442826103dd565b604082019050919050565b5f6020820190508181035f8301526104648161042b565b9050919050565b7f4c6120647572616369c3b36e206465206c6120737562617374612064656265205f8201527f73657220646520616c206d656e6f7320312064c3ad6100000000000000000000602082015250565b5f6104c56036836103cd565b91506104d08261046b565b604082019050919050565b5f6020820190508181035f8301526104f2816104b9565b9050919050565b5f81519050919050565b7f4e487b71000000000000000000000000000000000000000000000000000000005f52602260045260245ffd5b5f600282049050600182168061054757607f821691505b60208210810361055a57610559610503565b5b50919050565b5f819050815f5260205f209050919050565b5f6020601f8301049050919050565b5f82821b905092915050565b5f600883026105bc7fffffffffffffffffffffffffffffffffffffffffffffffffffffffffffffffff82610581565b6105c68683610581565b95508019841693508086168417925050509392505050565b5f819050919050565b5f6106016105fc6105f78461032e565b6105de565b61032e565b9050919050565b5f819050919050565b61061a836105e7565b61062e61062682610608565b84845461058d565b825550505050565b5f5f905090565b610645610636565b610650818484610611565b505050565b5f5b828110156106765761066b5f82840161063d565b600181019050610657565b505050565b601f8211156106c957828211156106c85761069581610560565b61069e83610572565b6106a785610572565b60208610156106b4575f90505b8083016106c382840382610655565b505050505b5b505050565b5f82821c905092915050565b5f6106e95f19846008026106ce565b1980831691505092915050565b5f61070183836106da565b9150826002028217905092915050565b61071a826104f9565b67ffffffffffffffff811115610733576107326101d4565b5b61073d8254610530565b61074882828561067b565b5f60209050601f831160018114610779575f8415610767578287015190505b61077185826106f6565b8655506107d8565b601f19841661078786610560565b5f5b828110156107ae57848901518255600182019150602085019450602081019050610789565b868310156107cb57848901516107c7601f8916826106da565b8355505b6001600288020188555050505b505050505050565b7f4e487b71000000000000000000000000000000000000000000000000000000005f52601160045260245ffd5b5f6108178261032e565b91506108228361032e565b92508282026108308161032e565b91508282048414831517610847576108466107e0565b5b5092915050565b5f6108588261032e565b91506108638361032e565b925082820190508082111561087b5761087a6107e0565b5b92915050565b60805160a05160c05160e05161214e6108de5f395f81816102ef01528181610b680152610bdb01525f818161063501528181610af901528181610f7c0152610fa001525f8181610ad50152610b2101525f610eec015261214e5ff3fe6080604052600436106100c1575f3560e01c80633d827e051161007e5780638643337411610058578063864333741461020a5780638da5cb5b14610234578063e0c104851461025e578063e8b10c5614610274576100c1565b80633d827e05146101a057806348a818ad146101ca5780635d3a5703146101f4576100c1565b80631946941a146100c55780632642a3f0146100db5780632bb17b791461010557806333500e261461012f5780633551999d1461014b5780633a685f6114610176575b5f5ffd5b3480156100d0575f5ffd5b506100d961029e565b005b3480156100e6575f5ffd5b506100ef610514565b6040516100fc91906115c2565b60405180910390f35b348015610110575f5ffd5b50610119610527565b604051610126919061161a565b60405180910390f35b61014960048036038101906101449190611661565b61059e565b005b348015610156575f5ffd5b5061015f6108f1565b60405161016d9291906117fa565b60405180910390f35b348015610181575f5ffd5b5061018a610a48565b604051610197919061189f565b60405180910390f35b3480156101ab575f5ffd5b506101b4610ad3565b6040516101c191906118d7565b60405180910390f35b3480156101d5575f5ffd5b506101de610af7565b6040516101eb91906115c2565b60405180910390f35b3480156101ff575f5ffd5b50610208610b1b565b005b348015610215575f5ffd5b5061021e610b53565b60405161022b919061190a565b60405180910390f35b34801561023f575f5ffd5b50610248610b66565b604051610255919061161a565b60405180910390f35b348015610269575f5ffd5b50610272610b8a565b005b34801561027f575f5ffd5b50610288610eea565b60405161029591906118d7565b60405180910390f35b600560159054906101000a900460ff166102ed576040517f08c379a00000000000000000000000000000000000000000000000000000000081526004016102e49061196d565b60405180910390fd5b7f000000000000000000000000000000000000000000000000000000000000000073ffffffffffffffffffffffffffffffffffffffff163373ffffffffffffffffffffffffffffffffffffffff161461037b576040517f08c379a0000000000000000000000000000000000000000000000000000000008152600401610372906119fb565b60405180910390fd5b5f73ffffffffffffffffffffffffffffffffffffffff1660055f9054906101000a900473ffffffffffffffffffffffffffffffffffffffff1673ffffffffffffffffffffffffffffffffffffffff160361040a576040517f08c379a000000000000000000000000000000000000000000000000000000000815260040161040190611a63565b60405180910390fd5b5f60025f60055f9054906101000a900473ffffffffffffffffffffffffffffffffffffffff1673ffffffffffffffffffffffffffffffffffffffff1673ffffffffffffffffffffffffffffffffffffffff1681526020019081526020015f205490505f81116104ae576040517f08c379a00000000000000000000000000000000000000000000000000000000081526004016104a590611acb565b60405180910390fd5b5f60025f60055f9054906101000a900473ffffffffffffffffffffffffffffffffffffffff1673ffffffffffffffffffffffffffffffffffffffff1673ffffffffffffffffffffffffffffffffffffffff1681526020019081526020015f208190555050565b600560149054906101000a900460ff1681565b5f600560159054906101000a900460ff16610577576040517f08c379a000000000000000000000000000000000000000000000000000000000815260040161056e9061196d565b60405180910390fd5b60055f9054906101000a900473ffffffffffffffffffffffffffffffffffffffff16905090565b600560159054906101000a900460ff16156105ee576040517f08c379a00000000000000000000000000000000000000000000000000000000081526004016105e590611b33565b60405180910390fd5b5f8160ff1611610633576040517f08c379a000000000000000000000000000000000000000000000000000000000815260040161062a90611bc1565b60405180910390fd5b7f000000000000000000000000000000000000000000000000000000000000000060ff168160ff16111561069c576040517f08c379a000000000000000000000000000000000000000000000000000000000815260040161069390611c75565b60405180910390fd5b5f60015f3373ffffffffffffffffffffffffffffffffffffffff1673ffffffffffffffffffffffffffffffffffffffff1681526020019081526020015f205f9054906101000a900460ff1660ff161461072a576040517f08c379a000000000000000000000000000000000000000000000000000000000815260040161072190611cdd565b60405180910390fd5b5f6064600a8360ff1661073d9190611d28565b6107479190611d96565b90508034101561078c576040517f08c379a000000000000000000000000000000000000000000000000000000000815260040161078390611e36565b60405180910390fd5b8160015f3373ffffffffffffffffffffffffffffffffffffffff1673ffffffffffffffffffffffffffffffffffffffff1681526020019081526020015f205f6101000a81548160ff021916908360ff1602179055503460025f3373ffffffffffffffffffffffffffffffffffffffff1673ffffffffffffffffffffffffffffffffffffffff1681526020019081526020015f205f82825461082d9190611e54565b92505081905550600333908060018154018082558091505060019003905f5260205f20015f9091909190916101000a81548173ffffffffffffffffffffffffffffffffffffffff021916908373ffffffffffffffffffffffffffffffffffffffff160217905550600482908060018154018082558091505060019003905f5260205f2090602091828204019190069091909190916101000a81548160ff021916908360ff160217905550601e600380549050036108ed576108ec610f0e565b5b5050565b606080600560159054906101000a900460ff16610943576040517f08c379a000000000000000000000000000000000000000000000000000000000815260040161093a9061196d565b60405180910390fd5b60036004818054806020026020016040519081016040528092919081815260200182805480156109c557602002820191905f5260205f20905b815f9054906101000a900473ffffffffffffffffffffffffffffffffffffffff1673ffffffffffffffffffffffffffffffffffffffff168152602001906001019080831161097c575b5050505050915080805480602002602001604051908101604052809291908181526020018280548015610a3957602002820191905f5260205f20905f905b82829054906101000a900460ff1660ff16815260200190600101906020825f01049283019260010382029150808411610a035790505b50505050509050915091509091565b5f8054610a5490611eb4565b80601f0160208091040260200160405190810160405280929190818152602001828054610a8090611eb4565b8015610acb5780601f10610aa257610100808354040283529160200191610acb565b820191905f5260205f20905b815481529060010190602001808311610aae57829003601f168201915b505050505081565b7f000000000000000000000000000000000000000000000000000000000000000081565b7f000000000000000000000000000000000000000000000000000000000000000081565b5f4290507f0000000000000000000000000000000000000000000000000000000000000000811115610b5057610b4f610f0e565b5b50565b600560159054906101000a900460ff1681565b7f000000000000000000000000000000000000000000000000000000000000000081565b600560159054906101000a900460ff16610bd9576040517f08c379a0000000000000000000000000000000000000000000000000000000008152600401610bd09061196d565b60405180910390fd5b7f000000000000000000000000000000000000000000000000000000000000000073ffffffffffffffffffffffffffffffffffffffff163373ffffffffffffffffffffffffffffffffffffffff1614610c67576040517f08c379a0000000000000000000000000000000000000000000000000000000008152600401610c5e90611f54565b60405180910390fd5b5f73ffffffffffffffffffffffffffffffffffffffff1660055f9054906101000a900473ffffffffffffffffffffffffffffffffffffffff1673ffffffffffffffffffffffffffffffffffffffff1603610cf6576040517f08c379a0000000000000000000000000000000000000000000000000000000008152600401610ced90611a63565b60405180910390fd5b5f60025f60055f9054906101000a900473ffffffffffffffffffffffffffffffffffffffff1673ffffffffffffffffffffffffffffffffffffffff1673ffffffffffffffffffffffffffffffffffffffff1681526020019081526020015f205490505f8111610d9a576040517f08c379a0000000000000000000000000000000000000000000000000000000008152600401610d9190611fbc565b60405180910390fd5b5f60025f60055f9054906101000a900473ffffffffffffffffffffffffffffffffffffffff1673ffffffffffffffffffffffffffffffffffffffff1673ffffffffffffffffffffffffffffffffffffffff1681526020019081526020015f2081905550600560149054906101000a900460ff1660ff1681610e1b9190611e54565b90505f60055f9054906101000a900473ffffffffffffffffffffffffffffffffffffffff1673ffffffffffffffffffffffffffffffffffffffff1682604051610e6390612007565b5f6040518083038185875af1925050503d805f8114610e9d576040519150601f19603f3d011682016040523d82523d5f602084013e610ea2565b606091505b5050905080610ee6576040517f08c379a0000000000000000000000000000000000000000000000000000000008152600401610edd90612065565b60405180910390fd5b5050565b7f000000000000000000000000000000000000000000000000000000000000000081565b600560159054906101000a900460ff1615610f5e576040517f08c379a0000000000000000000000000000000000000000000000000000000008152600401610f55906120cd565b60405180910390fd5b6001600560156101000a81548160ff0219169083151502179055505f7f000000000000000000000000000000000000000000000000000000000000000090505f7f000000000000000000000000000000000000000000000000000000000000000090505f6003805490500315611287576001600380549050036110e05760035f81548110610fef57610fee6120eb565b5b905f5260205f20015f9054906101000a900473ffffffffffffffffffffffffffffffffffffffff1660055f6101000a81548173ffffffffffffffffffffffffffffffffffffffff021916908373ffffffffffffffffffffffffffffffffffffffff16021790555060015f60055f9054906101000a900473ffffffffffffffffffffffffffffffffffffffff1673ffffffffffffffffffffffffffffffffffffffff1673ffffffffffffffffffffffffffffffffffffffff1681526020019081526020015f205f9054906101000a900460ff16600560146101000a81548160ff021916908360ff160217905550611286565b5f60038054905090505f5f90505b8181101561127b575f60015f6003848154811061110e5761110d6120eb565b5b905f5260205f20015f9054906101000a900473ffffffffffffffffffffffffffffffffffffffff1673ffffffffffffffffffffffffffffffffffffffff1673ffffffffffffffffffffffffffffffffffffffff1681526020019081526020015f205f9054906101000a900460ff1690508460ff168160ff16101561122d57849350809450600382815481106111a6576111a56120eb565b5b905f5260205f20015f9054906101000a900473ffffffffffffffffffffffffffffffffffffffff1660055f6101000a81548173ffffffffffffffffffffffffffffffffffffffff021916908373ffffffffffffffffffffffffffffffffffffffff16021790555083600560146101000a81548160ff021916908360ff16021790555061126d565b8360ff168160ff1610801561124857508460ff168160ff1614155b1561126c5780935083600560146101000a81548160ff021916908360ff1602179055505b5b5080806001019150506110ee565b5061128461128b565b505b5b5050565b6112936114dc565b600560159054906101000a900460ff166112e2576040517f08c379a00000000000000000000000000000000000000000000000000000000081526004016112d99061196d565b60405180910390fd5b5f60038054905090505f5f90505b818110156114d0575f6003828154811061130d5761130c6120eb565b5b905f5260205f20015f9054906101000a900473ffffffffffffffffffffffffffffffffffffffff16905060055f9054906101000a900473ffffffffffffffffffffffffffffffffffffffff1673ffffffffffffffffffffffffffffffffffffffff168173ffffffffffffffffffffffffffffffffffffffff16146114c2575f60025f8373ffffffffffffffffffffffffffffffffffffffff1673ffffffffffffffffffffffffffffffffffffffff1681526020019081526020015f205490505f8111156114c0575f60025f8473ffffffffffffffffffffffffffffffffffffffff1673ffffffffffffffffffffffffffffffffffffffff1681526020019081526020015f20819055505f8273ffffffffffffffffffffffffffffffffffffffff168260405161143b90612007565b5f6040518083038185875af1925050503d805f8114611475576040519150601f19603f3d011682016040523d82523d5f602084013e61147a565b606091505b50509050806114be576040517f08c379a00000000000000000000000000000000000000000000000000000000081526004016114b590612065565b60405180910390fd5b505b505b5080806001019150506112f0565b50506114da6114fe565b565b6114e4611518565b60026114f66114f1611559565b611582565b5f0181905550565b600161151061150b611559565b611582565b5f0181905550565b61152061158b565b15611557576040517f3ee5aeb500000000000000000000000000000000000000000000000000000000815260040160405180910390fd5b565b5f7f9b779b17422d0df92223018b32b4d1fa46e071723d6817e2486d003becc55f005f1b905090565b5f819050919050565b5f600261159e611599611559565b611582565b5f015414905090565b5f60ff82169050919050565b6115bc816115a7565b82525050565b5f6020820190506115d55f8301846115b3565b92915050565b5f73ffffffffffffffffffffffffffffffffffffffff82169050919050565b5f611604826115db565b9050919050565b611614816115fa565b82525050565b5f60208201905061162d5f83018461160b565b92915050565b5f5ffd5b611640816115a7565b811461164a575f5ffd5b50565b5f8135905061165b81611637565b92915050565b5f6020828403121561167657611675611633565b5b5f6116838482850161164d565b91505092915050565b5f81519050919050565b5f82825260208201905092915050565b5f819050602082019050919050565b6116be816115fa565b82525050565b5f6116cf83836116b5565b60208301905092915050565b5f602082019050919050565b5f6116f18261168c565b6116fb8185611696565b9350611706836116a6565b805f5b8381101561173657815161171d88826116c4565b9750611728836116db565b925050600181019050611709565b5085935050505092915050565b5f81519050919050565b5f82825260208201905092915050565b5f819050602082019050919050565b611775816115a7565b82525050565b5f611786838361176c565b60208301905092915050565b5f602082019050919050565b5f6117a882611743565b6117b2818561174d565b93506117bd8361175d565b805f5b838110156117ed5781516117d4888261177b565b97506117df83611792565b9250506001810190506117c0565b5085935050505092915050565b5f6040820190508181035f83015261181281856116e7565b90508181036020830152611826818461179e565b90509392505050565b5f81519050919050565b5f82825260208201905092915050565b8281835e5f83830152505050565b5f601f19601f8301169050919050565b5f6118718261182f565b61187b8185611839565b935061188b818560208601611849565b61189481611857565b840191505092915050565b5f6020820190508181035f8301526118b78184611867565b905092915050565b5f819050919050565b6118d1816118bf565b82525050565b5f6020820190506118ea5f8301846118c8565b92915050565b5f8115159050919050565b611904816118f0565b82525050565b5f60208201905061191d5f8301846118fb565b92915050565b7f4c612073756261737461206e6f206861207465726d696e61646f0000000000005f82015250565b5f611957601a83611839565b915061196282611923565b602082019050919050565b5f6020820190508181035f8301526119848161194b565b9050919050565b7f536f6c6f20656c20647565c3b16f2070756564652070656e616c697a617220615f8201527f6c2070726f766565646f722073656c656363696f6e61646f0000000000000000602082015250565b5f6119e5603883611839565b91506119f08261198b565b604082019050919050565b5f6020820190508181035f830152611a12816119d9565b9050919050565b7f4e6f206861792070726f766565646f722073656c656363696f6e61646f0000005f82015250565b5f611a4d601d83611839565b9150611a5882611a19565b602082019050919050565b5f6020820190508181035f830152611a7a81611a41565b9050919050565b7f4e6f20686179206465706f7369746f20706172612070656e616c697a617200005f82015250565b5f611ab5601e83611839565b9150611ac082611a81565b602082019050919050565b5f6020820190508181035f830152611ae281611aa9565b9050919050565b7f4c612073756261737461206861207465726d696e61646f0000000000000000005f82015250565b5f611b1d601783611839565b9150611b2882611ae9565b602082019050919050565b5f6020820190508181035f830152611b4a81611b11565b9050919050565b7f4c612070756a6120646562652073657220756e2076616c6f7220706f736974695f8201527f766f206d61796f72207175652030000000000000000000000000000000000000602082015250565b5f611bab602e83611839565b9150611bb682611b51565b604082019050919050565b5f6020820190508181035f830152611bd881611b9f565b9050919050565b7f4c612070756a6120646562652073657220756e2076616c6f7220696775616c205f8201527f6f20706f7220646562616a6f2064656c2076616c6f72206dc3a178696d6f206460208201527f6566696e69646f20706f7220656c20736572766963696f2064652073616c7564604082015250565b5f611c5f606083611839565b9150611c6a82611bdf565b606082019050919050565b5f6020820190508181035f830152611c8c81611c53565b9050919050565b7f596120686173207265616c697a61646f20756e612070756a61000000000000005f82015250565b5f611cc7601983611839565b9150611cd282611c93565b602082019050919050565b5f6020820190508181035f830152611cf481611cbb565b9050919050565b7f4e487b71000000000000000000000000000000000000000000000000000000005f52601160045260245ffd5b5f611d32826118bf565b9150611d3d836118bf565b9250828202611d4b816118bf565b91508282048414831517611d6257611d61611cfb565b5b5092915050565b7f4e487b71000000000000000000000000000000000000000000000000000000005f52601260045260245ffd5b5f611da0826118bf565b9150611dab836118bf565b925082611dbb57611dba611d69565b5b828204905092915050565b7f446562657320656e7669617220616c206d656e6f7320656c20313025206465205f8201527f74752070756a6120636f6d6f206465706f7369746f0000000000000000000000602082015250565b5f611e20603583611839565b9150611e2b82611dc6565b604082019050919050565b5f6020820190508181035f830152611e4d81611e14565b9050919050565b5f611e5e826118bf565b9150611e69836118bf565b9250828201905080821115611e8157611e80611cfb565b5b92915050565b7f4e487b71000000000000000000000000000000000000000000000000000000005f52602260045260245ffd5b5f6002820490506001821680611ecb57607f821691505b602082108103611ede57611edd611e87565b5b50919050565b7f536f6c6f20656c20647565c3b16f20707565646520706167617220616c2070725f8201527f6f766565646f722073656c656363696f6e61646f000000000000000000000000602082015250565b5f611f3e603483611839565b9150611f4982611ee4565b604082019050919050565b5f6020820190508181035f830152611f6b81611f32565b9050919050565b7f4e6f20686179206465706f7369746f20706172612070616761720000000000005f82015250565b5f611fa6601a83611839565b9150611fb182611f72565b602082019050919050565b5f6020820190508181035f830152611fd381611f9a565b9050919050565b5f81905092915050565b50565b5f611ff25f83611fda565b9150611ffd82611fe4565b5f82019050919050565b5f61201182611fe7565b9150819050919050565b7f46616c6c6f20616c20656e7669617220455448000000000000000000000000005f82015250565b5f61204f601383611839565b915061205a8261201b565b602082019050919050565b5f6020820190508181035f83015261207c81612043565b9050919050565b7f4c612073756261737461207961206861207465726d696e61646f0000000000005f82015250565b5f6120b7601a83611839565b91506120c282612083565b602082019050919050565b5f6020820190508181035f8301526120e4816120ab565b9050919050565b7f4e487b71000000000000000000000000000000000000000000000000000000005f52603260045260245ffdfea2646970667358221220ca2daaab70012a074470806817df8375afe4b084e20d630e473a425dd6debf8f64736f6c63430008220033",
					"opcodes": "PUSH2 0x100 PUSH1 0x40 MSTORE CALLVALUE DUP1 ISZERO PUSH2 0x10 JUMPI PUSH0 PUSH0 REVERT JUMPDEST POP PUSH1 0x40 MLOAD PUSH2 0x2A2C CODESIZE SUB DUP1 PUSH2 0x2A2C DUP4 CODECOPY DUP2 DUP2 ADD PUSH1 0x40 MSTORE DUP2 ADD SWAP1 PUSH2 0x32 SWAP2 SWAP1 PUSH2 0x361 JUMP JUMPDEST PUSH1 0x1 PUSH2 0x50 PUSH2 0x45 PUSH2 0x179 PUSH1 0x20 SHL PUSH1 0x20 SHR JUMP JUMPDEST PUSH2 0x1A2 PUSH1 0x20 SHL PUSH1 0x20 SHR JUMP JUMPDEST PUSH0 ADD DUP2 SWAP1 SSTORE POP PUSH0 DUP3 PUSH1 0xFF AND GT PUSH2 0x9B JUMPI PUSH1 0x40 MLOAD PUSH32 0x8C379A000000000000000000000000000000000000000000000000000000000 DUP2 MSTORE PUSH1 0x4 ADD PUSH2 0x92 SWAP1 PUSH2 0x44D JUMP JUMPDEST PUSH1 0x40 MLOAD DUP1 SWAP2 SUB SWAP1 REVERT JUMPDEST PUSH0 DUP2 GT PUSH2 0xDD JUMPI PUSH1 0x40 MLOAD PUSH32 0x8C379A000000000000000000000000000000000000000000000000000000000 DUP2 MSTORE PUSH1 0x4 ADD PUSH2 0xD4 SWAP1 PUSH2 0x4DB JUMP JUMPDEST PUSH1 0x40 MLOAD DUP1 SWAP2 SUB SWAP1 REVERT JUMPDEST DUP3 PUSH0 SWAP1 DUP2 PUSH2 0xEB SWAP2 SWAP1 PUSH2 0x711 JUMP JUMPDEST POP DUP2 PUSH1 0xFF AND PUSH1 0xC0 DUP2 PUSH1 0xFF AND DUP2 MSTORE POP POP TIMESTAMP PUSH1 0x80 DUP2 DUP2 MSTORE POP POP PUSH3 0x15180 DUP2 PUSH2 0x111 SWAP2 SWAP1 PUSH2 0x80D JUMP JUMPDEST TIMESTAMP PUSH2 0x11C SWAP2 SWAP1 PUSH2 0x84E JUMP JUMPDEST PUSH1 0xA0 DUP2 DUP2 MSTORE POP POP PUSH0 PUSH1 0x5 PUSH1 0x15 PUSH2 0x100 EXP DUP2 SLOAD DUP2 PUSH1 0xFF MUL NOT AND SWAP1 DUP4 ISZERO ISZERO MUL OR SWAP1 SSTORE POP CALLER PUSH20 0xFFFFFFFFFFFFFFFFFFFFFFFFFFFFFFFFFFFFFFFF AND PUSH1 0xE0 DUP2 PUSH20 0xFFFFFFFFFFFFFFFFFFFFFFFFFFFFFFFFFFFFFFFF AND DUP2 MSTORE POP POP POP POP POP PUSH2 0x881 JUMP JUMPDEST PUSH0 PUSH32 0x9B779B17422D0DF92223018B32B4D1FA46E071723D6817E2486D003BECC55F00 PUSH0 SHL SWAP1 POP SWAP1 JUMP JUMPDEST PUSH0 DUP2 SWAP1 POP SWAP2 SWAP1 POP JUMP JUMPDEST PUSH0 PUSH1 0x40 MLOAD SWAP1 POP SWAP1 JUMP JUMPDEST PUSH0 PUSH0 REVERT JUMPDEST PUSH0 PUSH0 REVERT JUMPDEST PUSH0 PUSH0 REVERT JUMPDEST PUSH0 PUSH0 REVERT JUMPDEST PUSH0 PUSH1 0x1F NOT PUSH1 0x1F DUP4 ADD AND SWAP1 POP SWAP2 SWAP1 POP JUMP JUMPDEST PUSH32 0x4E487B7100000000000000000000000000000000000000000000000000000000 PUSH0 MSTORE PUSH1 0x41 PUSH1 0x4 MSTORE PUSH1 0x24 PUSH0 REVERT JUMPDEST PUSH2 0x20A DUP3 PUSH2 0x1C4 JUMP JUMPDEST DUP2 ADD DUP2 DUP2 LT PUSH8 0xFFFFFFFFFFFFFFFF DUP3 GT OR ISZERO PUSH2 0x229 JUMPI PUSH2 0x228 PUSH2 0x1D4 JUMP JUMPDEST JUMPDEST DUP1 PUSH1 0x40 MSTORE POP POP POP JUMP JUMPDEST PUSH0 PUSH2 0x23B PUSH2 0x1AB JUMP JUMPDEST SWAP1 POP PUSH2 0x247 DUP3 DUP3 PUSH2 0x201 JUMP JUMPDEST SWAP2 SWAP1 POP JUMP JUMPDEST PUSH0 PUSH8 0xFFFFFFFFFFFFFFFF DUP3 GT ISZERO PUSH2 0x266 JUMPI PUSH2 0x265 PUSH2 0x1D4 JUMP JUMPDEST JUMPDEST PUSH2 0x26F DUP3 PUSH2 0x1C4 JUMP JUMPDEST SWAP1 POP PUSH1 0x20 DUP2 ADD SWAP1 POP SWAP2 SWAP1 POP JUMP JUMPDEST DUP3 DUP2 DUP4 MCOPY PUSH0 DUP4 DUP4 ADD MSTORE POP POP POP JUMP JUMPDEST PUSH0 PUSH2 0x29C PUSH2 0x297 DUP5 PUSH2 0x24C JUMP JUMPDEST PUSH2 0x232 JUMP JUMPDEST SWAP1 POP DUP3 DUP2 MSTORE PUSH1 0x20 DUP2 ADD DUP5 DUP5 DUP5 ADD GT ISZERO PUSH2 0x2B8 JUMPI PUSH2 0x2B7 PUSH2 0x1C0 JUMP JUMPDEST JUMPDEST PUSH2 0x2C3 DUP5 DUP3 DUP6 PUSH2 0x27C JUMP JUMPDEST POP SWAP4 SWAP3 POP POP POP JUMP JUMPDEST PUSH0 DUP3 PUSH1 0x1F DUP4 ADD SLT PUSH2 0x2DF JUMPI PUSH2 0x2DE PUSH2 0x1BC JUMP JUMPDEST JUMPDEST DUP2 MLOAD PUSH2 0x2EF DUP5 DUP3 PUSH1 0x20 DUP7 ADD PUSH2 0x28A JUMP JUMPDEST SWAP2 POP POP SWAP3 SWAP2 POP POP JUMP JUMPDEST PUSH0 PUSH1 0xFF DUP3 AND SWAP1 POP SWAP2 SWAP1 POP JUMP JUMPDEST PUSH2 0x30D DUP2 PUSH2 0x2F8 JUMP JUMPDEST DUP2 EQ PUSH2 0x317 JUMPI PUSH0 PUSH0 REVERT JUMPDEST POP JUMP JUMPDEST PUSH0 DUP2 MLOAD SWAP1 POP PUSH2 0x328 DUP2 PUSH2 0x304 JUMP JUMPDEST SWAP3 SWAP2 POP POP JUMP JUMPDEST PUSH0 DUP2 SWAP1 POP SWAP2 SWAP1 POP JUMP JUMPDEST PUSH2 0x340 DUP2 PUSH2 0x32E JUMP JUMPDEST DUP2 EQ PUSH2 0x34A JUMPI PUSH0 PUSH0 REVERT JUMPDEST POP JUMP JUMPDEST PUSH0 DUP2 MLOAD SWAP1 POP PUSH2 0x35B DUP2 PUSH2 0x337 JUMP JUMPDEST SWAP3 SWAP2 POP POP JUMP JUMPDEST PUSH0 PUSH0 PUSH0 PUSH1 0x60 DUP5 DUP7 SUB SLT ISZERO PUSH2 0x378 JUMPI PUSH2 0x377 PUSH2 0x1B4 JUMP JUMPDEST JUMPDEST PUSH0 DUP5 ADD MLOAD PUSH8 0xFFFFFFFFFFFFFFFF DUP2 GT ISZERO PUSH2 0x395 JUMPI PUSH2 0x394 PUSH2 0x1B8 JUMP JUMPDEST JUMPDEST PUSH2 0x3A1 DUP7 DUP3 DUP8 ADD PUSH2 0x2CB JUMP JUMPDEST SWAP4 POP POP PUSH1 0x20 PUSH2 0x3B2 DUP7 DUP3 DUP8 ADD PUSH2 0x31A JUMP JUMPDEST SWAP3 POP POP PUSH1 0x40 PUSH2 0x3C3 DUP7 DUP3 DUP8 ADD PUSH2 0x34D JUMP JUMPDEST SWAP2 POP POP SWAP3 POP SWAP3 POP SWAP3 JUMP JUMPDEST PUSH0 DUP3 DUP3 MSTORE PUSH1 0x20 DUP3 ADD SWAP1 POP SWAP3 SWAP2 POP POP JUMP JUMPDEST PUSH32 0x456C2076616C6F72206DC3A178696D6F2064652070756A612064656265207365 PUSH0 DUP3 ADD MSTORE PUSH32 0x72206D61796F7220717565203000000000000000000000000000000000000000 PUSH1 0x20 DUP3 ADD MSTORE POP JUMP JUMPDEST PUSH0 PUSH2 0x437 PUSH1 0x2D DUP4 PUSH2 0x3CD JUMP JUMPDEST SWAP2 POP PUSH2 0x442 DUP3 PUSH2 0x3DD JUMP JUMPDEST PUSH1 0x40 DUP3 ADD SWAP1 POP SWAP2 SWAP1 POP JUMP JUMPDEST PUSH0 PUSH1 0x20 DUP3 ADD SWAP1 POP DUP2 DUP2 SUB PUSH0 DUP4 ADD MSTORE PUSH2 0x464 DUP2 PUSH2 0x42B JUMP JUMPDEST SWAP1 POP SWAP2 SWAP1 POP JUMP JUMPDEST PUSH32 0x4C6120647572616369C3B36E206465206C612073756261737461206465626520 PUSH0 DUP3 ADD MSTORE PUSH32 0x73657220646520616C206D656E6F7320312064C3AD6100000000000000000000 PUSH1 0x20 DUP3 ADD MSTORE POP JUMP JUMPDEST PUSH0 PUSH2 0x4C5 PUSH1 0x36 DUP4 PUSH2 0x3CD JUMP JUMPDEST SWAP2 POP PUSH2 0x4D0 DUP3 PUSH2 0x46B JUMP JUMPDEST PUSH1 0x40 DUP3 ADD SWAP1 POP SWAP2 SWAP1 POP JUMP JUMPDEST PUSH0 PUSH1 0x20 DUP3 ADD SWAP1 POP DUP2 DUP2 SUB PUSH0 DUP4 ADD MSTORE PUSH2 0x4F2 DUP2 PUSH2 0x4B9 JUMP JUMPDEST SWAP1 POP SWAP2 SWAP1 POP JUMP JUMPDEST PUSH0 DUP2 MLOAD SWAP1 POP SWAP2 SWAP1 POP JUMP JUMPDEST PUSH32 0x4E487B7100000000000000000000000000000000000000000000000000000000 PUSH0 MSTORE PUSH1 0x22 PUSH1 0x4 MSTORE PUSH1 0x24 PUSH0 REVERT JUMPDEST PUSH0 PUSH1 0x2 DUP3 DIV SWAP1 POP PUSH1 0x1 DUP3 AND DUP1 PUSH2 0x547 JUMPI PUSH1 0x7F DUP3 AND SWAP2 POP JUMPDEST PUSH1 0x20 DUP3 LT DUP2 SUB PUSH2 0x55A JUMPI PUSH2 0x559 PUSH2 0x503 JUMP JUMPDEST JUMPDEST POP SWAP2 SWAP1 POP JUMP JUMPDEST PUSH0 DUP2 SWAP1 POP DUP2 PUSH0 MSTORE PUSH1 0x20 PUSH0 KECCAK256 SWAP1 POP SWAP2 SWAP1 POP JUMP JUMPDEST PUSH0 PUSH1 0x20 PUSH1 0x1F DUP4 ADD DIV SWAP1 POP SWAP2 SWAP1 POP JUMP JUMPDEST PUSH0 DUP3 DUP3 SHL SWAP1 POP SWAP3 SWAP2 POP POP JUMP JUMPDEST PUSH0 PUSH1 0x8 DUP4 MUL PUSH2 0x5BC PUSH32 0xFFFFFFFFFFFFFFFFFFFFFFFFFFFFFFFFFFFFFFFFFFFFFFFFFFFFFFFFFFFFFFFF DUP3 PUSH2 0x581 JUMP JUMPDEST PUSH2 0x5C6 DUP7 DUP4 PUSH2 0x581 JUMP JUMPDEST SWAP6 POP DUP1 NOT DUP5 AND SWAP4 POP DUP1 DUP7 AND DUP5 OR SWAP3 POP POP POP SWAP4 SWAP3 POP POP POP JUMP JUMPDEST PUSH0 DUP2 SWAP1 POP SWAP2 SWAP1 POP JUMP JUMPDEST PUSH0 PUSH2 0x601 PUSH2 0x5FC PUSH2 0x5F7 DUP5 PUSH2 0x32E JUMP JUMPDEST PUSH2 0x5DE JUMP JUMPDEST PUSH2 0x32E JUMP JUMPDEST SWAP1 POP SWAP2 SWAP1 POP JUMP JUMPDEST PUSH0 DUP2 SWAP1 POP SWAP2 SWAP1 POP JUMP JUMPDEST PUSH2 0x61A DUP4 PUSH2 0x5E7 JUMP JUMPDEST PUSH2 0x62E PUSH2 0x626 DUP3 PUSH2 0x608 JUMP JUMPDEST DUP5 DUP5 SLOAD PUSH2 0x58D JUMP JUMPDEST DUP3 SSTORE POP POP POP POP JUMP JUMPDEST PUSH0 PUSH0 SWAP1 POP SWAP1 JUMP JUMPDEST PUSH2 0x645 PUSH2 0x636 JUMP JUMPDEST PUSH2 0x650 DUP2 DUP5 DUP5 PUSH2 0x611 JUMP JUMPDEST POP POP POP JUMP JUMPDEST PUSH0 JUMPDEST DUP3 DUP2 LT ISZERO PUSH2 0x676 JUMPI PUSH2 0x66B PUSH0 DUP3 DUP5 ADD PUSH2 0x63D JUMP JUMPDEST PUSH1 0x1 DUP2 ADD SWAP1 POP PUSH2 0x657 JUMP JUMPDEST POP POP POP JUMP JUMPDEST PUSH1 0x1F DUP3 GT ISZERO PUSH2 0x6C9 JUMPI DUP3 DUP3 GT ISZERO PUSH2 0x6C8 JUMPI PUSH2 0x695 DUP2 PUSH2 0x560 JUMP JUMPDEST PUSH2 0x69E DUP4 PUSH2 0x572 JUMP JUMPDEST PUSH2 0x6A7 DUP6 PUSH2 0x572 JUMP JUMPDEST PUSH1 0x20 DUP7 LT ISZERO PUSH2 0x6B4 JUMPI PUSH0 SWAP1 POP JUMPDEST DUP1 DUP4 ADD PUSH2 0x6C3 DUP3 DUP5 SUB DUP3 PUSH2 0x655 JUMP JUMPDEST POP POP POP POP JUMPDEST JUMPDEST POP POP POP JUMP JUMPDEST PUSH0 DUP3 DUP3 SHR SWAP1 POP SWAP3 SWAP2 POP POP JUMP JUMPDEST PUSH0 PUSH2 0x6E9 PUSH0 NOT DUP5 PUSH1 0x8 MUL PUSH2 0x6CE JUMP JUMPDEST NOT DUP1 DUP4 AND SWAP2 POP POP SWAP3 SWAP2 POP POP JUMP JUMPDEST PUSH0 PUSH2 0x701 DUP4 DUP4 PUSH2 0x6DA JUMP JUMPDEST SWAP2 POP DUP3 PUSH1 0x2 MUL DUP3 OR SWAP1 POP SWAP3 SWAP2 POP POP JUMP JUMPDEST PUSH2 0x71A DUP3 PUSH2 0x4F9 JUMP JUMPDEST PUSH8 0xFFFFFFFFFFFFFFFF DUP2 GT ISZERO PUSH2 0x733 JUMPI PUSH2 0x732 PUSH2 0x1D4 JUMP JUMPDEST JUMPDEST PUSH2 0x73D DUP3 SLOAD PUSH2 0x530 JUMP JUMPDEST PUSH2 0x748 DUP3 DUP3 DUP6 PUSH2 0x67B JUMP JUMPDEST PUSH0 PUSH1 0x20 SWAP1 POP PUSH1 0x1F DUP4 GT PUSH1 0x1 DUP2 EQ PUSH2 0x779 JUMPI PUSH0 DUP5 ISZERO PUSH2 0x767 JUMPI DUP3 DUP8 ADD MLOAD SWAP1 POP JUMPDEST PUSH2 0x771 DUP6 DUP3 PUSH2 0x6F6 JUMP JUMPDEST DUP7 SSTORE POP PUSH2 0x7D8 JUMP JUMPDEST PUSH1 0x1F NOT DUP5 AND PUSH2 0x787 DUP7 PUSH2 0x560 JUMP JUMPDEST PUSH0 JUMPDEST DUP3 DUP2 LT ISZERO PUSH2 0x7AE JUMPI DUP5 DUP10 ADD MLOAD DUP3 SSTORE PUSH1 0x1 DUP3 ADD SWAP2 POP PUSH1 0x20 DUP6 ADD SWAP5 POP PUSH1 0x20 DUP2 ADD SWAP1 POP PUSH2 0x789 JUMP JUMPDEST DUP7 DUP4 LT ISZERO PUSH2 0x7CB JUMPI DUP5 DUP10 ADD MLOAD PUSH2 0x7C7 PUSH1 0x1F DUP10 AND DUP3 PUSH2 0x6DA JUMP JUMPDEST DUP4 SSTORE POP JUMPDEST PUSH1 0x1 PUSH1 0x2 DUP9 MUL ADD DUP9 SSTORE POP POP POP JUMPDEST POP POP POP POP POP POP JUMP JUMPDEST PUSH32 0x4E487B7100000000000000000000000000000000000000000000000000000000 PUSH0 MSTORE PUSH1 0x11 PUSH1 0x4 MSTORE PUSH1 0x24 PUSH0 REVERT JUMPDEST PUSH0 PUSH2 0x817 DUP3 PUSH2 0x32E JUMP JUMPDEST SWAP2 POP PUSH2 0x822 DUP4 PUSH2 0x32E JUMP JUMPDEST SWAP3 POP DUP3 DUP3 MUL PUSH2 0x830 DUP2 PUSH2 0x32E JUMP JUMPDEST SWAP2 POP DUP3 DUP3 DIV DUP5 EQ DUP4 ISZERO OR PUSH2 0x847 JUMPI PUSH2 0x846 PUSH2 0x7E0 JUMP JUMPDEST JUMPDEST POP SWAP3 SWAP2 POP POP JUMP JUMPDEST PUSH0 PUSH2 0x858 DUP3 PUSH2 0x32E JUMP JUMPDEST SWAP2 POP PUSH2 0x863 DUP4 PUSH2 0x32E JUMP JUMPDEST SWAP3 POP DUP3 DUP3 ADD SWAP1 POP DUP1 DUP3 GT ISZERO PUSH2 0x87B JUMPI PUSH2 0x87A PUSH2 0x7E0 JUMP JUMPDEST JUMPDEST SWAP3 SWAP2 POP POP JUMP JUMPDEST PUSH1 0x80 MLOAD PUSH1 0xA0 MLOAD PUSH1 0xC0 MLOAD PUSH1 0xE0 MLOAD PUSH2 0x214E PUSH2 0x8DE PUSH0 CODECOPY PUSH0 DUP2 DUP2 PUSH2 0x2EF ADD MSTORE DUP2 DUP2 PUSH2 0xB68 ADD MSTORE PUSH2 0xBDB ADD MSTORE PUSH0 DUP2 DUP2 PUSH2 0x635 ADD MSTORE DUP2 DUP2 PUSH2 0xAF9 ADD MSTORE DUP2 DUP2 PUSH2 0xF7C ADD MSTORE PUSH2 0xFA0 ADD MSTORE PUSH0 DUP2 DUP2 PUSH2 0xAD5 ADD MSTORE PUSH2 0xB21 ADD MSTORE PUSH0 PUSH2 0xEEC ADD MSTORE PUSH2 0x214E PUSH0 RETURN INVALID PUSH1 0x80 PUSH1 0x40 MSTORE PUSH1 0x4 CALLDATASIZE LT PUSH2 0xC1 JUMPI PUSH0 CALLDATALOAD PUSH1 0xE0 SHR DUP1 PUSH4 0x3D827E05 GT PUSH2 0x7E JUMPI DUP1 PUSH4 0x86433374 GT PUSH2 0x58 JUMPI DUP1 PUSH4 0x86433374 EQ PUSH2 0x20A JUMPI DUP1 PUSH4 0x8DA5CB5B EQ PUSH2 0x234 JUMPI DUP1 PUSH4 0xE0C10485 EQ PUSH2 0x25E JUMPI DUP1 PUSH4 0xE8B10C56 EQ PUSH2 0x274 JUMPI PUSH2 0xC1 JUMP JUMPDEST DUP1 PUSH4 0x3D827E05 EQ PUSH2 0x1A0 JUMPI DUP1 PUSH4 0x48A818AD EQ PUSH2 0x1CA JUMPI DUP1 PUSH4 0x5D3A5703 EQ PUSH2 0x1F4 JUMPI PUSH2 0xC1 JUMP JUMPDEST DUP1 PUSH4 0x1946941A EQ PUSH2 0xC5 JUMPI DUP1 PUSH4 0x2642A3F0 EQ PUSH2 0xDB JUMPI DUP1 PUSH4 0x2BB17B79 EQ PUSH2 0x105 JUMPI DUP1 PUSH4 0x33500E26 EQ PUSH2 0x12F JUMPI DUP1 PUSH4 0x3551999D EQ PUSH2 0x14B JUMPI DUP1 PUSH4 0x3A685F61 EQ PUSH2 0x176 JUMPI JUMPDEST PUSH0 PUSH0 REVERT JUMPDEST CALLVALUE DUP1 ISZERO PUSH2 0xD0 JUMPI PUSH0 PUSH0 REVERT JUMPDEST POP PUSH2 0xD9 PUSH2 0x29E JUMP JUMPDEST STOP JUMPDEST CALLVALUE DUP1 ISZERO PUSH2 0xE6 JUMPI PUSH0 PUSH0 REVERT JUMPDEST POP PUSH2 0xEF PUSH2 0x514 JUMP JUMPDEST PUSH1 0x40 MLOAD PUSH2 0xFC SWAP2 SWAP1 PUSH2 0x15C2 JUMP JUMPDEST PUSH1 0x40 MLOAD DUP1 SWAP2 SUB SWAP1 RETURN JUMPDEST CALLVALUE DUP1 ISZERO PUSH2 0x110 JUMPI PUSH0 PUSH0 REVERT JUMPDEST POP PUSH2 0x119 PUSH2 0x527 JUMP JUMPDEST PUSH1 0x40 MLOAD PUSH2 0x126 SWAP2 SWAP1 PUSH2 0x161A JUMP JUMPDEST PUSH1 0x40 MLOAD DUP1 SWAP2 SUB SWAP1 RETURN JUMPDEST PUSH2 0x149 PUSH1 0x4 DUP1 CALLDATASIZE SUB DUP2 ADD SWAP1 PUSH2 0x144 SWAP2 SWAP1 PUSH2 0x1661 JUMP JUMPDEST PUSH2 0x59E JUMP JUMPDEST STOP JUMPDEST CALLVALUE DUP1 ISZERO PUSH2 0x156 JUMPI PUSH0 PUSH0 REVERT JUMPDEST POP PUSH2 0x15F PUSH2 0x8F1 JUMP JUMPDEST PUSH1 0x40 MLOAD PUSH2 0x16D SWAP3 SWAP2 SWAP1 PUSH2 0x17FA JUMP JUMPDEST PUSH1 0x40 MLOAD DUP1 SWAP2 SUB SWAP1 RETURN JUMPDEST CALLVALUE DUP1 ISZERO PUSH2 0x181 JUMPI PUSH0 PUSH0 REVERT JUMPDEST POP PUSH2 0x18A PUSH2 0xA48 JUMP JUMPDEST PUSH1 0x40 MLOAD PUSH2 0x197 SWAP2 SWAP1 PUSH2 0x189F JUMP JUMPDEST PUSH1 0x40 MLOAD DUP1 SWAP2 SUB SWAP1 RETURN JUMPDEST CALLVALUE DUP1 ISZERO PUSH2 0x1AB JUMPI PUSH0 PUSH0 REVERT JUMPDEST POP PUSH2 0x1B4 PUSH2 0xAD3 JUMP JUMPDEST PUSH1 0x40 MLOAD PUSH2 0x1C1 SWAP2 SWAP1 PUSH2 0x18D7 JUMP JUMPDEST PUSH1 0x40 MLOAD DUP1 SWAP2 SUB SWAP1 RETURN JUMPDEST CALLVALUE DUP1 ISZERO PUSH2 0x1D5 JUMPI PUSH0 PUSH0 REVERT JUMPDEST POP PUSH2 0x1DE PUSH2 0xAF7 JUMP JUMPDEST PUSH1 0x40 MLOAD PUSH2 0x1EB SWAP2 SWAP1 PUSH2 0x15C2 JUMP JUMPDEST PUSH1 0x40 MLOAD DUP1 SWAP2 SUB SWAP1 RETURN JUMPDEST CALLVALUE DUP1 ISZERO PUSH2 0x1FF JUMPI PUSH0 PUSH0 REVERT JUMPDEST POP PUSH2 0x208 PUSH2 0xB1B JUMP JUMPDEST STOP JUMPDEST CALLVALUE DUP1 ISZERO PUSH2 0x215 JUMPI PUSH0 PUSH0 REVERT JUMPDEST POP PUSH2 0x21E PUSH2 0xB53 JUMP JUMPDEST PUSH1 0x40 MLOAD PUSH2 0x22B SWAP2 SWAP1 PUSH2 0x190A JUMP JUMPDEST PUSH1 0x40 MLOAD DUP1 SWAP2 SUB SWAP1 RETURN JUMPDEST CALLVALUE DUP1 ISZERO PUSH2 0x23F JUMPI PUSH0 PUSH0 REVERT JUMPDEST POP PUSH2 0x248 PUSH2 0xB66 JUMP JUMPDEST PUSH1 0x40 MLOAD PUSH2 0x255 SWAP2 SWAP1 PUSH2 0x161A JUMP JUMPDEST PUSH1 0x40 MLOAD DUP1 SWAP2 SUB SWAP1 RETURN JUMPDEST CALLVALUE DUP1 ISZERO PUSH2 0x269 JUMPI PUSH0 PUSH0 REVERT JUMPDEST POP PUSH2 0x272 PUSH2 0xB8A JUMP JUMPDEST STOP JUMPDEST CALLVALUE DUP1 ISZERO PUSH2 0x27F JUMPI PUSH0 PUSH0 REVERT JUMPDEST POP PUSH2 0x288 PUSH2 0xEEA JUMP JUMPDEST PUSH1 0x40 MLOAD PUSH2 0x295 SWAP2 SWAP1 PUSH2 0x18D7 JUMP JUMPDEST PUSH1 0x40 MLOAD DUP1 SWAP2 SUB SWAP1 RETURN JUMPDEST PUSH1 0x5 PUSH1 0x15 SWAP1 SLOAD SWAP1 PUSH2 0x100 EXP SWAP1 DIV PUSH1 0xFF AND PUSH2 0x2ED JUMPI PUSH1 0x40 MLOAD PUSH32 0x8C379A000000000000000000000000000000000000000000000000000000000 DUP2 MSTORE PUSH1 0x4 ADD PUSH2 0x2E4 SWAP1 PUSH2 0x196D JUMP JUMPDEST PUSH1 0x40 MLOAD DUP1 SWAP2 SUB SWAP1 REVERT JUMPDEST PUSH32 0x0 PUSH20 0xFFFFFFFFFFFFFFFFFFFFFFFFFFFFFFFFFFFFFFFF AND CALLER PUSH20 0xFFFFFFFFFFFFFFFFFFFFFFFFFFFFFFFFFFFFFFFF AND EQ PUSH2 0x37B JUMPI PUSH1 0x40 MLOAD PUSH32 0x8C379A000000000000000000000000000000000000000000000000000000000 DUP2 MSTORE PUSH1 0x4 ADD PUSH2 0x372 SWAP1 PUSH2 0x19FB JUMP JUMPDEST PUSH1 0x40 MLOAD DUP1 SWAP2 SUB SWAP1 REVERT JUMPDEST PUSH0 PUSH20 0xFFFFFFFFFFFFFFFFFFFFFFFFFFFFFFFFFFFFFFFF AND PUSH1 0x5 PUSH0 SWAP1 SLOAD SWAP1 PUSH2 0x100 EXP SWAP1 DIV PUSH20 0xFFFFFFFFFFFFFFFFFFFFFFFFFFFFFFFFFFFFFFFF AND PUSH20 0xFFFFFFFFFFFFFFFFFFFFFFFFFFFFFFFFFFFFFFFF AND SUB PUSH2 0x40A JUMPI PUSH1 0x40 MLOAD PUSH32 0x8C379A000000000000000000000000000000000000000000000000000000000 DUP2 MSTORE PUSH1 0x4 ADD PUSH2 0x401 SWAP1 PUSH2 0x1A63 JUMP JUMPDEST PUSH1 0x40 MLOAD DUP1 SWAP2 SUB SWAP1 REVERT JUMPDEST PUSH0 PUSH1 0x2 PUSH0 PUSH1 0x5 PUSH0 SWAP1 SLOAD SWAP1 PUSH2 0x100 EXP SWAP1 DIV PUSH20 0xFFFFFFFFFFFFFFFFFFFFFFFFFFFFFFFFFFFFFFFF AND PUSH20 0xFFFFFFFFFFFFFFFFFFFFFFFFFFFFFFFFFFFFFFFF AND PUSH20 0xFFFFFFFFFFFFFFFFFFFFFFFFFFFFFFFFFFFFFFFF AND DUP2 MSTORE PUSH1 0x20 ADD SWAP1 DUP2 MSTORE PUSH1 0x20 ADD PUSH0 KECCAK256 SLOAD SWAP1 POP PUSH0 DUP2 GT PUSH2 0x4AE JUMPI PUSH1 0x40 MLOAD PUSH32 0x8C379A000000000000000000000000000000000000000000000000000000000 DUP2 MSTORE PUSH1 0x4 ADD PUSH2 0x4A5 SWAP1 PUSH2 0x1ACB JUMP JUMPDEST PUSH1 0x40 MLOAD DUP1 SWAP2 SUB SWAP1 REVERT JUMPDEST PUSH0 PUSH1 0x2 PUSH0 PUSH1 0x5 PUSH0 SWAP1 SLOAD SWAP1 PUSH2 0x100 EXP SWAP1 DIV PUSH20 0xFFFFFFFFFFFFFFFFFFFFFFFFFFFFFFFFFFFFFFFF AND PUSH20 0xFFFFFFFFFFFFFFFFFFFFFFFFFFFFFFFFFFFFFFFF AND PUSH20 0xFFFFFFFFFFFFFFFFFFFFFFFFFFFFFFFFFFFFFFFF AND DUP2 MSTORE PUSH1 0x20 ADD SWAP1 DUP2 MSTORE PUSH1 0x20 ADD PUSH0 KECCAK256 DUP2 SWAP1 SSTORE POP POP JUMP JUMPDEST PUSH1 0x5 PUSH1 0x14 SWAP1 SLOAD SWAP1 PUSH2 0x100 EXP SWAP1 DIV PUSH1 0xFF AND DUP2 JUMP JUMPDEST PUSH0 PUSH1 0x5 PUSH1 0x15 SWAP1 SLOAD SWAP1 PUSH2 0x100 EXP SWAP1 DIV PUSH1 0xFF AND PUSH2 0x577 JUMPI PUSH1 0x40 MLOAD PUSH32 0x8C379A000000000000000000000000000000000000000000000000000000000 DUP2 MSTORE PUSH1 0x4 ADD PUSH2 0x56E SWAP1 PUSH2 0x196D JUMP JUMPDEST PUSH1 0x40 MLOAD DUP1 SWAP2 SUB SWAP1 REVERT JUMPDEST PUSH1 0x5 PUSH0 SWAP1 SLOAD SWAP1 PUSH2 0x100 EXP SWAP1 DIV PUSH20 0xFFFFFFFFFFFFFFFFFFFFFFFFFFFFFFFFFFFFFFFF AND SWAP1 POP SWAP1 JUMP JUMPDEST PUSH1 0x5 PUSH1 0x15 SWAP1 SLOAD SWAP1 PUSH2 0x100 EXP SWAP1 DIV PUSH1 0xFF AND ISZERO PUSH2 0x5EE JUMPI PUSH1 0x40 MLOAD PUSH32 0x8C379A000000000000000000000000000000000000000000000000000000000 DUP2 MSTORE PUSH1 0x4 ADD PUSH2 0x5E5 SWAP1 PUSH2 0x1B33 JUMP JUMPDEST PUSH1 0x40 MLOAD DUP1 SWAP2 SUB SWAP1 REVERT JUMPDEST PUSH0 DUP2 PUSH1 0xFF AND GT PUSH2 0x633 JUMPI PUSH1 0x40 MLOAD PUSH32 0x8C379A000000000000000000000000000000000000000000000000000000000 DUP2 MSTORE PUSH1 0x4 ADD PUSH2 0x62A SWAP1 PUSH2 0x1BC1 JUMP JUMPDEST PUSH1 0x40 MLOAD DUP1 SWAP2 SUB SWAP1 REVERT JUMPDEST PUSH32 0x0 PUSH1 0xFF AND DUP2 PUSH1 0xFF AND GT ISZERO PUSH2 0x69C JUMPI PUSH1 0x40 MLOAD PUSH32 0x8C379A000000000000000000000000000000000000000000000000000000000 DUP2 MSTORE PUSH1 0x4 ADD PUSH2 0x693 SWAP1 PUSH2 0x1C75 JUMP JUMPDEST PUSH1 0x40 MLOAD DUP1 SWAP2 SUB SWAP1 REVERT JUMPDEST PUSH0 PUSH1 0x1 PUSH0 CALLER PUSH20 0xFFFFFFFFFFFFFFFFFFFFFFFFFFFFFFFFFFFFFFFF AND PUSH20 0xFFFFFFFFFFFFFFFFFFFFFFFFFFFFFFFFFFFFFFFF AND DUP2 MSTORE PUSH1 0x20 ADD SWAP1 DUP2 MSTORE PUSH1 0x20 ADD PUSH0 KECCAK256 PUSH0 SWAP1 SLOAD SWAP1 PUSH2 0x100 EXP SWAP1 DIV PUSH1 0xFF AND PUSH1 0xFF AND EQ PUSH2 0x72A JUMPI PUSH1 0x40 MLOAD PUSH32 0x8C379A000000000000000000000000000000000000000000000000000000000 DUP2 MSTORE PUSH1 0x4 ADD PUSH2 0x721 SWAP1 PUSH2 0x1CDD JUMP JUMPDEST PUSH1 0x40 MLOAD DUP1 SWAP2 SUB SWAP1 REVERT JUMPDEST PUSH0 PUSH1 0x64 PUSH1 0xA DUP4 PUSH1 0xFF AND PUSH2 0x73D SWAP2 SWAP1 PUSH2 0x1D28 JUMP JUMPDEST PUSH2 0x747 SWAP2 SWAP1 PUSH2 0x1D96 JUMP JUMPDEST SWAP1 POP DUP1 CALLVALUE LT ISZERO PUSH2 0x78C JUMPI PUSH1 0x40 MLOAD PUSH32 0x8C379A000000000000000000000000000000000000000000000000000000000 DUP2 MSTORE PUSH1 0x4 ADD PUSH2 0x783 SWAP1 PUSH2 0x1E36 JUMP JUMPDEST PUSH1 0x40 MLOAD DUP1 SWAP2 SUB SWAP1 REVERT JUMPDEST DUP2 PUSH1 0x1 PUSH0 CALLER PUSH20 0xFFFFFFFFFFFFFFFFFFFFFFFFFFFFFFFFFFFFFFFF AND PUSH20 0xFFFFFFFFFFFFFFFFFFFFFFFFFFFFFFFFFFFFFFFF AND DUP2 MSTORE PUSH1 0x20 ADD SWAP1 DUP2 MSTORE PUSH1 0x20 ADD PUSH0 KECCAK256 PUSH0 PUSH2 0x100 EXP DUP2 SLOAD DUP2 PUSH1 0xFF MUL NOT AND SWAP1 DUP4 PUSH1 0xFF AND MUL OR SWAP1 SSTORE POP CALLVALUE PUSH1 0x2 PUSH0 CALLER PUSH20 0xFFFFFFFFFFFFFFFFFFFFFFFFFFFFFFFFFFFFFFFF AND PUSH20 0xFFFFFFFFFFFFFFFFFFFFFFFFFFFFFFFFFFFFFFFF AND DUP2 MSTORE PUSH1 0x20 ADD SWAP1 DUP2 MSTORE PUSH1 0x20 ADD PUSH0 KECCAK256 PUSH0 DUP3 DUP3 SLOAD PUSH2 0x82D SWAP2 SWAP1 PUSH2 0x1E54 JUMP JUMPDEST SWAP3 POP POP DUP2 SWAP1 SSTORE POP PUSH1 0x3 CALLER SWAP1 DUP1 PUSH1 0x1 DUP2 SLOAD ADD DUP1 DUP3 SSTORE DUP1 SWAP2 POP POP PUSH1 0x1 SWAP1 SUB SWAP1 PUSH0 MSTORE PUSH1 0x20 PUSH0 KECCAK256 ADD PUSH0 SWAP1 SWAP2 SWAP1 SWAP2 SWAP1 SWAP2 PUSH2 0x100 EXP DUP2 SLOAD DUP2 PUSH20 0xFFFFFFFFFFFFFFFFFFFFFFFFFFFFFFFFFFFFFFFF MUL NOT AND SWAP1 DUP4 PUSH20 0xFFFFFFFFFFFFFFFFFFFFFFFFFFFFFFFFFFFFFFFF AND MUL OR SWAP1 SSTORE POP PUSH1 0x4 DUP3 SWAP1 DUP1 PUSH1 0x1 DUP2 SLOAD ADD DUP1 DUP3 SSTORE DUP1 SWAP2 POP POP PUSH1 0x1 SWAP1 SUB SWAP1 PUSH0 MSTORE PUSH1 0x20 PUSH0 KECCAK256 SWAP1 PUSH1 0x20 SWAP2 DUP3 DUP3 DIV ADD SWAP2 SWAP1 MOD SWAP1 SWAP2 SWAP1 SWAP2 SWAP1 SWAP2 PUSH2 0x100 EXP DUP2 SLOAD DUP2 PUSH1 0xFF MUL NOT AND SWAP1 DUP4 PUSH1 0xFF AND MUL OR SWAP1 SSTORE POP PUSH1 0x1E PUSH1 0x3 DUP1 SLOAD SWAP1 POP SUB PUSH2 0x8ED JUMPI PUSH2 0x8EC PUSH2 0xF0E JUMP JUMPDEST JUMPDEST POP POP JUMP JUMPDEST PUSH1 0x60 DUP1 PUSH1 0x5 PUSH1 0x15 SWAP1 SLOAD SWAP1 PUSH2 0x100 EXP SWAP1 DIV PUSH1 0xFF AND PUSH2 0x943 JUMPI PUSH1 0x40 MLOAD PUSH32 0x8C379A000000000000000000000000000000000000000000000000000000000 DUP2 MSTORE PUSH1 0x4 ADD PUSH2 0x93A SWAP1 PUSH2 0x196D JUMP JUMPDEST PUSH1 0x40 MLOAD DUP1 SWAP2 SUB SWAP1 REVERT JUMPDEST PUSH1 0x3 PUSH1 0x4 DUP2 DUP1 SLOAD DUP1 PUSH1 0x20 MUL PUSH1 0x20 ADD PUSH1 0x40 MLOAD SWAP1 DUP2 ADD PUSH1 0x40 MSTORE DUP1 SWAP3 SWAP2 SWAP1 DUP2 DUP2 MSTORE PUSH1 0x20 ADD DUP3 DUP1 SLOAD DUP1 ISZERO PUSH2 0x9C5 JUMPI PUSH1 0x20 MUL DUP3 ADD SWAP2 SWAP1 PUSH0 MSTORE PUSH1 0x20 PUSH0 KECCAK256 SWAP1 JUMPDEST DUP2 PUSH0 SWAP1 SLOAD SWAP1 PUSH2 0x100 EXP SWAP1 DIV PUSH20 0xFFFFFFFFFFFFFFFFFFFFFFFFFFFFFFFFFFFFFFFF AND PUSH20 0xFFFFFFFFFFFFFFFFFFFFFFFFFFFFFFFFFFFFFFFF AND DUP2 MSTORE PUSH1 0x20 ADD SWAP1 PUSH1 0x1 ADD SWAP1 DUP1 DUP4 GT PUSH2 0x97C JUMPI JUMPDEST POP POP POP POP POP SWAP2 POP DUP1 DUP1 SLOAD DUP1 PUSH1 0x20 MUL PUSH1 0x20 ADD PUSH1 0x40 MLOAD SWAP1 DUP2 ADD PUSH1 0x40 MSTORE DUP1 SWAP3 SWAP2 SWAP1 DUP2 DUP2 MSTORE PUSH1 0x20 ADD DUP3 DUP1 SLOAD DUP1 ISZERO PUSH2 0xA39 JUMPI PUSH1 0x20 MUL DUP3 ADD SWAP2 SWAP1 PUSH0 MSTORE PUSH1 0x20 PUSH0 KECCAK256 SWAP1 PUSH0 SWAP1 JUMPDEST DUP3 DUP3 SWAP1 SLOAD SWAP1 PUSH2 0x100 EXP SWAP1 DIV PUSH1 0xFF AND PUSH1 0xFF AND DUP2 MSTORE PUSH1 0x20 ADD SWAP1 PUSH1 0x1 ADD SWAP1 PUSH1 0x20 DUP3 PUSH0 ADD DIV SWAP3 DUP4 ADD SWAP3 PUSH1 0x1 SUB DUP3 MUL SWAP2 POP DUP1 DUP5 GT PUSH2 0xA03 JUMPI SWAP1 POP JUMPDEST POP POP POP POP POP SWAP1 POP SWAP2 POP SWAP2 POP SWAP1 SWAP2 JUMP JUMPDEST PUSH0 DUP1 SLOAD PUSH2 0xA54 SWAP1 PUSH2 0x1EB4 JUMP JUMPDEST DUP1 PUSH1 0x1F ADD PUSH1 0x20 DUP1 SWAP2 DIV MUL PUSH1 0x20 ADD PUSH1 0x40 MLOAD SWAP1 DUP2 ADD PUSH1 0x40 MSTORE DUP1 SWAP3 SWAP2 SWAP1 DUP2 DUP2 MSTORE PUSH1 0x20 ADD DUP3 DUP1 SLOAD PUSH2 0xA80 SWAP1 PUSH2 0x1EB4 JUMP JUMPDEST DUP1 ISZERO PUSH2 0xACB JUMPI DUP1 PUSH1 0x1F LT PUSH2 0xAA2 JUMPI PUSH2 0x100 DUP1 DUP4 SLOAD DIV MUL DUP4 MSTORE SWAP2 PUSH1 0x20 ADD SWAP2 PUSH2 0xACB JUMP JUMPDEST DUP3 ADD SWAP2 SWAP1 PUSH0 MSTORE PUSH1 0x20 PUSH0 KECCAK256 SWAP1 JUMPDEST DUP2 SLOAD DUP2 MSTORE SWAP1 PUSH1 0x1 ADD SWAP1 PUSH1 0x20 ADD DUP1 DUP4 GT PUSH2 0xAAE JUMPI DUP3 SWAP1 SUB PUSH1 0x1F AND DUP3 ADD SWAP2 JUMPDEST POP POP POP POP POP DUP2 JUMP JUMPDEST PUSH32 0x0 DUP2 JUMP JUMPDEST PUSH32 0x0 DUP2 JUMP JUMPDEST PUSH0 TIMESTAMP SWAP1 POP PUSH32 0x0 DUP2 GT ISZERO PUSH2 0xB50 JUMPI PUSH2 0xB4F PUSH2 0xF0E JUMP JUMPDEST JUMPDEST POP JUMP JUMPDEST PUSH1 0x5 PUSH1 0x15 SWAP1 SLOAD SWAP1 PUSH2 0x100 EXP SWAP1 DIV PUSH1 0xFF AND DUP2 JUMP JUMPDEST PUSH32 0x0 DUP2 JUMP JUMPDEST PUSH1 0x5 PUSH1 0x15 SWAP1 SLOAD SWAP1 PUSH2 0x100 EXP SWAP1 DIV PUSH1 0xFF AND PUSH2 0xBD9 JUMPI PUSH1 0x40 MLOAD PUSH32 0x8C379A000000000000000000000000000000000000000000000000000000000 DUP2 MSTORE PUSH1 0x4 ADD PUSH2 0xBD0 SWAP1 PUSH2 0x196D JUMP JUMPDEST PUSH1 0x40 MLOAD DUP1 SWAP2 SUB SWAP1 REVERT JUMPDEST PUSH32 0x0 PUSH20 0xFFFFFFFFFFFFFFFFFFFFFFFFFFFFFFFFFFFFFFFF AND CALLER PUSH20 0xFFFFFFFFFFFFFFFFFFFFFFFFFFFFFFFFFFFFFFFF AND EQ PUSH2 0xC67 JUMPI PUSH1 0x40 MLOAD PUSH32 0x8C379A000000000000000000000000000000000000000000000000000000000 DUP2 MSTORE PUSH1 0x4 ADD PUSH2 0xC5E SWAP1 PUSH2 0x1F54 JUMP JUMPDEST PUSH1 0x40 MLOAD DUP1 SWAP2 SUB SWAP1 REVERT JUMPDEST PUSH0 PUSH20 0xFFFFFFFFFFFFFFFFFFFFFFFFFFFFFFFFFFFFFFFF AND PUSH1 0x5 PUSH0 SWAP1 SLOAD SWAP1 PUSH2 0x100 EXP SWAP1 DIV PUSH20 0xFFFFFFFFFFFFFFFFFFFFFFFFFFFFFFFFFFFFFFFF AND PUSH20 0xFFFFFFFFFFFFFFFFFFFFFFFFFFFFFFFFFFFFFFFF AND SUB PUSH2 0xCF6 JUMPI PUSH1 0x40 MLOAD PUSH32 0x8C379A000000000000000000000000000000000000000000000000000000000 DUP2 MSTORE PUSH1 0x4 ADD PUSH2 0xCED SWAP1 PUSH2 0x1A63 JUMP JUMPDEST PUSH1 0x40 MLOAD DUP1 SWAP2 SUB SWAP1 REVERT JUMPDEST PUSH0 PUSH1 0x2 PUSH0 PUSH1 0x5 PUSH0 SWAP1 SLOAD SWAP1 PUSH2 0x100 EXP SWAP1 DIV PUSH20 0xFFFFFFFFFFFFFFFFFFFFFFFFFFFFFFFFFFFFFFFF AND PUSH20 0xFFFFFFFFFFFFFFFFFFFFFFFFFFFFFFFFFFFFFFFF AND PUSH20 0xFFFFFFFFFFFFFFFFFFFFFFFFFFFFFFFFFFFFFFFF AND DUP2 MSTORE PUSH1 0x20 ADD SWAP1 DUP2 MSTORE PUSH1 0x20 ADD PUSH0 KECCAK256 SLOAD SWAP1 POP PUSH0 DUP2 GT PUSH2 0xD9A JUMPI PUSH1 0x40 MLOAD PUSH32 0x8C379A000000000000000000000000000000000000000000000000000000000 DUP2 MSTORE PUSH1 0x4 ADD PUSH2 0xD91 SWAP1 PUSH2 0x1FBC JUMP JUMPDEST PUSH1 0x40 MLOAD DUP1 SWAP2 SUB SWAP1 REVERT JUMPDEST PUSH0 PUSH1 0x2 PUSH0 PUSH1 0x5 PUSH0 SWAP1 SLOAD SWAP1 PUSH2 0x100 EXP SWAP1 DIV PUSH20 0xFFFFFFFFFFFFFFFFFFFFFFFFFFFFFFFFFFFFFFFF AND PUSH20 0xFFFFFFFFFFFFFFFFFFFFFFFFFFFFFFFFFFFFFFFF AND PUSH20 0xFFFFFFFFFFFFFFFFFFFFFFFFFFFFFFFFFFFFFFFF AND DUP2 MSTORE PUSH1 0x20 ADD SWAP1 DUP2 MSTORE PUSH1 0x20 ADD PUSH0 KECCAK256 DUP2 SWAP1 SSTORE POP PUSH1 0x5 PUSH1 0x14 SWAP1 SLOAD SWAP1 PUSH2 0x100 EXP SWAP1 DIV PUSH1 0xFF AND PUSH1 0xFF AND DUP2 PUSH2 0xE1B SWAP2 SWAP1 PUSH2 0x1E54 JUMP JUMPDEST SWAP1 POP PUSH0 PUSH1 0x5 PUSH0 SWAP1 SLOAD SWAP1 PUSH2 0x100 EXP SWAP1 DIV PUSH20 0xFFFFFFFFFFFFFFFFFFFFFFFFFFFFFFFFFFFFFFFF AND PUSH20 0xFFFFFFFFFFFFFFFFFFFFFFFFFFFFFFFFFFFFFFFF AND DUP3 PUSH1 0x40 MLOAD PUSH2 0xE63 SWAP1 PUSH2 0x2007 JUMP JUMPDEST PUSH0 PUSH1 0x40 MLOAD DUP1 DUP4 SUB DUP2 DUP6 DUP8 GAS CALL SWAP3 POP POP POP RETURNDATASIZE DUP1 PUSH0 DUP2 EQ PUSH2 0xE9D JUMPI PUSH1 0x40 MLOAD SWAP2 POP PUSH1 0x1F NOT PUSH1 0x3F RETURNDATASIZE ADD AND DUP3 ADD PUSH1 0x40 MSTORE RETURNDATASIZE DUP3 MSTORE RETURNDATASIZE PUSH0 PUSH1 0x20 DUP5 ADD RETURNDATACOPY PUSH2 0xEA2 JUMP JUMPDEST PUSH1 0x60 SWAP2 POP JUMPDEST POP POP SWAP1 POP DUP1 PUSH2 0xEE6 JUMPI PUSH1 0x40 MLOAD PUSH32 0x8C379A000000000000000000000000000000000000000000000000000000000 DUP2 MSTORE PUSH1 0x4 ADD PUSH2 0xEDD SWAP1 PUSH2 0x2065 JUMP JUMPDEST PUSH1 0x40 MLOAD DUP1 SWAP2 SUB SWAP1 REVERT JUMPDEST POP POP JUMP JUMPDEST PUSH32 0x0 DUP2 JUMP JUMPDEST PUSH1 0x5 PUSH1 0x15 SWAP1 SLOAD SWAP1 PUSH2 0x100 EXP SWAP1 DIV PUSH1 0xFF AND ISZERO PUSH2 0xF5E JUMPI PUSH1 0x40 MLOAD PUSH32 0x8C379A000000000000000000000000000000000000000000000000000000000 DUP2 MSTORE PUSH1 0x4 ADD PUSH2 0xF55 SWAP1 PUSH2 0x20CD JUMP JUMPDEST PUSH1 0x40 MLOAD DUP1 SWAP2 SUB SWAP1 REVERT JUMPDEST PUSH1 0x1 PUSH1 0x5 PUSH1 0x15 PUSH2 0x100 EXP DUP2 SLOAD DUP2 PUSH1 0xFF MUL NOT AND SWAP1 DUP4 ISZERO ISZERO MUL OR SWAP1 SSTORE POP PUSH0 PUSH32 0x0 SWAP1 POP PUSH0 PUSH32 0x0 SWAP1 POP PUSH0 PUSH1 0x3 DUP1 SLOAD SWAP1 POP SUB ISZERO PUSH2 0x1287 JUMPI PUSH1 0x1 PUSH1 0x3 DUP1 SLOAD SWAP1 POP SUB PUSH2 0x10E0 JUMPI PUSH1 0x3 PUSH0 DUP2 SLOAD DUP2 LT PUSH2 0xFEF JUMPI PUSH2 0xFEE PUSH2 0x20EB JUMP JUMPDEST JUMPDEST SWAP1 PUSH0 MSTORE PUSH1 0x20 PUSH0 KECCAK256 ADD PUSH0 SWAP1 SLOAD SWAP1 PUSH2 0x100 EXP SWAP1 DIV PUSH20 0xFFFFFFFFFFFFFFFFFFFFFFFFFFFFFFFFFFFFFFFF AND PUSH1 0x5 PUSH0 PUSH2 0x100 EXP DUP2 SLOAD DUP2 PUSH20 0xFFFFFFFFFFFFFFFFFFFFFFFFFFFFFFFFFFFFFFFF MUL NOT AND SWAP1 DUP4 PUSH20 0xFFFFFFFFFFFFFFFFFFFFFFFFFFFFFFFFFFFFFFFF AND MUL OR SWAP1 SSTORE POP PUSH1 0x1 PUSH0 PUSH1 0x5 PUSH0 SWAP1 SLOAD SWAP1 PUSH2 0x100 EXP SWAP1 DIV PUSH20 0xFFFFFFFFFFFFFFFFFFFFFFFFFFFFFFFFFFFFFFFF AND PUSH20 0xFFFFFFFFFFFFFFFFFFFFFFFFFFFFFFFFFFFFFFFF AND PUSH20 0xFFFFFFFFFFFFFFFFFFFFFFFFFFFFFFFFFFFFFFFF AND DUP2 MSTORE PUSH1 0x20 ADD SWAP1 DUP2 MSTORE PUSH1 0x20 ADD PUSH0 KECCAK256 PUSH0 SWAP1 SLOAD SWAP1 PUSH2 0x100 EXP SWAP1 DIV PUSH1 0xFF AND PUSH1 0x5 PUSH1 0x14 PUSH2 0x100 EXP DUP2 SLOAD DUP2 PUSH1 0xFF MUL NOT AND SWAP1 DUP4 PUSH1 0xFF AND MUL OR SWAP1 SSTORE POP PUSH2 0x1286 JUMP JUMPDEST PUSH0 PUSH1 0x3 DUP1 SLOAD SWAP1 POP SWAP1 POP PUSH0 PUSH0 SWAP1 POP JUMPDEST DUP2 DUP2 LT ISZERO PUSH2 0x127B JUMPI PUSH0 PUSH1 0x1 PUSH0 PUSH1 0x3 DUP5 DUP2 SLOAD DUP2 LT PUSH2 0x110E JUMPI PUSH2 0x110D PUSH2 0x20EB JUMP JUMPDEST JUMPDEST SWAP1 PUSH0 MSTORE PUSH1 0x20 PUSH0 KECCAK256 ADD PUSH0 SWAP1 SLOAD SWAP1 PUSH2 0x100 EXP SWAP1 DIV PUSH20 0xFFFFFFFFFFFFFFFFFFFFFFFFFFFFFFFFFFFFFFFF AND PUSH20 0xFFFFFFFFFFFFFFFFFFFFFFFFFFFFFFFFFFFFFFFF AND PUSH20 0xFFFFFFFFFFFFFFFFFFFFFFFFFFFFFFFFFFFFFFFF AND DUP2 MSTORE PUSH1 0x20 ADD SWAP1 DUP2 MSTORE PUSH1 0x20 ADD PUSH0 KECCAK256 PUSH0 SWAP1 SLOAD SWAP1 PUSH2 0x100 EXP SWAP1 DIV PUSH1 0xFF AND SWAP1 POP DUP5 PUSH1 0xFF AND DUP2 PUSH1 0xFF AND LT ISZERO PUSH2 0x122D JUMPI DUP5 SWAP4 POP DUP1 SWAP5 POP PUSH1 0x3 DUP3 DUP2 SLOAD DUP2 LT PUSH2 0x11A6 JUMPI PUSH2 0x11A5 PUSH2 0x20EB JUMP JUMPDEST JUMPDEST SWAP1 PUSH0 MSTORE PUSH1 0x20 PUSH0 KECCAK256 ADD PUSH0 SWAP1 SLOAD SWAP1 PUSH2 0x100 EXP SWAP1 DIV PUSH20 0xFFFFFFFFFFFFFFFFFFFFFFFFFFFFFFFFFFFFFFFF AND PUSH1 0x5 PUSH0 PUSH2 0x100 EXP DUP2 SLOAD DUP2 PUSH20 0xFFFFFFFFFFFFFFFFFFFFFFFFFFFFFFFFFFFFFFFF MUL NOT AND SWAP1 DUP4 PUSH20 0xFFFFFFFFFFFFFFFFFFFFFFFFFFFFFFFFFFFFFFFF AND MUL OR SWAP1 SSTORE POP DUP4 PUSH1 0x5 PUSH1 0x14 PUSH2 0x100 EXP DUP2 SLOAD DUP2 PUSH1 0xFF MUL NOT AND SWAP1 DUP4 PUSH1 0xFF AND MUL OR SWAP1 SSTORE POP PUSH2 0x126D JUMP JUMPDEST DUP4 PUSH1 0xFF AND DUP2 PUSH1 0xFF AND LT DUP1 ISZERO PUSH2 0x1248 JUMPI POP DUP5 PUSH1 0xFF AND DUP2 PUSH1 0xFF AND EQ ISZERO JUMPDEST ISZERO PUSH2 0x126C JUMPI DUP1 SWAP4 POP DUP4 PUSH1 0x5 PUSH1 0x14 PUSH2 0x100 EXP DUP2 SLOAD DUP2 PUSH1 0xFF MUL NOT AND SWAP1 DUP4 PUSH1 0xFF AND MUL OR SWAP1 SSTORE POP JUMPDEST JUMPDEST POP DUP1 DUP1 PUSH1 0x1 ADD SWAP2 POP POP PUSH2 0x10EE JUMP JUMPDEST POP PUSH2 0x1284 PUSH2 0x128B JUMP JUMPDEST POP JUMPDEST JUMPDEST POP POP JUMP JUMPDEST PUSH2 0x1293 PUSH2 0x14DC JUMP JUMPDEST PUSH1 0x5 PUSH1 0x15 SWAP1 SLOAD SWAP1 PUSH2 0x100 EXP SWAP1 DIV PUSH1 0xFF AND PUSH2 0x12E2 JUMPI PUSH1 0x40 MLOAD PUSH32 0x8C379A000000000000000000000000000000000000000000000000000000000 DUP2 MSTORE PUSH1 0x4 ADD PUSH2 0x12D9 SWAP1 PUSH2 0x196D JUMP JUMPDEST PUSH1 0x40 MLOAD DUP1 SWAP2 SUB SWAP1 REVERT JUMPDEST PUSH0 PUSH1 0x3 DUP1 SLOAD SWAP1 POP SWAP1 POP PUSH0 PUSH0 SWAP1 POP JUMPDEST DUP2 DUP2 LT ISZERO PUSH2 0x14D0 JUMPI PUSH0 PUSH1 0x3 DUP3 DUP2 SLOAD DUP2 LT PUSH2 0x130D JUMPI PUSH2 0x130C PUSH2 0x20EB JUMP JUMPDEST JUMPDEST SWAP1 PUSH0 MSTORE PUSH1 0x20 PUSH0 KECCAK256 ADD PUSH0 SWAP1 SLOAD SWAP1 PUSH2 0x100 EXP SWAP1 DIV PUSH20 0xFFFFFFFFFFFFFFFFFFFFFFFFFFFFFFFFFFFFFFFF AND SWAP1 POP PUSH1 0x5 PUSH0 SWAP1 SLOAD SWAP1 PUSH2 0x100 EXP SWAP1 DIV PUSH20 0xFFFFFFFFFFFFFFFFFFFFFFFFFFFFFFFFFFFFFFFF AND PUSH20 0xFFFFFFFFFFFFFFFFFFFFFFFFFFFFFFFFFFFFFFFF AND DUP2 PUSH20 0xFFFFFFFFFFFFFFFFFFFFFFFFFFFFFFFFFFFFFFFF AND EQ PUSH2 0x14C2 JUMPI PUSH0 PUSH1 0x2 PUSH0 DUP4 PUSH20 0xFFFFFFFFFFFFFFFFFFFFFFFFFFFFFFFFFFFFFFFF AND PUSH20 0xFFFFFFFFFFFFFFFFFFFFFFFFFFFFFFFFFFFFFFFF AND DUP2 MSTORE PUSH1 0x20 ADD SWAP1 DUP2 MSTORE PUSH1 0x20 ADD PUSH0 KECCAK256 SLOAD SWAP1 POP PUSH0 DUP2 GT ISZERO PUSH2 0x14C0 JUMPI PUSH0 PUSH1 0x2 PUSH0 DUP5 PUSH20 0xFFFFFFFFFFFFFFFFFFFFFFFFFFFFFFFFFFFFFFFF AND PUSH20 0xFFFFFFFFFFFFFFFFFFFFFFFFFFFFFFFFFFFFFFFF AND DUP2 MSTORE PUSH1 0x20 ADD SWAP1 DUP2 MSTORE PUSH1 0x20 ADD PUSH0 KECCAK256 DUP2 SWAP1 SSTORE POP PUSH0 DUP3 PUSH20 0xFFFFFFFFFFFFFFFFFFFFFFFFFFFFFFFFFFFFFFFF AND DUP3 PUSH1 0x40 MLOAD PUSH2 0x143B SWAP1 PUSH2 0x2007 JUMP JUMPDEST PUSH0 PUSH1 0x40 MLOAD DUP1 DUP4 SUB DUP2 DUP6 DUP8 GAS CALL SWAP3 POP POP POP RETURNDATASIZE DUP1 PUSH0 DUP2 EQ PUSH2 0x1475 JUMPI PUSH1 0x40 MLOAD SWAP2 POP PUSH1 0x1F NOT PUSH1 0x3F RETURNDATASIZE ADD AND DUP3 ADD PUSH1 0x40 MSTORE RETURNDATASIZE DUP3 MSTORE RETURNDATASIZE PUSH0 PUSH1 0x20 DUP5 ADD RETURNDATACOPY PUSH2 0x147A JUMP JUMPDEST PUSH1 0x60 SWAP2 POP JUMPDEST POP POP SWAP1 POP DUP1 PUSH2 0x14BE JUMPI PUSH1 0x40 MLOAD PUSH32 0x8C379A000000000000000000000000000000000000000000000000000000000 DUP2 MSTORE PUSH1 0x4 ADD PUSH2 0x14B5 SWAP1 PUSH2 0x2065 JUMP JUMPDEST PUSH1 0x40 MLOAD DUP1 SWAP2 SUB SWAP1 REVERT JUMPDEST POP JUMPDEST POP JUMPDEST POP DUP1 DUP1 PUSH1 0x1 ADD SWAP2 POP POP PUSH2 0x12F0 JUMP JUMPDEST POP POP PUSH2 0x14DA PUSH2 0x14FE JUMP JUMPDEST JUMP JUMPDEST PUSH2 0x14E4 PUSH2 0x1518 JUMP JUMPDEST PUSH1 0x2 PUSH2 0x14F6 PUSH2 0x14F1 PUSH2 0x1559 JUMP JUMPDEST PUSH2 0x1582 JUMP JUMPDEST PUSH0 ADD DUP2 SWAP1 SSTORE POP JUMP JUMPDEST PUSH1 0x1 PUSH2 0x1510 PUSH2 0x150B PUSH2 0x1559 JUMP JUMPDEST PUSH2 0x1582 JUMP JUMPDEST PUSH0 ADD DUP2 SWAP1 SSTORE POP JUMP JUMPDEST PUSH2 0x1520 PUSH2 0x158B JUMP JUMPDEST ISZERO PUSH2 0x1557 JUMPI PUSH1 0x40 MLOAD PUSH32 0x3EE5AEB500000000000000000000000000000000000000000000000000000000 DUP2 MSTORE PUSH1 0x4 ADD PUSH1 0x40 MLOAD DUP1 SWAP2 SUB SWAP1 REVERT JUMPDEST JUMP JUMPDEST PUSH0 PUSH32 0x9B779B17422D0DF92223018B32B4D1FA46E071723D6817E2486D003BECC55F00 PUSH0 SHL SWAP1 POP SWAP1 JUMP JUMPDEST PUSH0 DUP2 SWAP1 POP SWAP2 SWAP1 POP JUMP JUMPDEST PUSH0 PUSH1 0x2 PUSH2 0x159E PUSH2 0x1599 PUSH2 0x1559 JUMP JUMPDEST PUSH2 0x1582 JUMP JUMPDEST PUSH0 ADD SLOAD EQ SWAP1 POP SWAP1 JUMP JUMPDEST PUSH0 PUSH1 0xFF DUP3 AND SWAP1 POP SWAP2 SWAP1 POP JUMP JUMPDEST PUSH2 0x15BC DUP2 PUSH2 0x15A7 JUMP JUMPDEST DUP3 MSTORE POP POP JUMP JUMPDEST PUSH0 PUSH1 0x20 DUP3 ADD SWAP1 POP PUSH2 0x15D5 PUSH0 DUP4 ADD DUP5 PUSH2 0x15B3 JUMP JUMPDEST SWAP3 SWAP2 POP POP JUMP JUMPDEST PUSH0 PUSH20 0xFFFFFFFFFFFFFFFFFFFFFFFFFFFFFFFFFFFFFFFF DUP3 AND SWAP1 POP SWAP2 SWAP1 POP JUMP JUMPDEST PUSH0 PUSH2 0x1604 DUP3 PUSH2 0x15DB JUMP JUMPDEST SWAP1 POP SWAP2 SWAP1 POP JUMP JUMPDEST PUSH2 0x1614 DUP2 PUSH2 0x15FA JUMP JUMPDEST DUP3 MSTORE POP POP JUMP JUMPDEST PUSH0 PUSH1 0x20 DUP3 ADD SWAP1 POP PUSH2 0x162D PUSH0 DUP4 ADD DUP5 PUSH2 0x160B JUMP JUMPDEST SWAP3 SWAP2 POP POP JUMP JUMPDEST PUSH0 PUSH0 REVERT JUMPDEST PUSH2 0x1640 DUP2 PUSH2 0x15A7 JUMP JUMPDEST DUP2 EQ PUSH2 0x164A JUMPI PUSH0 PUSH0 REVERT JUMPDEST POP JUMP JUMPDEST PUSH0 DUP2 CALLDATALOAD SWAP1 POP PUSH2 0x165B DUP2 PUSH2 0x1637 JUMP JUMPDEST SWAP3 SWAP2 POP POP JUMP JUMPDEST PUSH0 PUSH1 0x20 DUP3 DUP5 SUB SLT ISZERO PUSH2 0x1676 JUMPI PUSH2 0x1675 PUSH2 0x1633 JUMP JUMPDEST JUMPDEST PUSH0 PUSH2 0x1683 DUP5 DUP3 DUP6 ADD PUSH2 0x164D JUMP JUMPDEST SWAP2 POP POP SWAP3 SWAP2 POP POP JUMP JUMPDEST PUSH0 DUP2 MLOAD SWAP1 POP SWAP2 SWAP1 POP JUMP JUMPDEST PUSH0 DUP3 DUP3 MSTORE PUSH1 0x20 DUP3 ADD SWAP1 POP SWAP3 SWAP2 POP POP JUMP JUMPDEST PUSH0 DUP2 SWAP1 POP PUSH1 0x20 DUP3 ADD SWAP1 POP SWAP2 SWAP1 POP JUMP JUMPDEST PUSH2 0x16BE DUP2 PUSH2 0x15FA JUMP JUMPDEST DUP3 MSTORE POP POP JUMP JUMPDEST PUSH0 PUSH2 0x16CF DUP4 DUP4 PUSH2 0x16B5 JUMP JUMPDEST PUSH1 0x20 DUP4 ADD SWAP1 POP SWAP3 SWAP2 POP POP JUMP JUMPDEST PUSH0 PUSH1 0x20 DUP3 ADD SWAP1 POP SWAP2 SWAP1 POP JUMP JUMPDEST PUSH0 PUSH2 0x16F1 DUP3 PUSH2 0x168C JUMP JUMPDEST PUSH2 0x16FB DUP2 DUP6 PUSH2 0x1696 JUMP JUMPDEST SWAP4 POP PUSH2 0x1706 DUP4 PUSH2 0x16A6 JUMP JUMPDEST DUP1 PUSH0 JUMPDEST DUP4 DUP2 LT ISZERO PUSH2 0x1736 JUMPI DUP2 MLOAD PUSH2 0x171D DUP9 DUP3 PUSH2 0x16C4 JUMP JUMPDEST SWAP8 POP PUSH2 0x1728 DUP4 PUSH2 0x16DB JUMP JUMPDEST SWAP3 POP POP PUSH1 0x1 DUP2 ADD SWAP1 POP PUSH2 0x1709 JUMP JUMPDEST POP DUP6 SWAP4 POP POP POP POP SWAP3 SWAP2 POP POP JUMP JUMPDEST PUSH0 DUP2 MLOAD SWAP1 POP SWAP2 SWAP1 POP JUMP JUMPDEST PUSH0 DUP3 DUP3 MSTORE PUSH1 0x20 DUP3 ADD SWAP1 POP SWAP3 SWAP2 POP POP JUMP JUMPDEST PUSH0 DUP2 SWAP1 POP PUSH1 0x20 DUP3 ADD SWAP1 POP SWAP2 SWAP1 POP JUMP JUMPDEST PUSH2 0x1775 DUP2 PUSH2 0x15A7 JUMP JUMPDEST DUP3 MSTORE POP POP JUMP JUMPDEST PUSH0 PUSH2 0x1786 DUP4 DUP4 PUSH2 0x176C JUMP JUMPDEST PUSH1 0x20 DUP4 ADD SWAP1 POP SWAP3 SWAP2 POP POP JUMP JUMPDEST PUSH0 PUSH1 0x20 DUP3 ADD SWAP1 POP SWAP2 SWAP1 POP JUMP JUMPDEST PUSH0 PUSH2 0x17A8 DUP3 PUSH2 0x1743 JUMP JUMPDEST PUSH2 0x17B2 DUP2 DUP6 PUSH2 0x174D JUMP JUMPDEST SWAP4 POP PUSH2 0x17BD DUP4 PUSH2 0x175D JUMP JUMPDEST DUP1 PUSH0 JUMPDEST DUP4 DUP2 LT ISZERO PUSH2 0x17ED JUMPI DUP2 MLOAD PUSH2 0x17D4 DUP9 DUP3 PUSH2 0x177B JUMP JUMPDEST SWAP8 POP PUSH2 0x17DF DUP4 PUSH2 0x1792 JUMP JUMPDEST SWAP3 POP POP PUSH1 0x1 DUP2 ADD SWAP1 POP PUSH2 0x17C0 JUMP JUMPDEST POP DUP6 SWAP4 POP POP POP POP SWAP3 SWAP2 POP POP JUMP JUMPDEST PUSH0 PUSH1 0x40 DUP3 ADD SWAP1 POP DUP2 DUP2 SUB PUSH0 DUP4 ADD MSTORE PUSH2 0x1812 DUP2 DUP6 PUSH2 0x16E7 JUMP JUMPDEST SWAP1 POP DUP2 DUP2 SUB PUSH1 0x20 DUP4 ADD MSTORE PUSH2 0x1826 DUP2 DUP5 PUSH2 0x179E JUMP JUMPDEST SWAP1 POP SWAP4 SWAP3 POP POP POP JUMP JUMPDEST PUSH0 DUP2 MLOAD SWAP1 POP SWAP2 SWAP1 POP JUMP JUMPDEST PUSH0 DUP3 DUP3 MSTORE PUSH1 0x20 DUP3 ADD SWAP1 POP SWAP3 SWAP2 POP POP JUMP JUMPDEST DUP3 DUP2 DUP4 MCOPY PUSH0 DUP4 DUP4 ADD MSTORE POP POP POP JUMP JUMPDEST PUSH0 PUSH1 0x1F NOT PUSH1 0x1F DUP4 ADD AND SWAP1 POP SWAP2 SWAP1 POP JUMP JUMPDEST PUSH0 PUSH2 0x1871 DUP3 PUSH2 0x182F JUMP JUMPDEST PUSH2 0x187B DUP2 DUP6 PUSH2 0x1839 JUMP JUMPDEST SWAP4 POP PUSH2 0x188B DUP2 DUP6 PUSH1 0x20 DUP7 ADD PUSH2 0x1849 JUMP JUMPDEST PUSH2 0x1894 DUP2 PUSH2 0x1857 JUMP JUMPDEST DUP5 ADD SWAP2 POP POP SWAP3 SWAP2 POP POP JUMP JUMPDEST PUSH0 PUSH1 0x20 DUP3 ADD SWAP1 POP DUP2 DUP2 SUB PUSH0 DUP4 ADD MSTORE PUSH2 0x18B7 DUP2 DUP5 PUSH2 0x1867 JUMP JUMPDEST SWAP1 POP SWAP3 SWAP2 POP POP JUMP JUMPDEST PUSH0 DUP2 SWAP1 POP SWAP2 SWAP1 POP JUMP JUMPDEST PUSH2 0x18D1 DUP2 PUSH2 0x18BF JUMP JUMPDEST DUP3 MSTORE POP POP JUMP JUMPDEST PUSH0 PUSH1 0x20 DUP3 ADD SWAP1 POP PUSH2 0x18EA PUSH0 DUP4 ADD DUP5 PUSH2 0x18C8 JUMP JUMPDEST SWAP3 SWAP2 POP POP JUMP JUMPDEST PUSH0 DUP2 ISZERO ISZERO SWAP1 POP SWAP2 SWAP1 POP JUMP JUMPDEST PUSH2 0x1904 DUP2 PUSH2 0x18F0 JUMP JUMPDEST DUP3 MSTORE POP POP JUMP JUMPDEST PUSH0 PUSH1 0x20 DUP3 ADD SWAP1 POP PUSH2 0x191D PUSH0 DUP4 ADD DUP5 PUSH2 0x18FB JUMP JUMPDEST SWAP3 SWAP2 POP POP JUMP JUMPDEST PUSH32 0x4C612073756261737461206E6F206861207465726D696E61646F000000000000 PUSH0 DUP3 ADD MSTORE POP JUMP JUMPDEST PUSH0 PUSH2 0x1957 PUSH1 0x1A DUP4 PUSH2 0x1839 JUMP JUMPDEST SWAP2 POP PUSH2 0x1962 DUP3 PUSH2 0x1923 JUMP JUMPDEST PUSH1 0x20 DUP3 ADD SWAP1 POP SWAP2 SWAP1 POP JUMP JUMPDEST PUSH0 PUSH1 0x20 DUP3 ADD SWAP1 POP DUP2 DUP2 SUB PUSH0 DUP4 ADD MSTORE PUSH2 0x1984 DUP2 PUSH2 0x194B JUMP JUMPDEST SWAP1 POP SWAP2 SWAP1 POP JUMP JUMPDEST PUSH32 0x536F6C6F20656C20647565C3B16F2070756564652070656E616C697A61722061 PUSH0 DUP3 ADD MSTORE PUSH32 0x6C2070726F766565646F722073656C656363696F6E61646F0000000000000000 PUSH1 0x20 DUP3 ADD MSTORE POP JUMP JUMPDEST PUSH0 PUSH2 0x19E5 PUSH1 0x38 DUP4 PUSH2 0x1839 JUMP JUMPDEST SWAP2 POP PUSH2 0x19F0 DUP3 PUSH2 0x198B JUMP JUMPDEST PUSH1 0x40 DUP3 ADD SWAP1 POP SWAP2 SWAP1 POP JUMP JUMPDEST PUSH0 PUSH1 0x20 DUP3 ADD SWAP1 POP DUP2 DUP2 SUB PUSH0 DUP4 ADD MSTORE PUSH2 0x1A12 DUP2 PUSH2 0x19D9 JUMP JUMPDEST SWAP1 POP SWAP2 SWAP1 POP JUMP JUMPDEST PUSH32 0x4E6F206861792070726F766565646F722073656C656363696F6E61646F000000 PUSH0 DUP3 ADD MSTORE POP JUMP JUMPDEST PUSH0 PUSH2 0x1A4D PUSH1 0x1D DUP4 PUSH2 0x1839 JUMP JUMPDEST SWAP2 POP PUSH2 0x1A58 DUP3 PUSH2 0x1A19 JUMP JUMPDEST PUSH1 0x20 DUP3 ADD SWAP1 POP SWAP2 SWAP1 POP JUMP JUMPDEST PUSH0 PUSH1 0x20 DUP3 ADD SWAP1 POP DUP2 DUP2 SUB PUSH0 DUP4 ADD MSTORE PUSH2 0x1A7A DUP2 PUSH2 0x1A41 JUMP JUMPDEST SWAP1 POP SWAP2 SWAP1 POP JUMP JUMPDEST PUSH32 0x4E6F20686179206465706F7369746F20706172612070656E616C697A61720000 PUSH0 DUP3 ADD MSTORE POP JUMP JUMPDEST PUSH0 PUSH2 0x1AB5 PUSH1 0x1E DUP4 PUSH2 0x1839 JUMP JUMPDEST SWAP2 POP PUSH2 0x1AC0 DUP3 PUSH2 0x1A81 JUMP JUMPDEST PUSH1 0x20 DUP3 ADD SWAP1 POP SWAP2 SWAP1 POP JUMP JUMPDEST PUSH0 PUSH1 0x20 DUP3 ADD SWAP1 POP DUP2 DUP2 SUB PUSH0 DUP4 ADD MSTORE PUSH2 0x1AE2 DUP2 PUSH2 0x1AA9 JUMP JUMPDEST SWAP1 POP SWAP2 SWAP1 POP JUMP JUMPDEST PUSH32 0x4C612073756261737461206861207465726D696E61646F000000000000000000 PUSH0 DUP3 ADD MSTORE POP JUMP JUMPDEST PUSH0 PUSH2 0x1B1D PUSH1 0x17 DUP4 PUSH2 0x1839 JUMP JUMPDEST SWAP2 POP PUSH2 0x1B28 DUP3 PUSH2 0x1AE9 JUMP JUMPDEST PUSH1 0x20 DUP3 ADD SWAP1 POP SWAP2 SWAP1 POP JUMP JUMPDEST PUSH0 PUSH1 0x20 DUP3 ADD SWAP1 POP DUP2 DUP2 SUB PUSH0 DUP4 ADD MSTORE PUSH2 0x1B4A DUP2 PUSH2 0x1B11 JUMP JUMPDEST SWAP1 POP SWAP2 SWAP1 POP JUMP JUMPDEST PUSH32 0x4C612070756A6120646562652073657220756E2076616C6F7220706F73697469 PUSH0 DUP3 ADD MSTORE PUSH32 0x766F206D61796F72207175652030000000000000000000000000000000000000 PUSH1 0x20 DUP3 ADD MSTORE POP JUMP JUMPDEST PUSH0 PUSH2 0x1BAB PUSH1 0x2E DUP4 PUSH2 0x1839 JUMP JUMPDEST SWAP2 POP PUSH2 0x1BB6 DUP3 PUSH2 0x1B51 JUMP JUMPDEST PUSH1 0x40 DUP3 ADD SWAP1 POP SWAP2 SWAP1 POP JUMP JUMPDEST PUSH0 PUSH1 0x20 DUP3 ADD SWAP1 POP DUP2 DUP2 SUB PUSH0 DUP4 ADD MSTORE PUSH2 0x1BD8 DUP2 PUSH2 0x1B9F JUMP JUMPDEST SWAP1 POP SWAP2 SWAP1 POP JUMP JUMPDEST PUSH32 0x4C612070756A6120646562652073657220756E2076616C6F7220696775616C20 PUSH0 DUP3 ADD MSTORE PUSH32 0x6F20706F7220646562616A6F2064656C2076616C6F72206DC3A178696D6F2064 PUSH1 0x20 DUP3 ADD MSTORE PUSH32 0x6566696E69646F20706F7220656C20736572766963696F2064652073616C7564 PUSH1 0x40 DUP3 ADD MSTORE POP JUMP JUMPDEST PUSH0 PUSH2 0x1C5F PUSH1 0x60 DUP4 PUSH2 0x1839 JUMP JUMPDEST SWAP2 POP PUSH2 0x1C6A DUP3 PUSH2 0x1BDF JUMP JUMPDEST PUSH1 0x60 DUP3 ADD SWAP1 POP SWAP2 SWAP1 POP JUMP JUMPDEST PUSH0 PUSH1 0x20 DUP3 ADD SWAP1 POP DUP2 DUP2 SUB PUSH0 DUP4 ADD MSTORE PUSH2 0x1C8C DUP2 PUSH2 0x1C53 JUMP JUMPDEST SWAP1 POP SWAP2 SWAP1 POP JUMP JUMPDEST PUSH32 0x596120686173207265616C697A61646F20756E612070756A6100000000000000 PUSH0 DUP3 ADD MSTORE POP JUMP JUMPDEST PUSH0 PUSH2 0x1CC7 PUSH1 0x19 DUP4 PUSH2 0x1839 JUMP JUMPDEST SWAP2 POP PUSH2 0x1CD2 DUP3 PUSH2 0x1C93 JUMP JUMPDEST PUSH1 0x20 DUP3 ADD SWAP1 POP SWAP2 SWAP1 POP JUMP JUMPDEST PUSH0 PUSH1 0x20 DUP3 ADD SWAP1 POP DUP2 DUP2 SUB PUSH0 DUP4 ADD MSTORE PUSH2 0x1CF4 DUP2 PUSH2 0x1CBB JUMP JUMPDEST SWAP1 POP SWAP2 SWAP1 POP JUMP JUMPDEST PUSH32 0x4E487B7100000000000000000000000000000000000000000000000000000000 PUSH0 MSTORE PUSH1 0x11 PUSH1 0x4 MSTORE PUSH1 0x24 PUSH0 REVERT JUMPDEST PUSH0 PUSH2 0x1D32 DUP3 PUSH2 0x18BF JUMP JUMPDEST SWAP2 POP PUSH2 0x1D3D DUP4 PUSH2 0x18BF JUMP JUMPDEST SWAP3 POP DUP3 DUP3 MUL PUSH2 0x1D4B DUP2 PUSH2 0x18BF JUMP JUMPDEST SWAP2 POP DUP3 DUP3 DIV DUP5 EQ DUP4 ISZERO OR PUSH2 0x1D62 JUMPI PUSH2 0x1D61 PUSH2 0x1CFB JUMP JUMPDEST JUMPDEST POP SWAP3 SWAP2 POP POP JUMP JUMPDEST PUSH32 0x4E487B7100000000000000000000000000000000000000000000000000000000 PUSH0 MSTORE PUSH1 0x12 PUSH1 0x4 MSTORE PUSH1 0x24 PUSH0 REVERT JUMPDEST PUSH0 PUSH2 0x1DA0 DUP3 PUSH2 0x18BF JUMP JUMPDEST SWAP2 POP PUSH2 0x1DAB DUP4 PUSH2 0x18BF JUMP JUMPDEST SWAP3 POP DUP3 PUSH2 0x1DBB JUMPI PUSH2 0x1DBA PUSH2 0x1D69 JUMP JUMPDEST JUMPDEST DUP3 DUP3 DIV SWAP1 POP SWAP3 SWAP2 POP POP JUMP JUMPDEST PUSH32 0x446562657320656E7669617220616C206D656E6F7320656C2031302520646520 PUSH0 DUP3 ADD MSTORE PUSH32 0x74752070756A6120636F6D6F206465706F7369746F0000000000000000000000 PUSH1 0x20 DUP3 ADD MSTORE POP JUMP JUMPDEST PUSH0 PUSH2 0x1E20 PUSH1 0x35 DUP4 PUSH2 0x1839 JUMP JUMPDEST SWAP2 POP PUSH2 0x1E2B DUP3 PUSH2 0x1DC6 JUMP JUMPDEST PUSH1 0x40 DUP3 ADD SWAP1 POP SWAP2 SWAP1 POP JUMP JUMPDEST PUSH0 PUSH1 0x20 DUP3 ADD SWAP1 POP DUP2 DUP2 SUB PUSH0 DUP4 ADD MSTORE PUSH2 0x1E4D DUP2 PUSH2 0x1E14 JUMP JUMPDEST SWAP1 POP SWAP2 SWAP1 POP JUMP JUMPDEST PUSH0 PUSH2 0x1E5E DUP3 PUSH2 0x18BF JUMP JUMPDEST SWAP2 POP PUSH2 0x1E69 DUP4 PUSH2 0x18BF JUMP JUMPDEST SWAP3 POP DUP3 DUP3 ADD SWAP1 POP DUP1 DUP3 GT ISZERO PUSH2 0x1E81 JUMPI PUSH2 0x1E80 PUSH2 0x1CFB JUMP JUMPDEST JUMPDEST SWAP3 SWAP2 POP POP JUMP JUMPDEST PUSH32 0x4E487B7100000000000000000000000000000000000000000000000000000000 PUSH0 MSTORE PUSH1 0x22 PUSH1 0x4 MSTORE PUSH1 0x24 PUSH0 REVERT JUMPDEST PUSH0 PUSH1 0x2 DUP3 DIV SWAP1 POP PUSH1 0x1 DUP3 AND DUP1 PUSH2 0x1ECB JUMPI PUSH1 0x7F DUP3 AND SWAP2 POP JUMPDEST PUSH1 0x20 DUP3 LT DUP2 SUB PUSH2 0x1EDE JUMPI PUSH2 0x1EDD PUSH2 0x1E87 JUMP JUMPDEST JUMPDEST POP SWAP2 SWAP1 POP JUMP JUMPDEST PUSH32 0x536F6C6F20656C20647565C3B16F20707565646520706167617220616C207072 PUSH0 DUP3 ADD MSTORE PUSH32 0x6F766565646F722073656C656363696F6E61646F000000000000000000000000 PUSH1 0x20 DUP3 ADD MSTORE POP JUMP JUMPDEST PUSH0 PUSH2 0x1F3E PUSH1 0x34 DUP4 PUSH2 0x1839 JUMP JUMPDEST SWAP2 POP PUSH2 0x1F49 DUP3 PUSH2 0x1EE4 JUMP JUMPDEST PUSH1 0x40 DUP3 ADD SWAP1 POP SWAP2 SWAP1 POP JUMP JUMPDEST PUSH0 PUSH1 0x20 DUP3 ADD SWAP1 POP DUP2 DUP2 SUB PUSH0 DUP4 ADD MSTORE PUSH2 0x1F6B DUP2 PUSH2 0x1F32 JUMP JUMPDEST SWAP1 POP SWAP2 SWAP1 POP JUMP JUMPDEST PUSH32 0x4E6F20686179206465706F7369746F2070617261207061676172000000000000 PUSH0 DUP3 ADD MSTORE POP JUMP JUMPDEST PUSH0 PUSH2 0x1FA6 PUSH1 0x1A DUP4 PUSH2 0x1839 JUMP JUMPDEST SWAP2 POP PUSH2 0x1FB1 DUP3 PUSH2 0x1F72 JUMP JUMPDEST PUSH1 0x20 DUP3 ADD SWAP1 POP SWAP2 SWAP1 POP JUMP JUMPDEST PUSH0 PUSH1 0x20 DUP3 ADD SWAP1 POP DUP2 DUP2 SUB PUSH0 DUP4 ADD MSTORE PUSH2 0x1FD3 DUP2 PUSH2 0x1F9A JUMP JUMPDEST SWAP1 POP SWAP2 SWAP1 POP JUMP JUMPDEST PUSH0 DUP2 SWAP1 POP SWAP3 SWAP2 POP POP JUMP JUMPDEST POP JUMP JUMPDEST PUSH0 PUSH2 0x1FF2 PUSH0 DUP4 PUSH2 0x1FDA JUMP JUMPDEST SWAP2 POP PUSH2 0x1FFD DUP3 PUSH2 0x1FE4 JUMP JUMPDEST PUSH0 DUP3 ADD SWAP1 POP SWAP2 SWAP1 POP JUMP JUMPDEST PUSH0 PUSH2 0x2011 DUP3 PUSH2 0x1FE7 JUMP JUMPDEST SWAP2 POP DUP2 SWAP1 POP SWAP2 SWAP1 POP JUMP JUMPDEST PUSH32 0x46616C6C6F20616C20656E766961722045544800000000000000000000000000 PUSH0 DUP3 ADD MSTORE POP JUMP JUMPDEST PUSH0 PUSH2 0x204F PUSH1 0x13 DUP4 PUSH2 0x1839 JUMP JUMPDEST SWAP2 POP PUSH2 0x205A DUP3 PUSH2 0x201B JUMP JUMPDEST PUSH1 0x20 DUP3 ADD SWAP1 POP SWAP2 SWAP1 POP JUMP JUMPDEST PUSH0 PUSH1 0x20 DUP3 ADD SWAP1 POP DUP2 DUP2 SUB PUSH0 DUP4 ADD MSTORE PUSH2 0x207C DUP2 PUSH2 0x2043 JUMP JUMPDEST SWAP1 POP SWAP2 SWAP1 POP JUMP JUMPDEST PUSH32 0x4C612073756261737461207961206861207465726D696E61646F000000000000 PUSH0 DUP3 ADD MSTORE POP JUMP JUMPDEST PUSH0 PUSH2 0x20B7 PUSH1 0x1A DUP4 PUSH2 0x1839 JUMP JUMPDEST SWAP2 POP PUSH2 0x20C2 DUP3 PUSH2 0x2083 JUMP JUMPDEST PUSH1 0x20 DUP3 ADD SWAP1 POP SWAP2 SWAP1 POP JUMP JUMPDEST PUSH0 PUSH1 0x20 DUP3 ADD SWAP1 POP DUP2 DUP2 SUB PUSH0 DUP4 ADD MSTORE PUSH2 0x20E4 DUP2 PUSH2 0x20AB JUMP JUMPDEST SWAP1 POP SWAP2 SWAP1 POP JUMP JUMPDEST PUSH32 0x4E487B7100000000000000000000000000000000000000000000000000000000 PUSH0 MSTORE PUSH1 0x32 PUSH1 0x4 MSTORE PUSH1 0x24 PUSH0 REVERT INVALID LOG2 PUSH5 0x6970667358 0x22 SLT KECCAK256 0xCA 0x2D 0xAA 0xAB PUSH17 0x12A074470806817DF8375AFE4B084E20D PUSH4 0xE473A42 TSTORE 0xD6 0xDE 0xBF DUP16 PUSH5 0x736F6C6343 STOP ADDMOD 0x22 STOP CALLER "
				},
				"gasEstimates": {
					"creation": {
						"codeDepositCost": "1705200",
						"executionCost": "infinite",
						"totalCost": "infinite"
					},
					"external": {
						"auctionEndDate()": "infinite",
						"auctionEnded()": "2539",
						"auctionStartDate()": "infinite",
						"bid(uint8)": "infinite",
						"checkAuctionEndDatePassed()": "infinite",
						"getBidPerSupplier()": "infinite",
						"getSupplierSelected()": "4763",
						"maximumBid()": "infinite",
						"medicalEquipment()": "infinite",
						"owner()": "infinite",
						"payDepositSupplierSelected()": "infinite",
						"penalizeSupplier()": "infinite",
						"quantityToPay()": "2540"
					},
					"internal": {
						"endAuction()": "infinite",
						"refundDepositParticipants()": "infinite"
					}
				},
				"methodIdentifiers": {
					"auctionEndDate()": "3d827e05",
					"auctionEnded()": "86433374",
					"auctionStartDate()": "e8b10c56",
					"bid(uint8)": "33500e26",
					"checkAuctionEndDatePassed()": "5d3a5703",
					"getBidPerSupplier()": "3551999d",
					"getSupplierSelected()": "2bb17b79",
					"maximumBid()": "48a818ad",
					"medicalEquipment()": "3a685f61",
					"owner()": "8da5cb5b",
					"payDepositSupplierSelected()": "e0c10485",
					"penalizeSupplier()": "1946941a",
					"quantityToPay()": "2642a3f0"
				}
			},
			"storageLayout": {
				"storage": [
					{
						"astId": 243,
						"contract": "contracts/Auction.sol:Auction",
						"label": "medicalEquipment",
						"offset": 0,
						"slot": "0",
						"type": "t_string_storage"
					},
					{
						"astId": 255,
						"contract": "contracts/Auction.sol:Auction",
						"label": "bidPerSupplier",
						"offset": 0,
						"slot": "1",
						"type": "t_mapping(t_address,t_uint8)"
					},
					{
						"astId": 259,
						"contract": "contracts/Auction.sol:Auction",
						"label": "deposits",
						"offset": 0,
						"slot": "2",
						"type": "t_mapping(t_address,t_uint256)"
					},
					{
						"astId": 262,
						"contract": "contracts/Auction.sol:Auction",
						"label": "suppliers",
						"offset": 0,
						"slot": "3",
						"type": "t_array(t_address)dyn_storage"
					},
					{
						"astId": 265,
						"contract": "contracts/Auction.sol:Auction",
						"label": "bids",
						"offset": 0,
						"slot": "4",
						"type": "t_array(t_uint8)dyn_storage"
					},
					{
						"astId": 267,
						"contract": "contracts/Auction.sol:Auction",
						"label": "supplierSelected",
						"offset": 0,
						"slot": "5",
						"type": "t_address"
					},
					{
						"astId": 269,
						"contract": "contracts/Auction.sol:Auction",
						"label": "quantityToPay",
						"offset": 20,
						"slot": "5",
						"type": "t_uint8"
					},
					{
						"astId": 271,
						"contract": "contracts/Auction.sol:Auction",
						"label": "auctionEnded",
						"offset": 21,
						"slot": "5",
						"type": "t_bool"
					}
				],
				"types": {
					"t_address": {
						"encoding": "inplace",
						"label": "address",
						"numberOfBytes": "20"
					},
					"t_array(t_address)dyn_storage": {
						"base": "t_address",
						"encoding": "dynamic_array",
						"label": "address[]",
						"numberOfBytes": "32"
					},
					"t_array(t_uint8)dyn_storage": {
						"base": "t_uint8",
						"encoding": "dynamic_array",
						"label": "uint8[]",
						"numberOfBytes": "32"
					},
					"t_bool": {
						"encoding": "inplace",
						"label": "bool",
						"numberOfBytes": "1"
					},
					"t_mapping(t_address,t_uint256)": {
						"encoding": "mapping",
						"key": "t_address",
						"label": "mapping(address => uint256)",
						"numberOfBytes": "32",
						"value": "t_uint256"
					},
					"t_mapping(t_address,t_uint8)": {
						"encoding": "mapping",
						"key": "t_address",
						"label": "mapping(address => uint8)",
						"numberOfBytes": "32",
						"value": "t_uint8"
					},
					"t_string_storage": {
						"encoding": "bytes",
						"label": "string",
						"numberOfBytes": "32"
					},
					"t_uint256": {
						"encoding": "inplace",
						"label": "uint256",
						"numberOfBytes": "32"
					},
					"t_uint8": {
						"encoding": "inplace",
						"label": "uint8",
						"numberOfBytes": "1"
					}
				}
			},
			"userdoc": {
				"kind": "user",
				"methods": {},
				"version": 1
			}
		}
	}
}